:100000000C9452000C9473210C9469010C9473218C
:100010000C9473210C9473210C9473210C94732110
:100020000C9473210C9473210C9473210C946F180D
:100030000C9473210C9473210C9473210C947321F0
:100040000C9473210C9473210C9473210C947321E0
:100050000C9473210C9473210C9473210C947321D0
:100060000C9473210C9473218D19A5197F197F1994
:100070007F19A819B019AD197F197F197F197F1938
:10008000B319B619B91901000136800136019C0077
:1000900042EE019C01A28001A201B600435401B6C8
:1000A00001E0800011241FBECFEFD8E0DEBFCDBF3E
:1000B000E6E8F0E040E017C0B591A59135912591B3
:1000C000059107FD0CC095918591EF01F92FE82F5F
:1000D00005900D92A217B307D9F7FE0104C01D9237
:1000E000A217B307E1F7E33AF40731F70E9460196A
:0800F0000C947A00F894FFCF94
:1000F800496E7369726120612073656E68612E2E86
:10010800002020204465736174697661646F202043
:100118002000202020204174697661646F2020002F
:1001280020202050726F6772616D6163616F2020BB
:10013800002053656E686120646573656A61646157
:1001480000202053656E736F722061207365720002
:10015800202020686162696C697461646F002020E6
:100168006465736162696C697461646F0020202042
:100178004D6F64652050616E6963002020506F6C7C
:1001880069636520636F6D696E67004572617369A5
:100198006E672E2E2E2E2E0020205A6F6E61206143
:1001A80020736572002020686162696C69746164FB
:1001B8006100206465736162696C697461646100DF
:1001C800204173736F63696163616F200053656ECB
:1001D800736F722065205A6F6E6100446573617396
:1001E800736F63696163616F002020416A7573747E
:1001F8006520646F20200020202054696D656F758C
:100208007420200054656D706F20646120536972FA
:10021800656E650054656D706F2064652041746972
:100228007600412063656E7472616C20666F692088
:10023800617469766164612070656C6F207573758F
:100248006172696F202000206E6F20646961202030
:10025800002065206E6120686F7261202000206890
:100268002020000D0A00412063656E7472616C20C5
:10027800666F692070726F6772616D61646120706A
:10028800656C6F207573756172696F20200031008D
:1002980032003300340035003600370038003900AA
:1002A8003000412063656E7472616C20666F69204E
:1002B800646573617469766164612070656C6F2030
:0A02C8007573756172696F202000E4
:1002D2001F920F920FB60F9211242F933F934F93B9
:1002E2005F936F937F938F939F93AF93BF93CF93BC
:1002F200EF93FF9389B1807F90E0909309018093FF
:100302000801803F910509F06BC191E08091DC0109
:10031200883009F090E081E02091D8013091D90134
:10032200243031050CF080E08923A9F081E30E949A
:10033200361F46E952E060E08091D8019091D901E0
:100342000E941B218091D8019091D901019690932E
:10035200D9018093D80191E08091DC01893009F0C4
:1003620090E081E02091D8013091D901243031050B
:100372000CF080E08923A9F081E30E94361F46E950
:1003820052E060E08091D8019091D9010E94711EE3
:100392008091D8019091D90101969093D9018093CF
:1003A200D80191E08091DC018A3009F090E081E08F
:1003B2002091D8013091D901243031050CF080E030
:1003C2008923A9F081E30E94361F46E952E060E0EA
:1003D2008091D8019091D9010E941B218091D8016E
:1003E2009091D90101969093D9018093D80191E01F
:1003F2008091DC018B3009F090E081E02091D801FE
:100402003091D901243031050CF080E08923A9F024
:1004120081E30E94361F46E952E060E08091D801F4
:100422009091D9010E941B218091D8019091D9010C
:1004320001969093D9018093D80191E08091DC01DB
:10044200873009F090E081E02091DA013091DB0100
:100452002130310509F080E0892379F089E0809329
:10046200DC010E94E81E81E090E090932A018093D3
:1004720029011092DB011092DA0191E08091DC01F6
:100482008F3009F090E081E02091D2013091D301C8
:10049200232B09F080E0892321F081E090E00E9483
:1004A200CC1791E08091DC01803109F090E081E08D
:1004B2002091D2013091D301232B09F080E08923CE
:1004C20021F081E090E00E94FA189091DC0121E095
:1004D2004091CA015091CB01452B09F020E081E007
:1004E200913109F080E08223F9F02091CC01309122
:1004F200CD012115310559F421E030E0309301019D
:10050200209300013093CD012093CC010DC0213006
:10051200310551F421E030E03093050120930401CC
:100522003093CB012093CA012091BE013091BF01CB
:1005320041E0933109F040E081E0223031050CF0D6
:1005420080E0842379F0F901EE0FFF1FE35FFE4F95
:1005520041E050E0518340832F5F3F4F3093BF0112
:100562002093BE0181E02091BE013091BF01233072
:1005720031050CF080E021E0943109F020E02823DD
:1005820099F02091BA013091BB01F901EE0FFF1FE2
:10059200E55DFE4F41E050E0518340832F5F3F4FC6
:1005A2003093BB012093BA0121E0923109F020E09F
:1005B200822311F40C941F118091BC019091BD0112
:1005C200FC01EE0FFF1FED5DFE4F21E030E03183B5
:1005D200208301969093BD018093BC010C941F115E
:1005E200803E910509F088C191E08091DC0188305C
:1005F20009F090E081E02091D8013091D9012430B6
:1006020031050CF080E08923A9F082E30E94361FB5
:1006120048E952E060E08091D8019091D9010E94AE
:100622001B218091D8019091D90101969093D90113
:100632008093D80191E08091DC01893009F090E04B
:1006420081E02091D8013091D901243031050CF09C
:1006520080E08923A9F082E30E94361F48E952E034
:1006620060E08091D8019091D9010E94711E809121
:10067200D8019091D90101969093D9018093D80124
:1006820091E08091DC018A3009F090E081E02091D4
:10069200D8013091D901243031050CF080E0892352
:1006A200A9F082E30E94361F48E952E060E080919F
:1006B200D8019091D9010E941B218091D80190917B
:1006C200D90101969093D9018093D80191E080914C
:1006D200DC018B3009F090E081E02091D80130916B
:1006E200D901243031050CF080E08923A9F082E39E
:1006F2000E94361F48E952E060E08091D801909153
:10070200D9010E941B218091D8019091D9010196B3
:100712009093D9018093D80191E08091DC018730D8
:1007220009F090E02091DA013091DB0141E0609123
:10073200C4017091C501672B09F040E081E02115E9
:10074200310509F080E08423992349F0882339F0A8
:1007520081E090E09093DB018093DA0116C081E0A2
:100762002130310509F080E0982379F089E0809307
:10077200DC010E94E81E82E090E090932A018093BF
:1007820029011092DB011092DA0191E08091DC01E3
:100792008F3009F090E081E02091D2013091D301B5
:1007A200232B09F080E0892321F082E090E00E946F
:1007B200CC1791E08091DC01803109F090E081E07A
:1007C2002091D2013091D301232B09F080E08923BB
:1007D20021F082E090E00E94FA189091DC0121E081
:1007E2004091CA015091CB01452B09F020E081E0F4
:1007F200913109F080E0822319F12091CC013091EE
:10080200CD012115310569F422E030E03093010178
:100812002093000121E030E03093CD012093CC0100
:100822000FC02130310561F422E030E03093050140
:100832002093040121E030E03093CB012093CA01E0
:100842002091BE013091BF0141E0933109F040E0B7
:1008520081E0223031050CF080E0842379F0F90147
:10086200EE0FFF1FE35FFE4F42E050E051834083F3
:100872002F5F3F4F3093BF012093BE0181E0209153
:10088200BE013091BF01233031050CF080E021E040
:10089200943109F020E0282399F02091BA01309197
:1008A200BB01F901EE0FFF1FE55DFE4F42E050E094
:1008B200518340832F5F3F4F3093BB012093BA0196
:1008C20021E0923109F020E0822311F40C941F11EF
:1008D2008091BC019091BD01FC01EE0FFF1FED5D07
:1008E200FE4F22E030E03183208301969093BD01D8
:1008F2008093BC010C941F11803D910509F09DC1AC
:1009020091E08091DC01883009F090E081E0209153
:10091200D8013091D901243031050CF080E08923CF
:10092200A9F083E30E94361F4AE952E060E0809119
:10093200D8019091D9010E941B218091D8019091F8
:10094200D90101969093D9018093D80191E08091C9
:10095200DC01893009F090E081E02091D8013091EA
:10096200D901243031050CF080E08923A9F083E31A
:100972000E94361F4AE952E060E08091D8019091CE
:10098200D9010E94711E8091D8019091D9010196DE
:100992009093D9018093D80191E08091DC018A3053
:1009A20009F090E081E02091D8013091D901243002
:1009B20031050CF080E08923A9F083E30E94361F01
:1009C2004AE952E060E08091D8019091D9010E94F9
:1009D2001B218091D8019091D90101969093D90160
:1009E2008093D80191E08091DC018B3009F090E096
:1009F20081E02091D8013091D901243031050CF0E9
:100A020080E08923A9F083E30E94361F4AE952E07D
:100A120060E08091D8019091D9010E941B218091C0
:100A2200D8019091D90101969093D9018093D80170
:100A320091E08091DC018F3009F090E081E020911B
:100A4200D2013091D301232B09F080E0892321F0D8
:100A520083E090E00E94CC1791E08091DC01873026
:100A620009F090E021E04091DA015091DB01452B41
:100A720009F020E081E04091C4015091C501452B6D
:100A820009F080E082239923A9F0882399F08FE06E
:100A92008093DC018091D0019091D101892B11F4D6
:100AA2000E94C11B8091D0019091D101019711F454
:100AB2000E94F41B91E08091DC01873009F090E004
:100AC20081E02091DA013091DB012130310509F01A
:100AD20080E0892379F089E08093DC010E94E81E9E
:100AE20083E090E090932A01809329011092DB0128
:100AF2001092DA0191E08091DC01803109F090E0FE
:100B020081E02091D2013091D301232B09F080E0C2
:100B1200892321F083E090E00E94FA189091DC0191
:100B220021E04091CA015091CB01452B09F020E010
:100B320081E0913109F080E0822319F12091CC010A
:100B42003091CD012115310569F423E030E0309375
:100B520001012093000121E030E03093CD01209388
:100B6200CC010FC02130310561F423E030E0309335
:100B720005012093040121E030E03093CB01209362
:100B8200CA012091BE013091BF0141E0933109F0C9
:100B920040E081E0223031050CF080E0842379F0DE
:100BA200F901EE0FFF1FE35FFE4F43E050E0518378
:100BB20040832F5F3F4F3093BF012093BE0181E0FE
:100BC2002091BE013091BF01233031050CF080E04D
:100BD20021E0943109F020E0282399F02091BA0114
:100BE2003091BB01F901EE0FFF1FE55DFE4F43E0BF
:100BF20050E0518340832F5F3F4F3093BB012093DE
:100C0200BA0121E0923109F020E0822311F40C9420
:100C12001F118091BC019091BD01FC01EE0FFF1FDD
:100C2200ED5DFE4F23E030E0318320830196909307
:100C3200BD018093BC010C941F11803C910579F495
:100C42008091DC01813011F00C941F1188E08093B7
:100C5200DC010E94C11E0E9451210C941F11803B95
:100C6200910509F05DC191E08091DC01883009F0C5
:100C720090E081E02091D8013091D90124303105F2
:100C82000CF080E08923A9F084E30E94361F4CE92E
:100C920052E060E08091D8019091D9010E941B211D
:100CA2008091D8019091D90101969093D9018093B6
:100CB200D80191E08091DC01893009F090E081E077
:100CC2002091D8013091D901243031050CF080E017
:100CD2008923A9F084E30E94361F4CE952E060E0C8
:100CE2008091D8019091D9010E94711E8091D80102
:100CF2009091D90101969093D9018093D80191E006
:100D02008091DC018A3009F090E081E02091D801E5
:100D12003091D901243031050CF080E08923A9F00B
:100D220084E30E94361F4CE952E060E08091D801D2
:100D32009091D9010E941B218091D8019091D901F3
:100D420001969093D9018093D80191E08091DC01C2
:100D52008B3009F090E081E02091D8013091D901E7
:100D6200243031050CF080E08923A9F084E30E944D
:100D7200361F4CE952E060E08091D8019091D90190
:100D82000E941B218091D8019091D90101969093E4
:100D9200D9018093D80191E08091DC018F3009F074
:100DA20090E081E02091D2013091D301232B09F010
:100DB20080E0892321F084E090E00E94CC1790919A
:100DC200DC0121E0913109F020E031E04091CA01DB
:100DD2005091CB01452B09F030E081E04091CC01EC
:100DE2005091CD01452B09F080E08323222371F03D
:100DF200882361F024E030E0309301012093000168
:100E020021E030E03093CB012093CA0121E09730FA
:100E120009F020E091E04091DA015091DB01452B8D
:100E220009F090E081E04091C4015091C501452B49
:100E320009F080E089232223A9F0882399F081E137
:100E42008093DC018091D0019091D101892B11F422
:100E52000E948D1C8091D0019091D101019711F4D3
:100E62000E94C01C2091DC014091BE015091BF0143
:100E720091E0233109F090E081E0423051050CF01D
:100E820080E0892379F0FA01EE0FFF1FE35FFE4F46
:100E920084E090E0918380834F5F5F4F5093BF0166
:100EA2004093BE0181E04091BE015091BF014330A9
:100EB20051050CF080E091E0243109F090E0982394
:100EC20099F04091BA015091BB01FA01EE0FFF1F58
:100ED200E55DFE4F64E070E0718360834F5F5F4FBA
:100EE2005093BB014093BA0191E0223109F090E0A6
:100EF200892311F40C941F118091BC019091BD01C2
:100F0200FC01EE0FFF1FED5DFE4F24E030E0318368
:100F1200208301969093BD018093BC010C941F1114
:100F2200803A910509F05DC191E08091DC01883041
:100F320009F090E081E02091D8013091D90124306C
:100F420031050CF080E08923A9F085E30E94361F69
:100F52004EE952E060E08091D8019091D9010E945F
:100F62001B218091D8019091D90101969093D901CA
:100F72008093D80191E08091DC01893009F090E002
:100F820081E02091D8013091D901243031050CF053
:100F920080E08923A9F085E30E94361F4EE952E0E2
:100FA20060E08091D8019091D9010E94711E8091D8
:100FB200D8019091D90101969093D9018093D801DB
:100FC20091E08091DC018A3009F090E081E020918B
:100FD200D8013091D901243031050CF080E0892309
:100FE200A9F085E30E94361F4EE952E060E080914D
:100FF200D8019091D9010E941B218091D801909132
:10100200D90101969093D9018093D80191E0809102
:10101200DC018B3009F090E081E02091D801309121
:10102200D901243031050CF080E08923A9F085E351
:101032000E94361F4EE952E060E08091D801909103
:10104200D9010E941B218091D8019091D90101966A
:101052009093D9018093D80191E08091DC018F3087
:1010620009F090E081E02091D2013091D301232B4D
:1010720009F080E0892321F085E090E00E94CC17FE
:1010820091E08091DC01873009F090E021E040910D
:10109200DA015091DB01452B09F020E081E040911B
:1010A200C4015091C501452B09F080E082239923A8
:1010B200A9F0882399F080E18093DC018091D0012E
:1010C2009091D101892B11F40E94271C8091D001AB
:1010D2009091D101019711F40E945A1C9091DC0168
:1010E20021E0913109F020E031E04091CA015091B4
:1010F200CB01452B09F030E081E04091CC015091C9
:10110200CD01452B09F080E08323222371F088234F
:1011120061F025E030E0309301012093000121E0ED
:1011220030E03093CB012093CA012091BE0130916F
:10113200BF0141E0933109F040E081E02230310506
:101142000CF080E0842379F0F901EE0FFF1FE35FDA
:10115200FE4F45E050E0518340832F5F3F4F309375
:10116200BF012093BE0181E02091BE013091BF01F9
:10117200233031050CF080E021E0943109F020E0C9
:10118200282399F02091BA013091BB01F901EE0FA9
:10119200FF1FE55DFE4F45E050E0518340832F5F26
:1011A2003F4F3093BB012093BA0121E0923109F005
:1011B20020E0822311F40C941F118091BC019091C4
:1011C200BD01FC01EE0FFF1FED5DFE4F25E030E09B
:1011D2003183208301969093BD018093BC010C94CE
:1011E2001F118039910509F05CC191E08091DC0109
:1011F200883009F090E081E02091D8013091D90146
:10120200243031050CF080E08923A9F086E30E94A6
:10121200361F40EA52E060E08091D8019091D901F6
:101222000E941B218091D8019091D901019690933F
:10123200D9018093D80191E08091DC01893009F0D5
:1012420090E081E02091D8013091D901243031051C
:101252000CF080E08923A9F086E30E94361F40EA61
:1012620052E060E08091D8019091D9010E94711EF4
:101272008091D8019091D90101969093D9018093E0
:10128200D80191E08091DC018A3009F090E081E0A0
:101292002091D8013091D901243031050CF080E041
:1012A2008923A9F086E30E94361F40EA52E060E0FB
:1012B2008091D8019091D9010E941B218091D8017F
:1012C2009091D90101969093D9018093D80191E030
:1012D2008091DC018B3009F090E081E02091D8010F
:1012E2003091D901243031050CF080E08923A9F036
:1012F20086E30E94361F40EA52E060E08091D80106
:101302009091D9010E941B218091D8019091D9011D
:1013120001969093D9018093D80191E08091DC01EC
:101322008F3009F090E081E02091D2013091D30119
:10133200232B09F080E0892321F086E090E00E94CF
:10134200CC178091DC0121E0813109F020E031E00D
:101352004091CA015091CB01452B09F030E091E058
:101362004091CC015091CD01452B09F090E093239F
:10137200222371F0992361F026E030E030930101DD
:101382002093000121E030E03093CB012093CA0189
:101392002091BE013091BF0141E0833109F040E06C
:1013A20091E0223031050CF090E0942379F0F901BC
:1013B200EE0FFF1FE35FFE4F46E050E05183408394
:1013C2002F5F3F4F3093BF012093BE0121E0409138
:1013D200BE015091BF01433051050CF020E091E075
:1013E200843109F090E0922399F02091BA01309172
:1013F200BB01F901EE0FFF1FE55DFE4F46E050E035
:10140200518340832F5F3F4F3093BB012093BA013A
:1014120091E0873009F090E021E04091DA015091AB
:10142200DB01452B09F020E081E04091C40150919D
:10143200C501452B09F080E08223992369F08823B6
:1014420059F082E18093DC0181E090E09093C10148
:101452008093C0010E94591D91E08091DC0182318C
:1014620009F090E081E02091BE013091BF0123306C
:1014720031050CF080E0892309F4E0C68091BC01BB
:101482009091BD01FC01EE0FFF1FED5DFE4F26E0C6
:1014920030E03183208301969093BD018093BC019B
:1014A200CDC68038910519F591E08091DC01883034
:1014B20009F090E081E02091D8013091D9012430E7
:1014C200310509F080E0892339F08CE08093DC015A
:1014D2001092D9011092D8018091DC01813009F07B
:1014E200ADC68AE08093DC010E94C11EA7C6803788
:1014F200910509F053C191E08091DC01883009F037
:1015020090E081E02091D8013091D9012430310559
:101512000CF080E08923A9F087E30E94361F42EA9B
:1015220052E060E08091D8019091D9010E941B2184
:101532008091D8019091D90101969093D90180931D
:10154200D80191E08091DC01893009F090E081E0DE
:101552002091D8013091D901243031050CF080E07E
:101562008923A9F087E30E94361F42EA52E060E035
:101572008091D8019091D9010E94711E8091D80169
:101582009091D90101969093D9018093D80191E06D
:101592008091DC018A3009F090E081E02091D8014D
:1015A2003091D901243031050CF080E08923A9F073
:1015B20087E30E94361F42EA52E060E08091D80140
:1015C2009091D9010E941B218091D8019091D9015B
:1015D20001969093D9018093D80191E08091DC012A
:1015E2008B3009F090E081E02091D8013091D9014F
:1015F200243031050CF080E08923A9F087E30E94B2
:10160200361F40EA52E060E08091D8019091D90102
:101612000E941B218091D8019091D901019690934B
:10162200D9018093D80191E08091DC018F3009F0DB
:1016320090E081E02091D2013091D301232B09F077
:1016420080E0892321F087E090E00E94CC179091FE
:10165200DC0121E0913109F020E031E04091CA0142
:101662005091CB01452B09F030E081E04091CC0153
:101672005091CD01452B09F080E08323222371F0A4
:10168200882361F027E030E03093010120930001CC
:1016920021E030E03093CB012093CA012091BE01BA
:1016A2003091BF0141E0933109F040E081E0223006
:1016B20031050CF080E0842379F0F901EE0FFF1F71
:1016C200E35FFE4F47E050E0518340832F5F3F4F7F
:1016D2003093BF012093BE0121E0973009F020E052
:1016E20091E04091DA015091DB01452B09F090E045
:1016F20081E04091C4015091C501452B09F080E081
:101702008923222369F0882359F083E18093DC0145
:1017120081E090E09093C5018093C4010E94F31C84
:101722002091DC0181E04091BE015091BF01433024
:1017320051050CF080E091E0243109F090E098230B
:1017420099F04091BA015091BB01FA01EE0FFF1FCF
:10175200E55DFE4F67E070E0718360834F5F5F4F2E
:101762005093BB014093BA0191E0223109F090E01D
:10177200892309F463C58091BC019091BD01FC01EC
:10178200EE0FFF1FED5DFE4F27E030E03183208337
:1017920001969093BD018093BC0150C5803691059E
:1017A20009F023C191E08091DC01883009F090E0DA
:1017B20081E02091D8013091D901243031050CF01B
:1017C20080E08923A9F088E30E94361F44EA52E0B0
:1017D20060E08091D8019091D9010E941B218091F3
:1017E200D8019091D90101969093D9018093D801A3
:1017F20091E08091DC01893009F090E081E0209154
:10180200D8013091D901243031050CF080E08923D0
:10181200A9F088E30E94361F44EA52E060E080911A
:10182200D8019091D9010E94711E8091D8019091A6
:10183200D90101969093D9018093D80191E08091CA
:10184200DC018A3009F090E081E02091D8013091EA
:10185200D901243031050CF080E08923A9F088E316
:101862000E94361F44EA52E060E08091D8019091D4
:10187200D9010E941B218091D8019091D901019632
:101882009093D9018093D80191E08091DC018B3053
:1018920009F090E081E02091D8013091D901243003
:1018A20031050CF080E08923A9F088E30E94361FFD
:1018B20040EA52E060E08091D8019091D9010E9403
:1018C2001B218091D8019091D90101969093D90161
:1018D2008093D8019091DC012091BE013091BF012B
:1018E20041E0933109F040E081E0223031050CF013
:1018F20080E0842379F0F901EE0FFF1FE35FFE4FD2
:1019020048E050E0518340832F5F3F4F3093BF0147
:101912002093BE0121E04091BE015091BF014330AE
:1019220051050CF020E081E0943109F080E082233F
:1019320099F02091BA013091BB01F901EE0FFF1F1E
:10194200E55DFE4F48E050E0518340832F5F3F4FFB
:101952003093BB012093BA0121E0973009F020E0D7
:1019620091E04091DA015091DB01452B09F090E0C2
:1019720081E04091C4015091C501452B09F080E0FE
:101982008923222369F0882359F084E18093DC01C2
:1019920081E090E09093C3018093C2010E94261DD2
:1019A20091E08091DC01823109F090E081E02091A8
:1019B200BE013091BF01233031050CF080E0892354
:1019C20009F43CC48091BC019091BD01FC01EE0F71
:1019D200FF1FED5DFE4F28E030E03183208301964A
:1019E2009093BD018093BC0129C48035910509F013
:1019F200F4C091E08091DC01883009F090E081E050
:101A02002091D8013091D901243031050CF080E0C9
:101A12008923A9F089E30E94361F46EA52E060E07A
:101A22008091D8019091D9010E941B218091D80107
:101A32009091D90101969093D9018093D80191E0B8
:101A42008091DC01893009F090E081E02091D80199
:101A52003091D901243031050CF080E08923A9F0BE
:101A620089E30E94361F46EA52E060E08091D80185
:101A72009091D9010E94711E8091D8019091D90153
:101A820001969093D9018093D80191E08091DC0175
:101A92008A3009F090E081E02091D8013091D9019B
:101AA200243031050CF080E08923A9F089E30E94FB
:101AB200361F46EA52E060E08091D8019091D90148
:101AC2000E941B218091D8019091D9010196909397
:101AD200D9018093D80191E08091DC018B3009F02B
:101AE20090E081E02091D8013091D9012430310574
:101AF2000CF080E08923A9F089E30E94361F46EAB0
:101B020052E060E08091D8019091D9010E941B219E
:101B12008091D8019091D90101969093D901809337
:101B2200D8012091DC014091BE015091BF0191E0AA
:101B3200233109F090E081E0423051050CF080E061
:101B4200892379F0FA01EE0FFF1FE35FFE4F89E070
:101B520090E0918380834F5F5F4F5093BF0140932A
:101B6200BE0181E04091BE015091BF014330510559
:101B72000CF080E091E0243109F090E0982399F094
:101B82004091BA015091BB01FA01EE0FFF1FE55DD2
:101B9200FE4F69E070E0718360834F5F5F4F509347
:101BA200BB014093BA0191E0223109F090E0892310
:101BB20009F444C38091BC019091BD01FC01EE0F78
:101BC200FF1FED5DFE4F29E030E031832083019657
:101BD2009093BD018093BC0131C38034910549F5D6
:101BE2008091DC01853029F48BE08093DC010E9436
:101BF200C11E91E08091DC01883009F090E081E023
:101C02002091D8013091D9012430310509F080E0CA
:101C1200892309F413C38CE08093DC0181E090E016
:101C22009093D1018093D0011092D9011092D801E2
:101C320005C38033910511F51092DC010E94112138
:101C42000E94EC1F1092CF011092CE011092D3018C
:101C52001092D2011092D1011092D0011092DB01A8
:101C62001092DA01109269001DBA62E370E080E01E
:101C720090E00E94471E0E944B21E0C280329105F3
:101C820009F025C191E08091DC01883009F090E0F3
:101C920081E02091D8013091D901243031050CF036
:101CA20080E08923A9F080E30E94361F48EA52E0CF
:101CB20060E08091D8019091D9010E941B2180910E
:101CC200D8019091D90101969093D9018093D801BE
:101CD20091E08091DC01893009F090E081E020916F
:101CE200D8013091D901243031050CF080E08923EC
:101CF200A9F080E30E94361F48EA52E060E080913A
:101D0200D8019091D9010E94711E8091D8019091C1
:101D1200D90101969093D9018093D80191E08091E5
:101D2200DC018A3009F090E081E02091D801309105
:101D3200D901243031050CF080E08923A9F080E339
:101D42000E94361F48EA52E060E08091D8019091EB
:101D5200D9010E941B218091D8019091D90101964D
:101D62009093D9018093D80191E08091DC018B306E
:101D720009F090E081E02091D8013091D90124301E
:101D820031050CF080E08923A9F080E30E94361F20
:101D920048EA52E060E08091D8019091D9010E9416
:101DA2001B218091D8019091D90101969093D9017C
:101DB2008093D80191E08091DC018F3009F090E0AE
:101DC20081E02091D2013091D301232B09F080E0F0
:101DD200892321F080E090E00E94CC172091DC0161
:101DE20091E0213109F090E031E04091CA01509137
:101DF200CB01452B09F030E081E04091CC015091BC
:101E0200CD01452B09F080E08323992361F08823DB
:101E120051F0109201011092000181E090E0909344
:101E2200CB018093CA014091BE015091BF0191E064
:101E3200233109F090E081E0423051050CF080E05E
:101E4200892369F0FA01EE0FFF1FE35FFE4F118253
:101E520010824F5F5F4F5093BF014093BE0181E0FC
:101E62004091BE015091BF01433051050CF080E01A
:101E720091E0243109F090E0982389F04091BA0171
:101E82005091BB01FA01EE0FFF1FE55DFE4F11827B
:101E920010824F5F5F4F5093BB014093BA0191E0B4
:101EA200223109F090E0892309F4C8C18091BC0174
:101EB2009091BD01FC01EE0FFF1FED5DFE4F1182FF
:101EC200108201969093BD018093BC01B7C180310D
:101ED200910539F58091CE019091CF010097B1F42F
:101EE2008091DC01873011F0853021F40E94252198
:101EF2000E94F1200E945D2186E08093DC0181E056
:101F020090E09093CF018093CE0198C1019709F0A0
:101F120095C10E946D2181E08093DC010E94BD1D6C
:101F22008DC1892B09F08AC191E08091DC01883052
:101F320009F090E081E02091D8013091D90124305C
:101F4200310509F080E0892389F08CE08093DC017F
:101F52000E946121C82F0E9465216C2F0E944D1B97
:101F62000E9411211092D9011092D80191E0809122
:101F7200DC01893009F090E081E02091D8013091B4
:101F8200D9012430310509F080E0892399F081E0FC
:101F92008093DC010E946121C82F0E9465216C2F71
:101FA2000E944D1B0E9411210E94BD1D1092D90159
:101FB2001092D80191E08091DC018A3009F090E022
:101FC20081E02091D8013091D9012430310509F006
:101FD20080E0892349F08DE08093DC010E94112189
:101FE2001092D9011092D80191E08091DC018B30DE
:101FF20009F090E081E02091D8013091D90124309C
:10200200310509F080E0892349F08EE08093DC01FC
:102012000E9411211092D9011092D80191E0809171
:10202200DC018F3009F090E081E02091D201309103
:10203200D3012130310509F080E08923A9F081E044
:102042008093DC010E94BD1D1092D3011092D20137
:1020520010920701109206010E946121C82F0E946E
:1020620065216C2F0E944D1B91E08091DC01803133
:1020720009F090E081E02091D2013091D30121302A
:10208200310509F080E08923A9F081E08093DC0129
:102092000E94BD1D1092D3011092D201109207012D
:1020A200109206010E946121C82F0E9465216C2FA7
:1020B2000E944D1B91E08091DC01813109F090E09A
:1020C20021E04091CA015091CB014130510509F004
:1020D20020E081E04091CC015091CD014130510589
:1020E20009F080E08223992329F1882319F181E004
:1020F2008093DC01609104017091050180910001DF
:10210200909101010E94A9131092CD011092CC016D
:102112001092CB011092CA010E94BD1D10920701BC
:10212200109206010E946121C82F0E9465216C2F26
:102132000E944D1B91E08091DC01833109F090E017
:1021420021E04091BE015091BF01423051050CF493
:1021520020E081E04091C4015091C5014130510518
:1021620009F080E082239923C9F08823B9F081E045
:102172008093DC010E946E201092BF011092BE017A
:102182000E94BD1D10920701109206010E9461215A
:10219200C82F0E9465216C2F0E944D1B91E08091F7
:1021A200DC01843109F090E081E02091BA013091A4
:1021B200BB01233031050CF480E08923B9F081E0C2
:1021C2008093DC010E94C81F1092BB011092BA01D9
:1021D2000E94BD1D10920701109206010E9461210A
:1021E200C82F0E9465216C2F0E944D1B91E08091A7
:1021F200DC01823109F090E081E02091BC01309154
:10220200BD01233031050CF480E08923B9F081E06F
:102212008093DC010E94A41F1092BD011092BC01A8
:102222000E94BD1D10920701109206010E946121B9
:10223200C82F0E9465216C2F0E944D1BFF91EF91C8
:10224200CF91BF91AF919F918F917F916F915F914C
:102252004F913F912F910F900FBE0F901F901895A5
:1022620080919E0190919F01019709F03EC02091BB
:10227200A0013091A101409160015091610191E072
:102282002130310509F090E081E04130510509F03B
:1022920080E0892319F00E945D21089540914C014C
:1022A20050914D0191E02230310509F090E081E03A
:1022B2004130510509F080E0892319F00E945D2127
:1022C2000895409138015091390191E02330310550
:1022D20009F090E081E04130510509F080E0892366
:1022E20009F435C20E945D210895409198015091F0
:1022F20099019091DF01392F331F3327331F21E0DA
:102302004130510509F020E081E0311180E0822363
:1023120009F43EC020919A0130919B0140916001E5
:102322005091610191E02130310509F090E081E0A6
:102332004130510509F080E0892319F00E945D21A6
:10234200089540914C0150914D0191E022303105A8
:1023520009F090E081E04130510509F080E08923E5
:1023620019F00E945D210895409138015091390180
:1023720091E02330310509F090E081E041305105D0
:1023820009F080E0892309F4E2C10E945D210895E9
:102392004091920150919301292F229526952695DD
:1023A200237081E08227817021E04130510509F0DC
:1023B20020E0822309F43EC02091940130919501DE
:1023C200409160015091610191E02130310509F0A5
:1023D20090E081E04130510509F080E0892319F055
:1023E2000E945D21089540914C0150914D0191E070
:1023F2002230310509F090E081E04130510509F0C9
:1024020080E0892319F00E945D21089540913801EE
:102412005091390191E02330310509F090E081E0DB
:102422004130510509F080E0892309F490C10E94EE
:102432005D21089540918C0150918D01292F2295A3
:102442002695277081E08227817021E04130510575
:1024520009F020E0822309F43EC020918E013091E0
:102462008F01409160015091610191E0213031056D
:1024720009F090E081E04130510509F080E08923C4
:1024820019F00E945D21089540914C0150914D0137
:1024920091E02230310509F090E081E041305105B0
:1024A20009F080E0892319F00E945D21089540918E
:1024B20038015091390191E02330310509F090E063
:1024C20081E04130510509F080E0892309F43FC1E0
:1024D2000E945D2108954091860150918701292F24
:1024E20022952F7081E08227817021E041305105D1
:1024F20009F020E0822309F43EC020918801309146
:102502008901409160015091610191E021303105D2
:1025120009F090E081E04130510509F080E0892323
:1025220019F00E945D21089540914C0150914D0196
:1025320091E02230310509F090E081E0413051050F
:1025420009F080E0892319F00E945D2108954091ED
:1025520038015091390191E02330310509F090E0C2
:1025620081E04130510509F080E0892309F4EFC090
:102572000E945D2108954091800150918101292F8F
:1025820026952695269581E08227817021E04130AB
:10259200510509F020E0822309F43EC02091820116
:1025A20030918301409160015091610191E02130AD
:1025B200310509F090E081E04130510509F080E0F9
:1025C200892319F00E945D21089540914C01509198
:1025D2004D0191E02230310509F090E081E0413077
:1025E200510509F080E0892319F00E945D210895C8
:1025F200409138015091390191E02330310509F0C1
:1026020090E081E04130510509F080E0892309F42E
:102612009EC00E945D21089540917A0150917B01F4
:10262200292F2695269581E08227817021E041306D
:10263200510509F020E0822309F43EC020917C017B
:1026420030917D01409160015091610191E0213012
:10265200310509F090E081E04130510509F080E058
:10266200892319F00E945D21089540914C015091F7
:102672004D0191E02230310509F090E081E04130D6
:10268200510509F080E0892319F00E945D21089527
:10269200409138015091390191E02330310509F020
:1026A20090E081E04130510509F080E0892309F48E
:1026B2004EC00E945D2108952091740130917501F0
:1026C200969581E0982791702130310509F080E0DC
:1026D200982309F43CC02091760130917701409112
:1026E20060015091610191E02130310509F090E0E3
:1026F20081E04130510509F080E0892319F00E9400
:102702005D21089540914C0150914D0191E022309C
:10271200310509F090E081E04130510509F080E097
:10272200892319F00E945D2108954091380150914A
:10273200390191E02330310509F090E081E0413028
:10274200510509F080E0892311F00E945D2108956E
:102752002091D0013091D1012115310509F064C1D8
:102762006130710509F068C0009751F421E030E052
:1027720030936301209362013093A1012093A00161
:102782008130910551F421E030E0309365012093CE
:10279200640130939B0120939A018230910551F498
:1027A20021E030E030936701209366013093950178
:1027B200209394018330910551F421E030E030936D
:1027C20069012093680130938F0120938E01843038
:1027D200910551F421E030E030936B0120936A01BE
:1027E20030938901209388018530910551F421E0CD
:1027F20030E030936D0120936C013093830120937C
:1028020082018630910551F421E030E030936F016E
:1028120020936E0130937D0120937C01079709F08C
:10282200B5C181E090E09093710180937001909323
:1028320077018093760108956230710509F078C0BE
:10284200009761F421E030E030936301209362014C
:1028520022E030E03093A1012093A0018130910564
:1028620061F421E030E0309365012093640122E0BD
:1028720030E030939B0120939A018230910561F4FC
:1028820021E030E0309367012093660122E030E0DE
:1028920030939501209394018330910561F421E0F6
:1028A20030E0309369012093680122E030E03093F8
:1028B2008F0120938E018430910561F421E030E094
:1028C20030936B0120936A0122E030E0309389015A
:1028D200209388018530910561F421E030E0309346
:1028E2006D0120936C0122E030E03093830120934C
:1028F20082018630910561F421E030E030936F016E
:1029020020936E0122E030E030937D0120937C0120
:10291200079709F03BC181E090E0909371018093A9
:10292200700182E090E090937701809376010895A0
:102932006330710509F02AC1009761F421E030E0AB
:10294200309363012093620123E030E03093A101D0
:102952002093A0018130910561F421E030E03093B1
:1029620065012093640123E030E030939B012093C2
:102972009A018230910561F421E030E030936701E1
:102982002093660123E030E0309395012093940177
:102992008330910561F421E030E0309369012093A6
:1029A200680123E030E030938F0120938E01843060
:1029B200910561F421E030E030936B0120936A01CC
:1029C20023E030E03093890120938801853091051E
:1029D20061F421E030E030936D0120936C0123E03B
:1029E20030E030938301209382018630910561F4B7
:1029F20021E030E030936F0120936E0123E030E05C
:102A020030937D0120937C01079709F0BFC081E0DC
:102A120090E0909371018093700183E090E0909335
:102A220077018093760108952130310509F0AEC017
:102A320061307105C1F5009721F410926301109283
:102A420062018130910521F41092650110926401B6
:102A52008230910521F41092670110926601833051
:102A6200910521F410926901109268018430910558
:102A720021F410926B0110926A018530910521F4C4
:102A820010926D0110926C018630910521F4109222
:102A92006F0110926E01079709F078C010927101D0
:102AA20010927001089562307105B9F5009721F412
:102AB20010926301109262018130910521F410920B
:102AC2006501109264018230910521F41092670130
:102AD200109266018330910521F4109269011092DF
:102AE20068018430910521F410926B0110926A0101
:102AF2008530910521F410926D0110926C0186309F
:102B0200910521F410926F0110926E010797F1F571
:102B12001092710110927001089563307105B1F540
:102B2200009721F4109263011092620181309105A5
:102B320021F410926501109264018230910521F412
:102B420010926701109266018330910521F4109270
:102B52006901109268018430910521F410926B0191
:102B620010926A018530910521F410926D01109244
:102B72006C018630910521F410926F0110926E0162
:0E2B8200079721F410927101109270010895CE
:102B9000CF931092D7011092D6011092D5011092C6
:102BA000D40115C0FC01EF5CFE4F308123130AC035
:102BB0002091D4013091D5012F5F3F4F3093D50143
:102BC0002093D40101969093D7018093D6018091F0
:102BD000D6019091D701FC01EF54FE4F20812111C5
:102BE000E1CF8091D4019091D5010497A1F481E0C7
:102BF0008093DC0110920701109206010E9461216E
:102C0000C82F0E9465216C2F0E94871B0E941121F2
:102C10000E94BD1DD1C01092D7011092D601109212
:102C2000D5011092D40115C0FC01EF5CFE4F30813C
:102C300023130AC02091D4013091D5012F5F3F4F5B
:102C40003093D5012093D40101969093D7018093BE
:102C5000D6018091D6019091D701FC01E455FE4F39
:102C600020812111E1CF8091D4019091D501049769
:102C7000B1F481E08093DC0181E090E09093070162
:102C8000809306010E946121C82F0E9465216C2F4C
:102C90000E94871B0E9411210E94BD1D8DC01092B1
:102CA000D7011092D6011092D5011092D40115C00F
:102CB000FC01EF5CFE4F308123130AC02091D40148
:102CC0003091D5012F5F3F4F3093D5012093D40130
:102CD00001969093D7018093D6018091D60190916F
:102CE000D701FC01E955FE4F20812111E1CF8091F0
:102CF000D4019091D5010497B1F481E08093DC0177
:102D000082E090E090930701809306010E94612188
:102D1000C82F0E9465216C2F0E94871B0E941121E1
:102D20000E94BD1D49C01092D7011092D601109289
:102D3000D5011092D40115C0FC01EF5CFE4F30812B
:102D400023130AC02091D4013091D5012F5F3F4F4A
:102D50003093D5012093D40101969093D7018093AD
:102D6000D6018091D6019091D701FC01EE55FE4F1E
:102D700020812111E1CF8091D4019091D501049758
:102D8000B1F481E08093DC0183E090E0909307014F
:102D9000809306010E946121C82F0E9465216C2F3B
:102DA0000E94871B0E9411210E94BD1D05C085E065
:0C2DB0008093DC010E941121CF91089556
:102DBC001092D7011092D6011092D5011092D40125
:102DCC0015C0FC01EF5CFE4F308123130AC020912B
:102DDC00D4013091D5012F5F3F4F3093D501209313
:102DEC00D40101969093D7018093D6018091D6019E
:102DFC009091D701FC01EF54FE4F20812111E1CFBE
:102E0C008091D4019091D501049749F41092070157
:102E1C00109206010E9411210E94512108951092D6
:102E2C00D7011092D6011092D5011092D40115C081
:102E3C00FC01EF5CFE4F308123130AC02091D401BA
:102E4C003091D5012F5F3F4F3093D5012093D401A2
:102E5C0001969093D7018093D6018091D6019091E1
:102E6C00D701FC01E455FE4F20812111E1CF809167
:102E7C00D4019091D501049759F481E090E090939E
:102E8C000701809306010E9411210E94512108958F
:102E9C001092D7011092D6011092D5011092D40144
:102EAC0015C0FC01EF5CFE4F308123130AC020914A
:102EBC00D4013091D5012F5F3F4F3093D501209332
:102ECC00D40101969093D7018093D6018091D601BD
:102EDC009091D701FC01E955FE4F20812111E1CFE2
:102EEC008091D4019091D501049759F482E090E03F
:102EFC0090930701809306010E9411210E94512199
:102F0C0008951092D7011092D6011092D50110920B
:102F1C00D40115C0FC01EF5CFE4F308123130AC0B5
:102F2C002091D4013091D5012F5F3F4F3093D501C3
:102F3C002093D40101969093D7018093D601809170
:102F4C00D6019091D701FC01EE55FE4F2081211145
:102F5C00E1CF8091D4019091D501049759F483E08D
:102F6C0090E090930701809306010E9411210E942A
:102F7C0051210895109207011092060181E080936F
:0C2F8C00DC010E9411210E94BD1D08956F
:102F980021E030E03093D3012093D2012091D00179
:102FA8003091D1012115310509F04FC0009739F44E
:102FB80081E090E090939F0180939E010895813075
:102FC800910539F481E090E09093990180939801FC
:102FD80008958230910539F481E090E0909393014F
:102FE8008093920108958330910539F481E090E04F
:102FF80090938D0180938C0108958430910539F464
:1030080081E090E090938701809386010895853050
:10301800910539F481E090E09093810180938001DB
:1030280008958630910539F481E090E090937B0112
:1030380080937A010895079709F04CC081E090E0E9
:10304800909375018093740108952130310509F03A
:1030580041C0009729F410929F0110929E0136C03A
:103068008130910529F410929901109298012EC08F
:103078008230910529F4109293011092920126C092
:103088008330910529F410928D0110928C011EC095
:103098008430910529F4109287011092860116C098
:1030A8008530910529F410928101109280010EC09B
:1030B8008630910529F410927B0110927A0106C09E
:1030C800079721F410927501109274011092D101A2
:0630D8001092D0010895E2
:1030DE001F920F920FB60F9211242F933F934F937F
:1030EE005F936F937F938F939F93AF93BF93CF9382
:1030FE00EF93FF938091DC018730C9F48091DD015D
:10310E00482F50E0209111013091120142175307C0
:10311E0051F481E08093DC011092DD010E94BD1D0F
:10312E000E9425214EC08F5F8093DD014AC08530FD
:10313E00D1F48091C8019091C90120910A0130917A
:10314E000B018217930749F40E946D211092C90159
:10315E001092C8010E94252134C001969093C90196
:10316E008093C8012EC08D3061F58091C60190917B
:10317E00C701209102013091030182179307E1F4F8
:10318E0085E08093DC010E94EB1D0E946121C82F17
:10319E000E9465216C2F0E94131B1092C701109282
:1031AE00C6018091DE01806890911301892B809376
:1031BE00DE010E94252105C001969093C7018093E0
:1031CE00C601FF91EF91CF91BF91AF919F918F91DA
:1031DE007F916F915F914F913F912F910F900FBE05
:0631EE000F901F901895E0
:1031F40021E030E03093D3012093D2012091D0011B
:103204003091D1012115310561F58130910561F4C9
:1032140081E090E0909361018093600180911301BB
:1032240080628093130108958230910561F481E0F6
:1032340090E090934D0180934C0180911301806143
:103244008093130108950397C1F581E090E0909372
:1032540039018093380180911301886080931301B0
:1032640008952130310549F58130910551F41092CA
:10327400610110926001809113018F7D809313018D
:1032840018C08230910551F410924D0110924C01F6
:10329400809113018F7E809313010BC0039749F42F
:1032A400109239011092380180911301877F809325
:0C32B40013011092D1011092D001089576
:1032C0008FE387B98EEF84B987E08AB980EF8BB935
:1032D0000E94B4200E9442210E944B210E94BC19EE
:1032E0000E942F210E94D61A20E032E14AE750E0E6
:1032F00060E875E280E090E00E940F1F78940E94E1
:103300005C1FE091DC018E2F90E08F309105B8F7C3
:10331000FC01EC5CFF4F0C9457210E9425218CE0AE
:1033200090E0909312018093110185E090E09093DA
:103330000B0180930A01909303018093020181E0C5
:103340008093DC010E94BD1DDACF1092DE01D7CF41
:103350000E94521A0E943111D2CF0E94191ECFCF63
:103360000E948C1DCCCF0E940B1AC9CF0E94DE1682
:08337000C6CF0E94C815C3CFAF
:103378006FE070E080E090E00E94471E83E00E94CA
:10338800C52065E070E080E090E00E94471E83E081
:103398000E94C52064E670E080E090E00E94801FF3
:1033A80083E00E94C52068E270E080E090E00E941F
:1033B800801F82E00E94C52068E270E080E090E013
:1033C8000E94801F88E20E94302068E270E080E05E
:1033D80090E00E94801F81E00E94302062E070E04F
:1033E80080E090E00E94471E86E00E94302068E25C
:1033F80070E080E090E00E94801F8CE00E94302006
:0E34080068E270E080E090E00E94801F08956E
:103416001092D7011092D6011092D5011092D401C4
:1034260015C0FC01EF5CFE4F308123130AC02091CA
:10343600D4013091D5012F5F3F4F3093D5012093B2
:10344600D40101969093D7018093D6018091D6013D
:103456009091D701FC01EF54FE4F20812111E1CF5D
:103466008091D4019091D501049769F410920701D7
:103476001092060187E08093DC0180E48093DE01F0
:103486000E9411210895109207011092060181E011
:0E3496008093DC010E9411210E94BD1D08954B
:1034A400CF9385B1806485B985B1826085B985B1D2
:1034B4008D7F85B985B18F7B85B9C0E02FC0189BFE
:1034C40015C08091DF0121E030E00C2E02C0220FF4
:1034D400331F0A94E2F720953095282B232BB9F05B
:1034E4006C2F0E9439218093DF0111C08091DF018C
:1034F400282F30E00C2E02C0359527950A94E2F768
:1035040020FF05C06C2F0E9407218093DF0185B145
:10351400826085B985B18D7F85B9CF5FC83078F277
:04352400CF910895A6
:103528001F93CF93DF9300D01F92CDB7DEB710E083
:1035380001C0192F9DEC899F912D11249695969580
:103548009695392F330F232F220F220F230F821B1B
:1035580020E3280F892FE1E0F0E0EC0FFD1FE10FD9
:10356800F11D17FDFA95208391E0910F8111E1CFAC
:1035780010C00E9469218823E1F3E1E0F0E0EC0F3C
:10358800FD1FE10FF11D17FDFA9580810E94702142
:103598001150112374F70F900F900F90DF91CF9176
:0435A8001F910895D2
:1035AC0085B18B7F85B982E890E00E9475210DB4BE
:1035BC0007FEFDCF81E090E00E9475210DB407FE5F
:1035CC00FDCF85B1846085B985B18B7F85B981E8E4
:1035DC0090E00E9475210DB407FEFDCF80E090E0D5
:1035EC000E9475210DB407FEFDCF85B1846085B9AD
:1035FC0085B18B7F85B983E890E00E9475210DB46D
:10360C0007FEFDCF81E090E00E9475210DB407FE0E
:0A361C00FDCF85B1846085B90895E3
:10362600CF93DF93D82FC62F6AE272E080E00E9424
:1036360050200E9469218823E1F3809106010E94AF
:10364600941A6FE472E080E00E9450200E94692183
:103656008823E1F38D2F0E94941A69E572E080E0D9
:103666000E9450200E9469218823E1F38C2F0E943A
:10367600941A66E672E080E00E9450200E9469215A
:103686008823E1F36BE672E080E00E945020DF9130
:04369600CF91089533
:10369A00CF93DF93D82FC62F6EE672E080E00E94A8
:1036AA0050200E9469218823E1F3809106010E943B
:1036BA00941A6FE472E080E00E9450200E9469210F
:1036CA008823E1F38D2F0E94941A69E572E080E065
:1036DA000E9450200E9469218823E1F38C2F0E94C6
:1036EA00941A66E672E080E00E9450200E946921E6
:1036FA008823E1F36BE672E080E00E945020DF91BC
:04370A00CF910895BE
:10370E00CF93DF93D82FC62F6AEA72E080E00E9433
:10371E0050200E9469218823E1F3809106010E94C6
:10372E00941A6FE472E080E00E9450200E9469219A
:10373E008823E1F38D2F0E94941A69E572E080E0F0
:10374E000E9450200E9469218823E1F38C2F0E9451
:10375E00941A66E672E080E00E9450200E94692171
:10376E008823E1F36BE672E080E00E945020DF9147
:04377E00CF9108954A
:10378200CF93DF93CDB7DEB76D970FB6F894DEBF58
:103792000FBECDBF0E94112129E431E040E08FE04D
:1037A200F901DE011196742F0E94E42060E0CE013F
:1037B20001960E949E2028E531E040E08EE0F9016A
:1037C200DE015096742F0E94E42060E4CE01409600
:1037D2000E949E206D960FB6F894DEBF0FBECDBF3D
:0637E200DF91CF91089574
:1037E800CF93DF93CDB7DEB76E970FB6F894DEBFF1
:1037F8000FBECDBF0E94112129E431E040E08FE0E7
:10380800F901DE011196742F0E94E42060E0CE01D8
:1038180001960E949E2026E631E040E08FE0F90103
:10382800DE015096742F0E94E42060E4CE01409699
:103838000E949E206E960FB6F894DEBF0FBECDBFD5
:06384800DF91CF9108950D
:10384E00CF93DF93CDB7DEB76A970FB6F894DEBF8E
:10385E000FBECDBF0E94112120EA31E040E08DE085
:10386E00F901DE011196742F0E94E42060E0CE0172
:10387E0001960E949E202DEA31E040E08DE0F90194
:10388E00DE011E96742F0E94E42060E4CE010E9697
:10389E000E949E206A960FB6F894DEBF0FBECDBF73
:0638AE00DF91CF910895A7
:1038B400CF93DF93CDB7DEB76B970FB6F894DEBF27
:1038C4000FBECDBF0E94112120EA31E040E08DE01F
:1038D400F901DE011196742F0E94E42060E0CE010C
:1038E40001960E949E202AEB31E040E08EE0F9012F
:1038F400DE011E96742F0E94E42060E4CE010E9631
:103904000E949E206B960FB6F894DEBF0FBECDBF0B
:06391400DF91CF91089540
:10391A00CF93DF93CDB7DEB76B970FB6F894DEBFC0
:10392A000FBECDBF0E94112128EC31E040E08DE0AE
:10393A00F901DE011196742F0E94E42060E0CE01A5
:10394A0001960E949E2025ED31E040E08EE0F901CB
:10395A00DE011E96742F0E94E42060E4CE010E96CA
:10396A000E949E206B960FB6F894DEBF0FBECDBFA5
:06397A00DF91CF910895DA
:10398000CF93DF93CDB7DEB76C970FB6F894DEBF59
:103990000FBECDBF0E94112123EE31E040E08EE04A
:1039A000F901DE011196742F0E94E42060E0CE013F
:1039B00001960E949E2025ED31E040E08EE0F90165
:1039C000DE011F96742F0E94E42060E4CE010F9662
:1039D0000E949E206C960FB6F894DEBF0FBECDBF3E
:0639E000DF91CF91089574
:1039E600CF93DF93CDB7DEB76B970FB6F894DEBFF4
:1039F6000FBECDBF0E94112121EF31E040E08EE0E5
:103A0600F901DE011196742F0E94E42060E0CE01D8
:103A160001960E949E202FEF31E040E08DE0F901F3
:103A2600DE011F96742F0E94E42060E4CE010F96FB
:103A36000E949E206B960FB6F894DEBF0FBECDBFD8
:063A4600DF91CF9108950D
:103A4C00CF93DF93CDB7DEB76E970FB6F894DEBF8A
:103A5C000FBECDBF0E94112121EF31E040E08EE07E
:103A6C00F901DE011196742F0E94E42060E0CE0172
:103A7C0001960E949E202CE032E040E080E1F901AA
:103A8C00DE011F96742F0E94E42060E4CE010F9695
:103A9C000E949E206E960FB6F894DEBF0FBECDBF6F
:063AAC00DF91CF910895A7
:103AB200CF93DF93CDB7DEB76C970FB6F894DEBF26
:103AC2000FBECDBF0E94112121EF31E040E08EE018
:103AD200F901DE011196742F0E94E42060E0CE010C
:103AE20001960E949E202CE132E040E08EE0F90136
:103AF200DE011F96742F0E94E42060E4CE010F962F
:103B02000E949E206C960FB6F894DEBF0FBECDBF0A
:063B1200DF91CF91089540
:103B1800CF93DF93CDB7DEB76E970FB6F894DEBFBD
:103B28000FBECDBF25E731E040E08EE0F901DE01B0
:103B38001196742F0E94E42060E0CE0101960E9445
:103B48009E2023E831E040E080E1F901DE011F9684
:103B5800742F0E94E42060E4CE010F960E949E20FC
:103B68006E960FB6F894DEBF0FBECDBFDF91CF9132
:023B78000895AE
:103B7A00CF93DF93CDB7DEB762970FB6F894DEBF67
:103B8A000FBECDBF29E031E040E081E1F901DE015D
:103B9A001196742F0E94E42060E0CE0101960E94E3
:103BAA009E201A8A60E4CE0142960E949E2063E01B
:103BBA0070E080E090E00E94471E62960FB6F8948B
:0C3BCA00DEBF0FBECDBFDF91CF9108958C
:103BD600CF93DF93CDB7DEB72F970FB6F894DEBF3E
:103BE6000FBECDBF2AE131E040E08EE0F901DE01F3
:103BF6001196742F0E94E42060E0CE0101960E9487
:103C06009E201F8660E4CE010F960E949E2063E0F0
:103C160070E080E090E00E94471E2F960FB6F89461
:0C3C2600DEBF0FBECDBFDF91CF9108952F
:103C3200CF93DF93CDB7DEB762970FB6F894DEBFAE
:103C42000FBECDBF28E231E040E081E1F901DE01A3
:103C52001196742F0E94E42060E0CE0101960E942A
:103C62009E201A8A60E4CE0142960E949E2063E062
:103C720070E080E090E00E94471E62960FB6F894D2
:0C3C8200DEBF0FBECDBFDF91CF910895D3
:103C8E009B01AC011092B6011092B7011092B801CF
:103C9E001092B901A8EEB3E00E94FC20AB01BC016A
:103CAE000BC00196A11DB11D8093B6019093B70173
:103CBE00A093B801B093B9018091B6019091B7016C
:103CCE00A091B801B091B901481759076A077B074F
:043CDE0044F708950A
:103CE2002091290130912A012130310549F4E42F34
:103CF200F52F749167FD7081FC01E455FE4F7083CE
:103D02002230310549F4E42FF52F749167FD70815B
:103D1200FC01E955FE4F70832330310549F4E42F4D
:103D2200F52F249167FD2081FC01EE55FE4F208383
:023D32000895F2
:103D3400806898B1907C98B998B19F7E98B998B1F1
:103D4400906298B998B1282F22952F70922B98B928
:103D540098B19F7D98B998B1907C98B998B19062C8
:103D640098B998B18F70892B88B988B18F7D88B93B
:0E3D74006BE270E080E090E00E94801F0895F6
:103D8200CF93DF93CDB7DEB761970FB6F894DEBF5E
:103D92000FBECDBF0E94112128EF30E040E081E14B
:103DA200F901DE011196742F0E94E42060E0CE0139
:103DB20001960E949E2080EC0E94302061960FB6F0
:0E3DC200F894DEBF0FBECDBFDF91CF91089504
:103DD000CF93DF93CDB7DEB760970FB6F894DEBF11
:103DE0000FBECDBF0E94112129E331E040E080E108
:103DF000F901DE011196742F0E94E42060E0CE01EB
:103E000001960E949E2080EC0E94302060960FB6A2
:0E3E1000F894DEBF0FBECDBFDF91CF910895B5
:103E1E00CF92DF92EF92FF926B017C01CA01B90142
:103E2E00689413F896958795779567951694D1F7BC
:103E3E00A70196010E940E20215031093093C50032
:103E4E002093C4001092C00088E08093C10086E0E9
:0E3E5E008093C200FF90EF90DF90CF90089508
:103E6C0098B1907F98B998B1906198B998B19062D7
:103E7C0098B998B1282F22952F70922B98B998B198
:103E8C009F7D98B998B1907F98B998B1906298B984
:103E9C0098B18F70892B88B988B18F7D88B96BE206
:0C3EAC0070E080E090E00E94801F08950C
:103EB80020E019C08091DE0190E0022E02C09595A5
:103EC80087950A94E2F780FF04C08BB184608BB9B0
:103ED80003C08BB18B7F8BB985B1826085B985B101
:103EE8008D7F85B92F5F283028F383B18F7783B909
:083EF80083B1806883B90895CD
:103F0000AB01BC011092B6011092B7011092B8013A
:103F10001092B9010BC00196A11DB11D8093B6018D
:103F20009093B701A093B801B093B9018091B60105
:103F30009091B701A091B801B091B9014817590704
:083F40006A077B0744F70895AE
:103F4800E3E2F1E08081918124E6289FA001299F86
:103F5800500D112482819381BC01660F771F9C014B
:103F6800220F331F220F331F220F331FCB01820F63
:103F7800931F840F951F24813581820F931F90937F
:083F880003018093020108957A
:103F9000EBE2F1E08081918124E6289FA001299F36
:103FA000500D112482819381BC01660F771F9C0103
:103FB000220F331F220F331F220F331FCB01820F1B
:103FC000931F840F951F24813581820F931F909337
:083FD0000B0180930A01089522
:103FD800CF93DF93CDB7DEB72D970FB6F894DEBF3A
:103FE8000FBECDBF23E931E040E08DE0F901DE01ED
:103FF8001196742F0E94E42060E0CE0101960E9481
:104008009E202D960FB6F894DEBF0FBECDBFDF9170
:04401800CF910895A7
:10401C00A1E21A2EAA1BBB1BFD010DC0AA1FBB1FC0
:10402C00EE1FFF1FA217B307E407F50720F0A21B32
:10403C00B30BE40BF50B661F771F881F991F1A949F
:10404C0069F760957095809590959B01AC01BD01C9
:04405C00CF010895F3
:1040600098B1907C98B998B19F7E98B998B19062B8
:1040700098B998B1282F22952F70922B98B998B1A2
:104080009F7D98B998B1907C98B998B1906298B991
:1040900098B18F70892B88B988B18F7D88B90895C0
:1040A000CF92DF92EF926B01E82E0EC00E94692141
:1040B0008823E1F3F6018491E7FC80810E9470215E
:1040C0008FEFC81AD80AE80AF6018491E7FC8081CC
:0C40D0008111ECCFEF90DF90CF900895AD
:1040DC00EDE0F1E0808191819C01220F331F880F6C
:1040EC00991F880F991F880F991F820F931F228188
:1040FC003381820F931F90931201809311010895C5
:10410C009CB595659CBD95B19B7F95B990E00E943F
:10411C0075210DB407FEFDCF8FEF90E00E94752145
:10412C000DB407FEFDCF85B1846085B98EB50895B9
:10413C000F931F93CF938C01862F0E949A1EC0E081
:10414C0003C00E94361FCF5FF801EC0FF11D808178
:0C415C008111F7CFCF911F910F910895B2
:10416800E1E8F0E0808188608083EFE6F0E080811C
:104178008260808382E19AE7909389008093880027
:02418800089598
:10418A0098B1907C98B998B19F7E98B998B190628D
:10419A0098B998B1892B88B988B18F7D88B9089563
:1041AA00A29FB001B39FC001A39F700D811D11246E
:0E41BA00911DB29F700D811D1124911D08955D
:1041C800992777FD05C005900D920197E1F70895AD
:0A41D80001900D920197E1F70895A0
:1041E2001092DD011092C7011092C6011092C9010E
:0641F2001092C8010895BF
:1041F8000E94D520A59F900DB49F900DA49F800D7F
:06420800911D1124089530
:10420E0021E030E002C0220F331F6A95E2F72095BD
:04421E00822308955A
:1042220081E00E9430206FE070E080E090E00E9428
:04423200471E089586
:10423600E42FF52F249167FD20818F5C9E4FFC01B2
:044246002083089534
:10424A00E1E8F0E08081887F8083109285001092F7
:04425A00840008953F
:10425E0084B18C6284B98CB581658CBD85B1846066
:04426E0085B9089571
:1042720021E030E002C0220F331F6A95E2F7822B61
:0242820008959D
:1042840084B5826084BDEEE6F0E080818260808344
:0242940008958B
:0C4296008CE08093690082E08DBB0895ED
:0C42A200E1E8F0E08081846080830895F2
:0C42AE00EE0FFF1F0590F491E02D099425
:0842BA008BB181608BB90895FE
:0842C20082E00E9486200895AD
:0842CA0083E00E9486200895A4
:0842D2008091C0008072089584
:0642DA008BB11BB8089532
:0642E0008093C600089562
:0442E6000C94000034
:0442EA008EBD0895E8
:1042EE0003000000000000000000000000000000BD
:0442FE0000000000BC
:1043020002000000000000000000000000000000A9
:0443120000000000A7
:104316000100000000000000000000000000000096
:044326000000000093
:06432A0007000000000086
:0643300006000000000081
:064336000500000000007C
:06433C0004000000000077
:0643420003000000000072
:064348000200000000006D
:06434E0001000000000068
:0543540031323334009A
:05435900313233340095
:05435E00313233340090
:0543630031323334008B
:00000001FF
