:100000000C9452000C94981E0C941F010C94981E92
:100010000C94981E0C94981E0C94981E0C94981E88
:100020000C94981E0C94981E0C94981E0C9479179E
:100030000C94981E0C94981E0C94981E0C94981E68
:100040000C94981E0C94981E0C94981E0C94981E58
:100050000C94981E0C94981E0C94981E0C94981E48
:100060000C94981E0C94981ECE18E618C018C01850
:10007000C018E918F118EE18C018C018C018C01838
:10008000F418F718FA1801000134800134019A00BD
:100090003D34019A01A08001A001B4003D9A01B451
:1000A00001DE800011241FBECFEFD8E0DEBFCDBF40
:1000B000E6E8F0E040E017C0B591A59135912591B3
:1000C000059107FD0CC095918591EF01F92FE82F5F
:1000D00005900D92A217B307D9F7FE0104C01D9237
:1000E000A217B307E1F7E33AF40731F70E94AF181C
:0800F0000C947A00F894FFCF94
:1000F800496E7369726120612073656E68612E2E86
:10010800002020204465736174697661646F202043
:100118002000202020204174697661646F2020002F
:1001280020202050726F6772616D6163616F2020BB
:10013800002053656E686120646573656A61646157
:1001480000202053656E736F722061207365720002
:10015800202020686162696C697461646F002020E6
:100168006465736162696C697461646F0020202042
:100178004D6F64652050616E6963002020506F6C7C
:1001880069636520636F6D696E67004572617369A5
:100198006E672E2E2E2E2E0020205A6F6E61206143
:1001A80020736572002020686162696C69746164FB
:1001B8006100206465736162696C697461646100DF
:1001C800204173736F63696163616F200053656ECB
:1001D800736F722065205A6F6E6100446573617396
:1001E800736F63696163616F002020416A7573747E
:1001F8006520646F20200020202054696D656F758C
:100208007420200054656D706F20646120536972FA
:10021800656E650054656D706F2064652041746972
:1002280076003100320033003400350036003700E4
:060238003800390030001F
:10023E001F920F920FB60F9211242F933F934F934D
:10024E005F936F937F938F939F93AF93BF93EF9330
:10025E00FF9389B1807F90E0909307018093060110
:10026E00803F910509F06BC191E08091DA018830F1
:10027E0009F090E081E02091D6013091D701243031
:10028E0031050CF080E08923A9F081E30E94CC1C9B
:10029E004AE252E060E08091D6019091D7010E942F
:1002AE00591E8091D6019091D70101969093D70156
:1002BE008093D60191E08091DA01893009F090E0C7
:1002CE0081E02091D6013091D701243031050CF018
:1002DE0080E08923A9F081E30E94CC1C4AE252E01F
:1002EE0060E08091D6019091D7010E942E1C8091E2
:1002FE00D6019091D70101969093D7018093D601A4
:10030E0091E08091DA018A3009F090E081E020914D
:10031E00D6013091D701243031050CF080E08923CD
:10032E00A9F081E30E94CC1C4AE252E060E0809189
:10033E00D6019091D7010E94591E8091D6019091BD
:10034E00D70101969093D7018093D60191E08091C9
:10035E00DA018B3009F090E081E02091D6013091E6
:10036E00D701243031050CF080E08923A9F081E318
:10037E000E94CC1C4AE252E060E08091D60190913E
:10038E00D7010E94591E8091D6019091D7010196F6
:10039E009093D7018093D60191E08091DA01873056
:1003AE0009F090E081E02091D8013091D9012130FF
:1003BE00310509F080E0892379F089E08093DA0134
:1003CE000E94A51C81E090E0909328018093270164
:1003DE001092D9011092D80191E08091DA018F30FC
:1003EE0009F090E081E02091D0013091D101232BD2
:1003FE0009F080E0892321F081E090E00E94D6167A
:10040E0091E08091DA01803109F090E081E0209155
:10041E00D0013091D101232B09F080E0892321F006
:10042E0081E090E00E94FA179091DA0121E040916C
:10043E00C8015091C901452B09F020E081E09131AE
:10044E0009F080E08223F9F02091CA013091CB01AE
:10045E002115310559F421E030E03093010120934C
:10046E0000013093CB012093CA010DC0213031051C
:10047E0051F421E030E030930501209304013093D4
:10048E00C9012093C8012091BC013091BD0141E00A
:10049E00933109F040E081E0223031050CF080E02C
:1004AE00842379F0F901EE0FFF1FE55FFE4F41E067
:1004BE0050E0518340832F5F3F4F3093BD01209317
:1004CE00BC0181E02091BC013091BD01233031058A
:1004DE000CF080E021E0943109F020E0282399F01F
:1004EE002091B8013091B901F901EE0FFF1FE75DC0
:1004FE00FE4F41E050E0518340832F5F3F4F3093DA
:10050E00B9012093B80121E0923109F020E0822355
:10051E0011F40C947C108091BA019091BB01FC01F6
:10052E00EE0FFF1FEF5DFE4F21E030E031832083A1
:10053E0001969093BB018093BA010C947C10803E7F
:10054E00910509F088C191E08091DA01883009F0B7
:10055E0090E081E02091D6013091D7012430310511
:10056E000CF080E08923A9F082E30E94CC1C4CE2BF
:10057E0052E060E08091D6019091D7010E94591E01
:10058E008091D6019091D70101969093D7018093D7
:10059E00D60191E08091DA01893009F090E081E096
:1005AE002091D6013091D701243031050CF080E036
:1005BE008923A9F082E30E94CC1C4CE252E060E059
:1005CE008091D6019091D7010E942E1C8091D60168
:1005DE009091D70101969093D7018093D60191E027
:1005EE008091DA018A3009F090E081E02091D60105
:1005FE003091D701243031050CF080E08923A9F029
:10060E0082E30E94CC1C4CE252E060E08091D60165
:10061E009091D7010E94591E8091D6019091D701D9
:10062E0001969093D7018093D60191E08091DA01E3
:10063E008B3009F090E081E02091D6013091D70106
:10064E00243031050CF080E08923A9F082E30E946A
:10065E00CC1C4CE252E060E08091D6019091D70123
:10066E000E94591E8091D6019091D70101969093C8
:10067E00D7018093D60191E08091DA01873009F09D
:10068E0090E02091D8013091D90141E06091C201F2
:10069E007091C301672B09F040E081E0211531050F
:1006AE0009F080E08423992349F0882339F081E012
:1006BE0090E09093D9018093D80116C081E021304B
:1006CE00310509F080E0982379F089E08093DA0112
:1006DE000E94A51C82E090E0909328018093270150
:1006EE001092D9011092D80191E08091DA018F30E9
:1006FE0009F090E081E02091D0013091D101232BBF
:10070E0009F080E0892321F082E090E00E94D61665
:10071E0091E08091DA01803109F090E081E0209142
:10072E00D0013091D101232B09F080E0892321F0F3
:10073E0082E090E00E94FA179091DA0121E0409158
:10074E00C8015091C901452B09F020E081E091319B
:10075E0009F080E0822319F12091CA013091CB017A
:10076E002115310569F422E030E030930101209328
:10077E00000121E030E03093CB012093CA010FC07D
:10078E002130310561F422E030E0309305012093F1
:10079E00040121E030E03093C9012093C80120917B
:1007AE00BC013091BD0141E0933109F040E081E0A0
:1007BE00223031050CF080E0842379F0F901EE0F40
:1007CE00FF1FE55FFE4F42E050E0518340832F5FF5
:1007DE003F4F3093BD012093BC0181E02091BC01BD
:1007EE003091BD01233031050CF080E021E09431D1
:1007FE0009F020E0282399F02091B8013091B90139
:10080E00F901EE0FFF1FE75DFE4F42E050E051830E
:10081E0040832F5F3F4F3093B9012093B80121E001
:10082E00923109F020E0822311F40C947C10809117
:10083E00BA019091BB01FC01EE0FFF1FEF5DFE4F61
:10084E0022E030E03183208301969093BB018093A8
:10085E00BA010C947C10803D910509F09DC191E088
:10086E008091DA01883009F090E081E02091D60184
:10087E003091D701243031050CF080E08923A9F0A6
:10088E0083E30E94CC1C4EE252E060E08091D601E0
:10089E009091D7010E94591E8091D6019091D70157
:1008AE0001969093D7018093D60191E08091DA0161
:1008BE00893009F090E081E02091D6013091D70186
:1008CE00243031050CF080E08923A9F083E30E94E7
:1008DE00CC1C4EE252E060E08091D6019091D7019F
:1008EE000E942E1C8091D6019091D7010196909373
:1008FE00D7018093D60191E08091DA018A3009F018
:10090E0090E081E02091D6013091D701243031055D
:10091E000CF080E08923A9F083E30E94CC1C4EE208
:10092E0052E060E08091D6019091D7010E94591E4D
:10093E008091D6019091D70101969093D701809323
:10094E00D60191E08091DA018B3009F090E081E0E0
:10095E002091D6013091D701243031050CF080E082
:10096E008923A9F083E30E94CC1C4EE252E060E0A2
:10097E008091D6019091D7010E94591E8091D60187
:10098E009091D70101969093D7018093D60191E073
:10099E008091DA018F3009F090E081E02091D00152
:1009AE003091D101232B09F080E0892321F083E0DF
:1009BE0090E00E94D61691E08091DA01873009F01E
:1009CE0090E021E04091D8015091D901452B09F0DA
:1009DE0020E081E04091C2015091C301452B09F006
:1009EE0080E082239923A9F0882399F08FE08093E9
:1009FE00DA018091CE019091CF01892B11F40E94E2
:100A0E007E198091CE019091CF01019711F40E9431
:100A1E00B11991E08091DA01873009F090E081E020
:100A2E002091D8013091D9012130310509F080E0B3
:100A3E00892379F089E08093DA010E94A51C83E076
:100A4E0090E090932801809327011092D901109283
:100A5E00D80191E08091DA01803109F090E081E0D7
:100A6E002091D0013091D101232B09F080E0892310
:100A7E0021F083E090E00E94FA179091DA0121E0D4
:100A8E004091C8015091C901452B09F020E081E049
:100A9E00913109F080E0822319F12091CA01309141
:100AAE00CB012115310569F423E030E030930101CB
:100ABE002093000121E030E03093CB012093CA0156
:100ACE000FC02130310561F423E030E03093050191
:100ADE002093040121E030E03093C9012093C80136
:100AEE002091BC013091BD0141E0933109F040E00D
:100AFE0081E0223031050CF080E0842379F0F90199
:100B0E00EE0FFF1FE55FFE4F43E050E05183408341
:100B1E002F5F3F4F3093BD012093BC0181E02091A8
:100B2E00BC013091BD01233031050CF080E021E095
:100B3E00943109F020E0282399F02091B8013091EA
:100B4E00B901F901EE0FFF1FE75DFE4F43E050E0E4
:100B5E00518340832F5F3F4F3093B9012093B801EB
:100B6E0021E0923109F020E0822311F40C947C10E4
:100B7E008091BA019091BB01FC01EE0FFF1FEF5D5A
:100B8E00FE4F23E030E03183208301969093BB012A
:100B9E008093BA010C947C10803C910579F480917D
:100BAE00DA01813011F00C947C1088E08093DA0128
:100BBE000E947E1C0E94851E0C947C10803B910529
:100BCE0009F05DC191E08091DA01883009F090E082
:100BDE0081E02091D6013091D701243031050CF0FF
:100BEE0080E08923A9F084E30E94CC1C40E352E00C
:100BFE0060E08091D6019091D7010E94591E80919C
:100C0E00D6019091D70101969093D7018093D6018A
:100C1E0091E08091DA01893009F090E081E0209135
:100C2E00D6013091D701243031050CF080E08923B4
:100C3E00A9F084E30E94CC1C40E352E060E0809176
:100C4E00D6019091D7010E942E1C8091D6019091D1
:100C5E00D70101969093D7018093D60191E08091B0
:100C6E00DA018A3009F090E081E02091D6013091CE
:100C7E00D701243031050CF080E08923A9F084E3FC
:100C8E000E94CC1C40E352E060E08091D60190912E
:100C9E00D7010E94591E8091D6019091D7010196DD
:100CAE009093D7018093D60191E08091DA018B3039
:100CBE0009F090E081E02091D6013091D7012430E7
:100CCE0031050CF080E08923A9F084E30E94CC1C4E
:100CDE0040E352E060E08091D6019091D7010E94EE
:100CEE00591E8091D6019091D70101969093D7010C
:100CFE008093D60191E08091DA018F3009F090E077
:100D0E0081E02091D0013091D101232B09F080E0B8
:100D1E00892321F084E090E00E94D6169091DA01AA
:100D2E0021E0913109F020E031E04091C80150916D
:100D3E00C901452B09F030E081E04091CA01509184
:100D4E00CB01452B09F080E08323222371F0882309
:100D5E0061F024E030E0309301012093000121E0A6
:100D6E0030E03093C9012093C80121E0973009F09B
:100D7E0020E091E04091D8015091D901452B09F026
:100D8E0090E081E04091C2015091C301452B09F0E2
:100D9E0080E089232223A9F0882399F081E18093B2
:100DAE00DA018091CE019091CF01892B11F40E942E
:100DBE004A1A8091CE019091CF01019711F40E94B1
:100DCE007D1A2091DA014091BC015091BD0191E054
:100DDE00233109F090E081E0423051050CF080E0C3
:100DEE00892379F0FA01EE0FFF1FE55FFE4F84E0D5
:100DFE0090E0918380834F5F5F4F5093BD0140938E
:100E0E00BC0181E04091BC015091BD0143305105C0
:100E1E000CF080E091E0243109F090E0982399F0F5
:100E2E004091B8015091B901FA01EE0FFF1FE75D35
:100E3E00FE4F64E070E0718360834F5F5F4F5093AD
:100E4E00B9014093B80191E0223109F090E0892375
:100E5E0011F40C947C108091BA019091BB01FC01AD
:100E6E00EE0FFF1FEF5DFE4F24E030E03183208355
:100E7E0001969093BB018093BA010C947C10803A3A
:100E8E00910509F05DC191E08091DA01883009F099
:100E9E0090E081E02091D6013091D70124303105C8
:100EAE000CF080E08923A9F085E30E94CC1C42E37C
:100EBE0052E060E08091D6019091D7010E94591EB8
:100ECE008091D6019091D70101969093D70180938E
:100EDE00D60191E08091DA01893009F090E081E04D
:100EEE002091D6013091D701243031050CF080E0ED
:100EFE008923A9F085E30E94CC1C42E352E060E016
:100F0E008091D6019091D7010E942E1C8091D6011E
:100F1E009091D70101969093D7018093D60191E0DD
:100F2E008091DA018A3009F090E081E02091D601BB
:100F3E003091D701243031050CF080E08923A9F0DF
:100F4E0085E30E94CC1C42E352E060E08091D60122
:100F5E009091D7010E94591E8091D6019091D70190
:100F6E0001969093D7018093D60191E08091DA019A
:100F7E008B3009F090E081E02091D6013091D701BD
:100F8E00243031050CF080E08923A9F085E30E941E
:100F9E00CC1C42E352E060E08091D6019091D701E3
:100FAE000E94591E8091D6019091D701019690937F
:100FBE00D7018093D60191E08091DA018F3009F04C
:100FCE0090E081E02091D0013091D101232B09F0E6
:100FDE0080E0892321F085E090E00E94D61691E012
:100FEE008091DA01873009F090E021E04091D8013C
:100FFE005091D901452B09F020E081E04091C201CA
:10100E005091C301452B09F080E082239923A9F06A
:10101E00882399F080E18093DA018091CE0190913E
:10102E00CF01892B11F40E94E4198091CE01909189
:10103E00CF01019711F40E94171A9091DA0121E065
:10104E00913109F020E031E04091C8015091C90181
:10105E00452B09F030E081E04091CA015091CB015F
:10106E00452B09F080E08323222371F0882361F061
:10107E0025E030E0309301012093000121E030E0C3
:10108E003093C9012093C8012091BC013091BD015C
:10109E0041E0933109F040E081E0223031050CF05F
:1010AE0080E0842379F0F901EE0FFF1FE55FFE4F1C
:1010BE0045E050E0518340832F5F3F4F3093BD0199
:1010CE002093BC0181E02091BC013091BD01233001
:1010DE0031050CF080E021E0943109F020E0282366
:1010EE0099F02091B8013091B901F901EE0FFF1F6F
:1010FE00E75DFE4F45E050E0518340832F5F3F4F49
:10110E003093B9012093B80121E0923109F020E02B
:10111E00822311F40C947C108091BA019091BB0142
:10112E00FC01EE0FFF1FEF5DFE4F25E030E0318337
:10113E00208301969093BB018093BA010C947C108E
:10114E008039910509F05CC191E08091DA01883017
:10115E0009F090E081E02091D6013091D701243042
:10116E0031050CF080E08923A9F086E30E94CC1CA7
:10117E0044E352E060E08091D6019091D7010E9445
:10118E00591E8091D6019091D70101969093D70167
:10119E008093D60191E08091DA01893009F090E0D8
:1011AE0081E02091D6013091D701243031050CF029
:1011BE0080E08923A9F086E30E94CC1C44E352E030
:1011CE0060E08091D6019091D7010E942E1C8091F3
:1011DE00D6019091D70101969093D7018093D601B5
:1011EE0091E08091DA018A3009F090E081E020915F
:1011FE00D6013091D701243031050CF080E08923DF
:10120E00A9F086E30E94CC1C44E352E060E080919A
:10121E00D6019091D7010E94591E8091D6019091CE
:10122E00D70101969093D7018093D60191E08091DA
:10123E00DA018B3009F090E081E02091D6013091F7
:10124E00D701243031050CF080E08923A9F086E324
:10125E000E94CC1C44E352E060E08091D601909154
:10126E00D7010E94591E8091D6019091D701019607
:10127E009093D7018093D60191E08091DA018F305F
:10128E0009F090E081E02091D0013091D101232B23
:10129E0009F080E0892321F086E090E00E94D616C6
:1012AE008091DA0121E0813109F020E031E04091B6
:1012BE00C8015091C901452B09F030E091E04091F1
:1012CE00CA015091CB01452B09F090E093232223C4
:1012DE0071F0992361F026E030E030930101209304
:1012EE00000121E030E03093C9012093C801209124
:1012FE00BC013091BD0141E0833109F040E091E045
:10130E00223031050CF090E0942379F0F901EE0FC4
:10131E00FF1FE55FFE4F46E050E0518340832F5F95
:10132E003F4F3093BD012093BC0121E04091BC01A1
:10133E005091BD01433051050CF020E091E0843115
:10134E0009F090E0922399F02091B8013091B90103
:10135E00F901EE0FFF1FE75DFE4F46E050E05183AF
:10136E0040832F5F3F4F3093B9012093B80191E036
:10137E00873009F090E021E04091D8015091D901D9
:10138E00452B09F020E081E04091C2015091C3014C
:10139E00452B09F080E08223992369F0882359F0C8
:1013AE0082E18093DA0181E090E09093BF01809317
:1013BE00BE010E94161B91E08091DA01823109F084
:1013CE0090E081E02091BC013091BD0123303105C8
:1013DE000CF080E0892309F488C68091BA019091BF
:1013EE00BB01FC01EE0FFF1FEF5DFE4F26E030E06C
:1013FE003183208301969093BB018093BA0175C609
:10140E008038910519F591E08091DA01883009F064
:10141E0090E081E02091D6013091D7012430310542
:10142E0009F080E0892339F08CE08093DA01109284
:10143E00D7011092D6018091DA01813009F055C69C
:10144E008AE08093DA010E947E1C4FC68037910598
:10145E0009F053C191E08091DA01883009F090E0F3
:10146E0081E02091D6013091D701243031050CF066
:10147E0080E08923A9F087E30E94CC1C46E352E06A
:10148E0060E08091D6019091D7010E94591E809103
:10149E00D6019091D70101969093D7018093D601F2
:1014AE0091E08091DA01893009F090E081E020919D
:1014BE00D6013091D701243031050CF080E089231C
:1014CE00A9F087E30E94CC1C46E352E060E08091D5
:1014DE00D6019091D7010E942E1C8091D601909139
:1014EE00D70101969093D7018093D60191E0809118
:1014FE00DA018A3009F090E081E02091D601309136
:10150E00D701243031050CF080E08923A9F087E360
:10151E000E94CC1C46E352E060E08091D60190918F
:10152E00D7010E94591E8091D6019091D701019644
:10153E009093D7018093D60191E08091DA018B30A0
:10154E0009F090E081E02091D6013091D70124304E
:10155E0031050CF080E08923A9F087E30E94CC1CB2
:10156E0044E352E060E08091D6019091D7010E9451
:10157E00591E8091D6019091D70101969093D70173
:10158E008093D60191E08091DA018F3009F090E0DE
:10159E0081E02091D0013091D101232B09F080E020
:1015AE00892321F087E090E00E94D6169091DA010F
:1015BE0021E0913109F020E031E04091C8015091D5
:1015CE00C901452B09F030E081E04091CA015091EC
:1015DE00CB01452B09F080E08323222371F0882371
:1015EE0061F027E030E0309301012093000121E00B
:1015FE0030E03093C9012093C8012091BC01309195
:10160E00BD0141E0933109F040E081E02230310527
:10161E000CF080E0842379F0F901EE0FFF1FE55FF7
:10162E00FE4F47E050E0518340832F5F3F4F309392
:10163E00BD012093BC0121E0973009F020E091E03C
:10164E004091D8015091D901452B09F090E081E0ED
:10165E004091C2015091C301452B09F080E08923CE
:10166E00222369F0882359F083E18093DA0181E027
:10167E0090E09093C3018093C2010E94B01A209112
:10168E00DA0181E04091BC015091BD01433051051A
:10169E000CF080E091E0243109F090E0982399F06D
:1016AE004091B8015091B901FA01EE0FFF1FE75DAD
:1016BE00FE4F67E070E0718360834F5F5F4F509322
:1016CE00B9014093B80191E0223109F090E08923ED
:1016DE0009F40BC58091BA019091BB01FC01EE0F8C
:1016EE00FF1FEF5DFE4F27E030E031832083019630
:1016FE009093BB018093BA01F8C48036910509F02E
:10170E0023C191E08091DA01883009F090E081E008
:10171E002091D6013091D701243031050CF080E0B4
:10172E008923A9F088E30E94CC1C48E352E060E0D4
:10173E008091D6019091D7010E94591E8091D601B9
:10174E009091D70101969093D7018093D60191E0A5
:10175E008091DA01893009F090E081E02091D60184
:10176E003091D701243031050CF080E08923A9F0A7
:10177E0088E30E94CC1C48E352E060E08091D601E1
:10178E009091D7010E942E1C8091D6019091D70185
:10179E0001969093D7018093D60191E08091DA0162
:1017AE008A3009F090E081E02091D6013091D70186
:1017BE00243031050CF080E08923A9F088E30E94E3
:1017CE00CC1C48E352E060E08091D6019091D701A5
:1017DE000E94591E8091D6019091D7010196909347
:1017EE00D7018093D60191E08091DA018B3009F018
:1017FE0090E081E02091D6013091D701243031055F
:10180E000CF080E08923A9F088E30E94CC1C44E30D
:10181E0052E060E08091D6019091D7010E94591E4E
:10182E008091D6019091D70101969093D701809324
:10183E00D6019091DA012091BC013091BD0141E0B9
:10184E00933109F040E081E0223031050CF080E068
:10185E00842379F0F901EE0FFF1FE55FFE4F48E09C
:10186E0050E0518340832F5F3F4F3093BD01209353
:10187E00BC0121E04091BC015091BD0143305105A6
:10188E000CF020E081E0943109F080E0822399F0A1
:10189E002091B8013091B901F901EE0FFF1FE75DFC
:1018AE00FE4F48E050E0518340832F5F3F4F30930F
:1018BE00B9012093B80121E0973009F020E091E0C2
:1018CE004091D8015091D901452B09F090E081E06B
:1018DE004091C2015091C301452B09F080E089234C
:1018EE00222369F0882359F084E18093DA0181E0A4
:1018FE0090E09093C1018093C0010E94E31A91E0A1
:10190E008091DA01823109F090E081E02091BC01F2
:10191E003091BD01233031050CF080E0892309F4AC
:10192E00E4C38091BA019091BB01FC01EE0FFF1F41
:10193E00EF5DFE4F28E030E03183208301969093D7
:10194E00BB018093BA01D1C38035910509F0F4C073
:10195E0091E08091DA01883009F090E081E02091E9
:10196E00D6013091D701243031050CF080E0892367
:10197E00A9F089E30E94CC1C4AE352E060E080911A
:10198E00D6019091D7010E94591E8091D601909157
:10199E00D70101969093D7018093D60191E0809163
:1019AE00DA01893009F090E081E02091D601309182
:1019BE00D701243031050CF080E08923A9F089E3AA
:1019CE000E94CC1C4AE352E060E08091D6019091D7
:1019DE00D7010E942E1C8091D6019091D7010196BD
:1019EE009093D7018093D60191E08091DA018A30ED
:1019FE0009F090E081E02091D6013091D70124309A
:101A0E0031050CF080E08923A9F089E30E94CC1CFB
:101A1E004AE352E060E08091D6019091D7010E9496
:101A2E00591E8091D6019091D70101969093D701BE
:101A3E008093D60191E08091DA018B3009F090E02D
:101A4E0081E02091D6013091D701243031050CF080
:101A5E0080E08923A9F089E30E94CC1C4AE352E07E
:101A6E0060E08091D6019091D7010E94591E80911D
:101A7E00D6019091D70101969093D7018093D6010C
:101A8E002091DA014091BC015091BD0191E02331CA
:101A9E0009F090E081E0423051050CF080E089239E
:101AAE0079F0FA01EE0FFF1FE55FFE4F89E090E03F
:101ABE00918380834F5F5F4F5093BD014093BC0174
:101ACE0081E04091BC015091BD01433051050CF0B5
:101ADE0080E091E0243109F090E0982399F0409154
:101AEE00B8015091B901FA01EE0FFF1FE75DFE4FED
:101AFE0069E070E0718360834F5F5F4F5093B9016F
:101B0E004093B80191E0223109F090E0892309F465
:101B1E00ECC28091BA019091BB01FC01EE0FFF1F48
:101B2E00EF5DFE4F29E030E03183208301969093E4
:101B3E00BB018093BA01D9C28034910549F58091D9
:101B4E00DA01853029F48BE08093DA010E947E1C45
:101B5E0091E08091DA01883009F090E081E02091E7
:101B6E00D6013091D7012430310509F080E0892368
:101B7E0009F4BBC28CE08093DA0181E090E090938F
:101B8E00CF018093CE011092D7011092D601ADC233
:101B9E008033910511F51092DA010E944F1E0E94BA
:101BAE00821D1092CD011092CC011092D101109293
:101BBE00D0011092CF011092CE011092D901109245
:101BCE00D801109269001DBA62E370E080E090E0E7
:101BDE000E94041C0E947F1E88C28032910509F06B
:101BEE0025C191E08091DA01883009F090E081E022
:101BFE002091D6013091D701243031050CF080E0D0
:101C0E008923A9F080E30E94CC1C4CE352E060E0F3
:101C1E008091D6019091D7010E94591E8091D601D4
:101C2E009091D70101969093D7018093D60191E0C0
:101C3E008091DA01893009F090E081E02091D6019F
:101C4E003091D701243031050CF080E08923A9F0C2
:101C5E0080E30E94CC1C4CE352E060E08091D60100
:101C6E009091D7010E942E1C8091D6019091D701A0
:101C7E0001969093D7018093D60191E08091DA017D
:101C8E008A3009F090E081E02091D6013091D701A1
:101C9E00243031050CF080E08923A9F080E30E9406
:101CAE00CC1C4CE352E060E08091D6019091D701BC
:101CBE000E94591E8091D6019091D7010196909362
:101CCE00D7018093D60191E08091DA018B3009F033
:101CDE0090E081E02091D6013091D701243031057A
:101CEE000CF080E08923A9F080E30E94CC1C4CE329
:101CFE0052E060E08091D6019091D7010E94591E6A
:101D0E008091D6019091D70101969093D70180933F
:101D1E00D60191E08091DA018F3009F090E081E0F8
:101D2E002091D0013091D101232B09F080E089233D
:101D3E0021F080E090E00E94D6162091DA0191E029
:101D4E00213109F090E031E04091C8015091C90174
:101D5E00452B09F030E081E04091CA015091CB0152
:101D6E00452B09F080E08323992361F0882351F0FD
:101D7E00109201011092000181E090E09093C90150
:101D8E008093C8014091BC015091BD0191E0233177
:101D9E0009F090E081E0423051050CF080E089239B
:101DAE0069F0FA01EE0FFF1FE55FFE4F1182108200
:101DBE004F5F5F4F5093BD014093BC0181E0409156
:101DCE00BC015091BD01433051050CF080E091E013
:101DDE00243109F090E0982389F04091B801509198
:101DEE00B901FA01EE0FFF1FE75DFE4F118210825F
:101DFE004F5F5F4F5093B9014093B80191E022318C
:101E0E0009F090E0892309F470C18091BA01909194
:101E1E00BB01FC01EE0FFF1FEF5DFE4F1182108222
:101E2E0001969093BB018093BA015FC180319105F9
:101E3E0039F58091CC019091CD010097B1F480914C
:101E4E00DA01873011F0853021F40E94631E0E9462
:101E5E002F1E0E94911E86E08093DA0181E090E0B1
:101E6E009093CD018093CC0140C1019709F03DC103
:101E7E000E94951E81E08093DA010E947A1B35C183
:101E8E00892B09F032C191E08091DA01883009F096
:101E9E0090E081E02091D6013091D70124303105B8
:101EAE0009F080E0892349F08CE08093DA010E94EA
:101EBE004F1E1092D7011092D60191E08091DA0157
:101ECE00893009F090E081E02091D6013091D70160
:101EDE002430310509F080E0892359F081E08093A8
:101EEE00DA010E944F1E0E947A1B1092D7011092A7
:101EFE00D60191E08091DA018A3009F090E081E01C
:101F0E002091D6013091D7012430310509F080E0BF
:101F1E00892349F08DE08093DA010E944F1E1092C2
:101F2E00D7011092D60191E08091DA018B3009F041
:101F3E0090E081E02091D6013091D7012430310517
:101F4E0009F080E0892349F08EE08093DA010E9447
:101F5E004F1E1092D7011092D60191E08091DA01B6
:101F6E008F3009F090E081E02091D0013091D101C5
:101F7E002130310509F080E0892349F081E080931A
:101F8E00DA010E947A1B1092D1011092D00191E0D9
:101F9E008091DA01803109F090E081E02091D0014A
:101FAE003091D1012130310509F080E0892349F0CB
:101FBE0081E08093DA010E947A1B1092D101109277
:101FCE00D00191E08091DA01813109F090E021E0B9
:101FDE004091C8015091C9014130510509F020E0EE
:101FEE0081E04091CA015091CB014130510509F079
:101FFE0080E082239923C9F08823B9F081E0809391
:10200E00DA016091040170910501809100019091B7
:10201E0001010E9405131092CB011092CA01109279
:10202E00C9011092C8010E947A1B91E08091DA01D9
:10203E00833109F090E021E04091BC015091BD0147
:10204E00423051050CF420E081E04091C2015091E4
:10205E00C3014130510509F080E08223992369F0D4
:10206E00882359F081E08093DA010E94C41D1092FA
:10207E00BD011092BC010E947A1B91E08091DA01A1
:10208E00843109F090E081E02091B8013091B901DE
:10209E00233031050CF480E0892359F081E08093E0
:1020AE00DA010E945E1D1092B9011092B8010E94D1
:1020BE007A1B91E08091DA01823109F090E081E0A3
:1020CE002091BA013091BB01233031050CF480E030
:1020DE00892359F081E08093DA010E943A1D109213
:1020EE00BB011092BA010E947A1BFF91EF91BF9132
:1020FE00AF919F918F917F916F915F914F913F9192
:0C210E002F910F900FBE0F901F9018959E
:10211A0080919C0190919D01019709F03EC0209108
:10212A009E0130919F0140915E0150915F0191E0C3
:10213A002130310509F090E081E04130510509F084
:10214A0080E0892319F00E94911E089540914A0166
:10215A0050914B0191E02230310509F090E081E085
:10216A004130510509F080E0892319F00E94911E3F
:10217A000895409136015091370191E0233031059D
:10218A0009F090E081E04130510509F080E08923AF
:10219A0009F435C20E94911E08954091960150910A
:1021AA0097019091DD01392F331F3327331F21E027
:1021BA004130510509F020E081E0311180E08223AD
:1021CA0009F43EC0209198013091990140915E0135
:1021DA0050915F0191E02130310509F090E081E0F2
:1021EA004130510509F080E0892319F00E94911EBF
:1021FA00089540914A0150914B0191E022303105F6
:10220A0009F090E081E04130510509F080E089232E
:10221A0019F00E94911E089540913601509137019C
:10222A0091E02330310509F090E081E04130510519
:10223A0009F080E0892309F4E2C10E94911E089501
:10224A004091900150919101292F2295269526952A
:10225A00237081E08227817021E04130510509F025
:10226A0020E0822309F43EC020919201309193012B
:10227A0040915E0150915F0191E02130310509F0F2
:10228A0090E081E04130510509F080E0892319F09E
:10229A000E94911E089540914A0150914B0191E08C
:1022AA002230310509F090E081E04130510509F012
:1022BA0080E0892319F00E94911E08954091360109
:1022CA005091370191E02330310509F090E081E027
:1022DA004130510509F080E0892309F490C10E9438
:1022EA00911E089540918A0150918B01292F2295C0
:1022FA002695277081E08227817021E041305105BF
:10230A0009F020E0822309F43EC020918C0130912B
:10231A008D0140915E0150915F0191E021303105BC
:10232A0009F090E081E04130510509F080E089230D
:10233A0019F00E94911E089540914A0150914B0153
:10234A0091E02230310509F090E081E041305105F9
:10235A0009F080E0892319F00E94911E08954091A6
:10236A0036015091370191E02330310509F090E0B0
:10237A0081E04130510509F080E0892309F43FC129
:10238A000E94911E08954091840150918501292F40
:10239A0022952F7081E08227817021E0413051051A
:1023AA0009F020E0822309F43EC020918601309191
:1023BA00870140915E0150915F0191E02130310522
:1023CA0009F090E081E04130510509F080E089236D
:1023DA0019F00E94911E089540914A0150914B01B3
:1023EA0091E02230310509F090E081E04130510559
:1023FA0009F080E0892319F00E94911E0895409106
:10240A0036015091370191E02330310509F090E00F
:10241A0081E04130510509F080E0892309F4EFC0D9
:10242A000E94911E089540917E0150917F01292FAB
:10243A0026952695269581E08227817021E04130F4
:10244A00510509F020E0822309F43EC02091800161
:10245A003091810140915E0150915F0191E02130FC
:10246A00310509F090E081E04130510509F080E042
:10247A00892319F00E94911E089540914A015091B2
:10248A004B0191E02230310509F090E081E04130C2
:10249A00510509F080E0892319F00E94911E0895E0
:1024AA00409136015091370191E02330310509F00E
:1024BA0090E081E04130510509F080E0892309F478
:1024CA009EC00E94911E0895409178015091790111
:1024DA00292F2695269581E08227817021E04130B7
:1024EA00510509F020E0822309F43EC020917A01C7
:1024FA0030917B0140915E0150915F0191E0213062
:10250A00310509F090E081E04130510509F080E0A1
:10251A00892319F00E94911E089540914A01509111
:10252A004B0191E02230310509F090E081E0413021
:10253A00510509F080E0892319F00E94911E08953F
:10254A00409136015091370191E02330310509F06D
:10255A0090E081E04130510509F080E0892309F4D7
:10256A004EC00E94911E089520917201309173010C
:10257A00969581E0982791702130310509F080E025
:10258A00982309F43CC0209174013091750140915F
:10259A005E0150915F0191E02130310509F090E030
:1025AA0081E04130510509F080E0892319F00E9449
:1025BA00911E089540914A0150914B0191E02230B9
:1025CA00310509F090E081E04130510509F080E0E1
:1025DA00892319F00E94911E089540913601509165
:1025EA00370191E02330310509F090E081E0413074
:1025FA00510509F080E0892311F00E94911E089587
:10260A002091CE013091CF012115310509F064C125
:10261A006130710509F068C0009751F421E030E09B
:10262A00309361012093600130939F0120939E01B2
:10263A008130910551F421E030E030936301209319
:10264A00620130939901209398018230910551F4E7
:10265A0021E030E0309365012093640130939301C7
:10266A00209392018330910551F421E030E03093B8
:10267A0067012093660130938D0120938C01843089
:10268A00910551F421E030E030936901209368010B
:10269A0030938701209386018530910551F421E01A
:1026AA0030E030936B0120936A01309381012093CB
:1026BA0080018630910551F421E030E030936D01BC
:1026CA0020936C0130937B0120937A01079709F0DC
:1026DA00B5C181E090E090936F0180936E01909371
:1026EA0075018093740108956230710509F078C00C
:1026FA00009761F421E030E030936101209360019A
:10270A0022E030E030939F0120939E0181309105B1
:10271A0061F421E030E0309363012093620122E00A
:10272A0030E030939901209398018230910561F449
:10273A0021E030E0309365012093640122E030E02B
:10274A0030939301209392018330910561F421E043
:10275A0030E0309367012093660122E030E0309345
:10276A008D0120938C018430910561F421E030E0E1
:10277A00309369012093680122E030E030938701A9
:10278A00209386018530910561F421E030E0309391
:10279A006B0120936A0122E030E03093810120939B
:1027AA0080018630910561F421E030E030936D01BB
:1027BA0020936C0122E030E030937B0120937A0170
:1027CA00079709F03BC181E090E090936F018093F5
:1027DA006E0182E090E090937501809374010895F0
:1027EA006330710509F02AC1009761F421E030E0F5
:1027FA00309361012093600123E030E030939F0120
:10280A0020939E018130910561F421E030E03093FC
:10281A0063012093620123E030E030939901209311
:10282A0098018230910561F421E030E0309365012E
:10283A002093640123E030E03093930120939201C6
:10284A008330910561F421E030E0309367012093F1
:10285A00660123E030E030938D0120938C018430AF
:10286A00910561F421E030E0309369012093680119
:10287A0023E030E03093870120938601853091056B
:10288A0061F421E030E030936B0120936A0123E088
:10289A0030E030938101209380018630910561F404
:1028AA0021E030E030936D0120936C0123E030E0A9
:1028BA0030937B0120937A01079709F0BFC081E02A
:1028CA0090E090936F0180936E0183E090E0909383
:1028DA0075018093740108952130310509F0AEC065
:1028EA0061307105C1F5009721F4109261011092CF
:1028FA0060018130910521F4109263011092620106
:10290A008230910521F4109265011092640183309E
:10291A00910521F4109267011092660184309105A5
:10292A0021F410926901109268018530910521F411
:10293A0010926B0110926A018630910521F410926F
:10294A006D0110926C01079709F078C010926F011F
:10295A0010926E01089562307105B9F5009721F45D
:10296A0010926101109260018130910521F4109258
:10297A006301109262018230910521F4109265017F
:10298A00109264018330910521F41092670110922C
:10299A0066018430910521F4109269011092680150
:1029AA008530910521F410926B0110926A018630EC
:1029BA00910521F410926D0110926C010797F1F5BF
:1029CA0010926F0110926E01089563307105B1F58E
:1029DA00009721F4109261011092600181309105F3
:1029EA0021F410926301109262018230910521F460
:1029FA0010926501109264018330910521F41092BE
:102A0A006701109266018430910521F410926901E0
:102A1A00109268018530910521F410926B01109291
:102A2A006A018630910521F410926D0110926C01B1
:0E2A3A00079721F410926F0110926E0108951B
:102A48001092D5011092D4011092D3011092D201A4
:102A580015C0FC01E15DFE4F308123130AC02091AF
:102A6800D2013091D3012F5F3F4F3093D301209390
:102A7800D20101969093D5018093D4018091D4011D
:102A88009091D501FC01E155FE4F20812111E1CF44
:102A98008091D2019091D301049741F481E0809311
:102AA800DA010E944F1E0E947A1B08951092D501E8
:102AB8001092D4011092D3011092D20115C0FC01DA
:102AC800E15DFE4F308123130AC02091D20130917D
:102AD800D3012F5F3F4F3093D3012093D20101964A
:102AE8009093D5018093D4018091D4019091D50120
:102AF800FC01E655FE4F20812111E1CF8091D201E2
:102B08009091D301049741F481E08093DA010E9407
:102B18004F1E0E947A1B08951092D5011092D4017D
:102B28001092D3011092D20115C0FC01E15DFE4F55
:102B3800308123130AC02091D2013091D3012F5F35
:102B48003F4F3093D3012093D20101969093D50142
:102B58008093D4018091D4019091D501FC01EB556B
:102B6800FE4F20812111E1CF8091D2019091D301B4
:102B7800049741F481E08093DA010E944F1E0E947D
:102B88007A1B08951092D5011092D4011092D301A6
:102B98001092D20115C0FC01E15DFE4F3081231374
:102BA8000AC02091D2013091D3012F5F3F4F30935B
:102BB800D3012093D20101969093D5018093D4013B
:102BC8008091D4019091D501FC01E056FE4F2081FF
:102BD8002111E1CF8091D2019091D301049741F462
:102BE80081E08093DA010E944F1E0E947A1B0895AB
:0C2BF80085E08093DA010E944F1E0895D2
:102C04001092D5011092D4011092D3011092D201E6
:102C140015C0FC01E15DFE4F308123130AC02091F1
:102C2400D2013091D3012F5F3F4F3093D3012093D2
:102C3400D20101969093D5018093D4018091D4015F
:102C44009091D501FC01E155FE4F20812111E1CF86
:102C54008091D2019091D301049729F40E944F1ED0
:102C64000E94851E08951092D5011092D4011092ED
:102C7400D3011092D20115C0FC01E15DFE4F3081F9
:102C840023130AC02091D2013091D3012F5F3F4F0B
:102C94003093D3012093D20101969093D501809370
:102CA400D4018091D4019091D501FC01E655FE4FE9
:102CB40020812111E1CF8091D2019091D301049719
:102CC40029F40E944F1E0E94851E08951092D5017A
:102CD4001092D4011092D3011092D20115C0FC01BC
:102CE400E15DFE4F308123130AC02091D20130915F
:102CF400D3012F5F3F4F3093D3012093D20101962C
:102D04009093D5018093D4018091D4019091D50101
:102D1400FC01EB55FE4F20812111E1CF8091D201BE
:102D24009091D301049729F40E944F1E0E94851E9E
:102D340008951092D5011092D4011092D3011092EB
:102D4400D20115C0FC01E15DFE4F308123130AC09E
:102D54002091D2013091D3012F5F3F4F3093D301A3
:102D64002093D20101969093D5018093D401809150
:102D7400D4019091D501FC01E056FE4F2081211130
:102D8400E1CF8091D2019091D301049729F40E945C
:102D94004F1E0E94851E089581E08093DA010E94EF
:082DA4004F1E0E947A1B0895E6
:102DAC0021E030E03093D1012093D0012091CE016D
:102DBC003091CF012115310509F04FC0009739F43E
:102DCC0081E090E090939D0180939C010895813067
:102DDC00910539F481E090E09093970180939601EE
:102DEC0008958230910539F481E090E0909391013F
:102DFC008093900108958330910539F481E090E03F
:102E0C0090938B0180938A0108958430910539F455
:102E1C0081E090E090938501809384010895853042
:102E2C00910539F481E090E090937F0180937E01CD
:102E3C0008958630910539F481E090E09093790102
:102E4C00809378010895079709F04CC081E090E0D9
:102E5C00909373018093720108952130310509F02C
:102E6C0041C0009729F410929D0110929C0136C02C
:102E7C008130910529F410929701109296012EC081
:102E8C008230910529F4109291011092900126C084
:102E9C008330910529F410928B0110928A011EC087
:102EAC008430910529F4109285011092840116C08A
:102EBC008530910529F410927F0110927E010EC08D
:102ECC008630910529F4109279011092780106C090
:102EDC00079721F410927301109272011092CF0196
:062EEC001092CE010895D2
:102EF2001F920F920FB60F9211242F933F934F936D
:102F02005F936F937F938F939F93AF93BF93EF934F
:102F1200FF938091DA018730C9F48091DB01482F59
:102F220050E020910F01309110014217530751F4E4
:102F320081E08093DA011092DB010E947A1B0E94E9
:102F4200631E46C08F5F8093DB0142C08530D1F49F
:102F52008091C6019091C701209108013091090129
:102F62008217930749F40E94951E1092C70110928E
:102F7200C6010E94631E2CC001969093C7018093E4
:102F8200C60126C08D3021F58091C4019091C50102
:102F9200209102013091030182179307A1F485E089
:102FA2008093DA010E94A81B1092C5011092C401FD
:102FB2008091DC01806890911101892B8093DC0162
:102FC2000E94631E05C001969093C5018093C401BF
:102FD200FF91EF91BF91AF919F918F917F916F91EF
:102FE2005F914F913F912F910F900FBE0F901F90C5
:022FF200189530
:102FF40021E030E03093D1012093D0012091CE0123
:103004003091CF012115310561F58130910561F4CD
:1030140081E090E090935F0180935E0180911101C3
:1030240080628093110108958230910561F481E0FA
:1030340090E090934B0180934A018091110180614B
:103044008093110108950397C1F581E090E0909376
:1030540037018093360180911101886080931101BA
:1030640008952130310549F58130910551F41092CC
:103074005F0110925E01809111018F7D8093110197
:1030840018C08230910551F410924B0110924A01FC
:10309400809111018F7E809311010BC0039749F435
:1030A400109237011092360180911101877F80932D
:0C30B40011011092CF011092CE0108957E
:1030C0006FE070E080E090E00E94041C83E00E94CA
:1030D000031E65E070E080E090E00E94041C83E045
:1030E0000E94031E64E670E080E090E00E94161DDE
:1030F00083E00E94031E68E270E080E090E00E949E
:10310000161D82E00E94031E68E270E080E090E0FD
:103110000E94161D88E20E94A41D68E270E080E013
:1031200090E00E94161D81E00E94A41D62E070E004
:1031300080E090E00E94041C86E00E94A41D68E2EA
:1031400070E080E090E00E94161D8CE00E94A41DBB
:0E31500068E270E080E090E00E94161D089595
:10315E008FE387B98EEF84B987E08AB980EF8BB998
:10316E000E94F21D0E94761E0E947F1E0E94601811
:10317E0078940E94F21CE091DA018E2F90E08F304D
:10318E009105B8F7FC01EC5CFF4F0C948B1E0E946E
:10319E00631E8CE090E09093100180930F0185E008
:1031AE0090E090930901809308019093030180931E
:1031BE00020181E08093DA010E947A1BDACF10922D
:1031CE00DC01D7CF0E94FD180E948D10D2CF0E9435
:1031DE00D61BCFCF0E94491BCCCF0E943F19C9CF1F
:0C31EE000E940216C6CF0E942415C3CF19
:1031FA00CF9385B1806485B985B1826085B985B17F
:10320A008D7F85B985B18F7B85B9C0E02FC0189BAA
:10321A0015C08091DD0121E030E00C2E02C0220FA2
:10322A00331F0A94E2F720953095282B232BB9F007
:10323A006C2F0E946D1E8093DD0111C08091DD010B
:10324A00282F30E00C2E02C0359527950A94E2F714
:10325A0020FF05C06C2F0E94451E8093DD0185B1B9
:10326A00826085B985B18D7F85B9CF5FC83078F224
:04327A00CF91089553
:10327E001092D5011092D4011092D3011092D20166
:10328E0015C0FC01E15DFE4F308123130AC0209171
:10329E00D2013091D3012F5F3F4F3093D301209352
:1032AE00D20101969093D5018093D4018091D401DF
:1032BE009091D501FC01E155FE4F20812111E1CF06
:1032CE008091D2019091D301049749F487E08093C5
:1032DE00DA0180E48093DC010E944F1E089581E0A4
:0E32EE008093DA010E944F1E0E947A1B089501
:1032FC00CF93DF93CDB7DEB76D970FB6F894DEBFE3
:10330C000FBECDBF0E944F1E29E431E040E08FE09C
:10331C00F901DE011196742F0E94221E60E0CE018D
:10332C0001960E94DC1D28E531E040E08EE0F901B9
:10333C00DE015096742F0E94221E60E4CE0140964E
:10334C000E94DC1D6D960FB6F894DEBF0FBECDBF8C
:06335C00DF91CF910895FE
:10336200CF93DF93CDB7DEB76E970FB6F894DEBF7B
:103372000FBECDBF0E944F1E29E431E040E08FE036
:10338200F901DE011196742F0E94221E60E0CE0127
:1033920001960E94DC1D26E631E040E08FE0F90153
:1033A200DE015096742F0E94221E60E4CE014096E8
:1033B2000E94DC1D6E960FB6F894DEBF0FBECDBF25
:0633C200DF91CF91089598
:1033C800CF93DF93CDB7DEB76A970FB6F894DEBF19
:1033D8000FBECDBF0E944F1E20EA31E040E08DE0D5
:1033E800F901DE011196742F0E94221E60E0CE01C1
:1033F80001960E94DC1D2DEA31E040E08DE0F901E4
:10340800DE011E96742F0E94221E60E4CE010E96E5
:103418000E94DC1D6A960FB6F894DEBF0FBECDBFC2
:06342800DF91CF91089531
:10342E00CF93DF93CDB7DEB76B970FB6F894DEBFB1
:10343E000FBECDBF0E944F1E20EA31E040E08DE06E
:10344E00F901DE011196742F0E94221E60E0CE015A
:10345E0001960E94DC1D2AEB31E040E08EE0F9017E
:10346E00DE011E96742F0E94221E60E4CE010E967F
:10347E000E94DC1D6B960FB6F894DEBF0FBECDBF5B
:06348E00DF91CF910895CB
:10349400CF93DF93CDB7DEB76B970FB6F894DEBF4B
:1034A4000FBECDBF0E944F1E28EC31E040E08DE0FE
:1034B400F901DE011196742F0E94221E60E0CE01F4
:1034C40001960E94DC1D25ED31E040E08EE0F9011B
:1034D400DE011E96742F0E94221E60E4CE010E9619
:1034E4000E94DC1D6B960FB6F894DEBF0FBECDBFF5
:0634F400DF91CF91089565
:1034FA00CF93DF93CDB7DEB76C970FB6F894DEBFE4
:10350A000FBECDBF0E944F1E23EE31E040E08EE099
:10351A00F901DE011196742F0E94221E60E0CE018D
:10352A0001960E94DC1D25ED31E040E08EE0F901B4
:10353A00DE011F96742F0E94221E60E4CE010F96B0
:10354A000E94DC1D6C960FB6F894DEBF0FBECDBF8D
:06355A00DF91CF910895FE
:10356000CF93DF93CDB7DEB76B970FB6F894DEBF7E
:103570000FBECDBF0E944F1E21EF31E040E08EE034
:10358000F901DE011196742F0E94221E60E0CE0127
:1035900001960E94DC1D2FEF31E040E08DE0F90143
:1035A000DE011F96742F0E94221E60E4CE010F964A
:1035B0000E94DC1D6B960FB6F894DEBF0FBECDBF28
:0635C000DF91CF91089598
:1035C600CF93DF93CDB7DEB76E970FB6F894DEBF15
:1035D6000FBECDBF0E944F1E21EF31E040E08EE0CE
:1035E600F901DE011196742F0E94221E60E0CE01C1
:1035F60001960E94DC1D2CE032E040E080E1F901FA
:10360600DE011F96742F0E94221E60E4CE010F96E3
:103616000E94DC1D6E960FB6F894DEBF0FBECDBFBE
:06362600DF91CF91089531
:10362C00CF93DF93CDB7DEB76C970FB6F894DEBFB0
:10363C000FBECDBF0E944F1E21EF31E040E08EE067
:10364C00F901DE011196742F0E94221E60E0CE015A
:10365C0001960E94DC1D2CE132E040E08EE0F90185
:10366C00DE011F96742F0E94221E60E4CE010F967D
:10367C000E94DC1D6C960FB6F894DEBF0FBECDBF5A
:06368C00DF91CF910895CB
:10369200CF93DF93CDB7DEB76E970FB6F894DEBF48
:1036A2000FBECDBF25E731E040E08EE0F901DE013B
:1036B2001196742F0E94221E60E0CE0101960E9494
:1036C200DC1D23E831E040E080E1F901DE011F96D4
:1036D200742F0E94221E60E4CE010F960E94DC1D10
:1036E2006E960FB6F894DEBF0FBECDBFDF91CF91BD
:0236F200089539
:1036F400CF93DF93CDB7DEB762970FB6F894DEBFF2
:103704000FBECDBF29E031E040E081E1F901DE01E7
:103714001196742F0E94221E60E0CE0101960E9431
:10372400DC1D1A8A60E4CE0142960E94DC1D63E02F
:1037340070E080E090E00E94041C62960FB6F8945A
:0C374400DEBF0FBECDBFDF91CF91089516
:10375000CF93DF93CDB7DEB72F970FB6F894DEBFC8
:103760000FBECDBF2AE131E040E08EE0F901DE017D
:103770001196742F0E94221E60E0CE0101960E94D5
:10378000DC1D1F8660E4CE010F960E94DC1D63E005
:1037900070E080E090E00E94041C2F960FB6F89431
:0C37A000DEBF0FBECDBFDF91CF910895BA
:1037AC00CF93DF93CDB7DEB762970FB6F894DEBF39
:1037BC000FBECDBF28E231E040E081E1F901DE012E
:1037CC001196742F0E94221E60E0CE0101960E9479
:1037DC00DC1D1A8A60E4CE0142960E94DC1D63E077
:1037EC0070E080E090E00E94041C62960FB6F894A2
:0C37FC00DEBF0FBECDBFDF91CF9108955E
:103808009B01AC011092B4011092B5011092B6015F
:103818001092B701A8EEB3E00E943A1EAB01BC01BA
:103828000BC00196A11DB11D8093B4019093B50101
:10383800A093B601B093B7018091B4019091B501FE
:10384800A091B601B091B701481759076A077B07DD
:0438580044F7089594
:10385C0020912701309128012130310549F4E42FC2
:10386C00F52F749167FD7081FC01E655FE4F708356
:10387C002230310549F4E42FF52F749167FD7081E6
:10388C00FC01EB55FE4F70832330310549F4E42FD6
:10389C00F52F249167FD2081FC01E056FE4F20831B
:0238AC0008957D
:1038AE00806898B1907C98B998B19F7E98B998B17C
:1038BE00906298B998B1282F22952F70922B98B9B3
:1038CE0098B19F7D98B998B1907C98B998B1906253
:1038DE0098B998B18F70892B88B988B18F7D88B9C6
:0E38EE006BE270E080E090E00E94161D0895ED
:1038FC00CF93DF93CDB7DEB761970FB6F894DEBFE9
:10390C000FBECDBF0E944F1E28EF30E040E081E19A
:10391C00F901DE011196742F0E94221E60E0CE0187
:10392C0001960E94DC1D80EC0E94A41D61960FB6CE
:0E393C00F894DEBF0FBECDBFDF91CF9108958E
:10394A00CF93DF93CDB7DEB760970FB6F894DEBF9B
:10395A000FBECDBF0E944F1E29E331E040E080E157
:10396A00F901DE011196742F0E94221E60E0CE0139
:10397A0001960E94DC1D80EC0E94A41D60960FB681
:0E398A00F894DEBF0FBECDBFDF91CF91089540
:1039980098B1907F98B998B1906198B998B19062B0
:1039A80098B998B1282F22952F70922B98B998B171
:1039B8009F7D98B998B1907F98B998B1906298B95D
:1039C80098B18F70892B88B988B18F7D88B96BE2DF
:0C39D80070E080E090E00E94161D089551
:1039E40020E019C08091DC0190E0022E02C0959580
:1039F40087950A94E2F780FF04C08BB184608BB989
:103A040003C08BB18B7F8BB985B1826085B985B1D9
:103A14008D7F85B92F5F283028F383B18F7783B9E1
:083A240083B1806883B90895A5
:103A2C00AB01BC011092B4011092B5011092B60119
:103A3C001092B7010BC00196A11DB11D8093B4016A
:103A4C009093B501A093B601B093B7018091B401E6
:103A5C009091B501A091B601B091B70148175907E3
:083A6C006A077B0744F7089587
:103A7400E1E2F1E08081918124E6289FA001299F61
:103A8400500D112482819381BC01660F771F9C0124
:103A9400220F331F220F331F220F331FCB01820F3C
:103AA400931F840F951F24813581820F931F909358
:083AB400030180930201089553
:103ABC00E9E2F1E08081918124E6289FA001299F11
:103ACC00500D112482819381BC01660F771F9C01DC
:103ADC00220F331F220F331F220F331FCB01820FF4
:103AEC00931F840F951F24813581820F931F909310
:083AFC000901809308010895FF
:103B0400CF93DF93CDB7DEB72D970FB6F894DEBF12
:103B14000FBECDBF23E931E040E08DE0F901DE01C5
:103B24001196742F0E94221E60E0CE0101960E941D
:103B3400DC1D2D960FB6F894DEBF0FBECDBFDF910E
:043B4400CF91089580
:103B480098B1907C98B998B19F7E98B998B19062D5
:103B580098B998B1282F22952F70922B98B998B1BF
:103B68009F7D98B998B1907C98B998B1906298B9AE
:103B780098B18F70892B88B988B18F7D88B90895DD
:103B8800EBE0F1E0808191819C01220F331F880FC7
:103B9800991F880F991F880F991F820F931F2281E1
:103BA8003381820F931F9093100180930F01089522
:103BB8000F931F93CF938C01862F0E94571CC0E050
:103BC80003C00E94CC1CCF5FF801EC0FF11D80816F
:0C3BD8008111F7CFCF911F910F9108953C
:103BE400E1E8F0E0808188608083EFE6F0E08081A6
:103BF4008260808382E19AE79093890080938800B1
:023C0400089521
:103C060098B1907C98B998B19F7E98B998B1906216
:103C160098B998B1892B88B988B18F7D88B90895EC
:103C2600A29FB001B39FC001A39F700D811D1124F7
:0E3C3600911DB29F700D811D1124911D0895E6
:103C4400992777FD05C005900D920197E1F7089536
:0A3C540001900D920197E1F7089529
:103C5E001092DB011092C5011092C4011092C7019F
:063C6E001092C60108954A
:103C74000E94131EA59F900DB49F900DA49F800DCC
:063C8400911D11240895BA
:103C8A0021E030E002C0220F331F6A95E2F7209547
:043C9A0082230895E4
:103C9E0081E00E94A41D6FE070E080E090E00E9441
:043CAE00041C089555
:103CB200E42FF52F249167FD2081815D9E4FFC0149
:043CC20020830895BE
:103CC600E1E8F0E08081887F808310928500109281
:043CD60084000895C9
:103CDA0021E030E002C0220F331F6A95E2F7822BFF
:023CEA0008953B
:103CEC0084B5826084BDEEE6F0E0808182608083E2
:023CFC00089529
:0C3CFE008CE08093690082E08DBB08958B
:0C3D0A00E1E8F0E080818460808308958F
:0C3D1600EE0FFF1F0590F491E02D0994C2
:083D22008BB181608BB908959B
:063D2A008BB11BB80895E7
:043D30000C940000EF
:103D3400030000000000000000000000000000007C
:043D4400000000007B
:103D48000200000000000000000000000000000069
:043D58000000000067
:103D5C000100000000000000000000000000000056
:043D6C000000000053
:063D700007000000000046
:063D760006000000000041
:063D7C000500000000003C
:063D820004000000000037
:063D880003000000000032
:063D8E000200000000002D
:063D940001000000000028
:053D9A0031323334005A
:053D9F00313233340055
:053DA400313233340050
:053DA90031323334004B
:00000001FF
