:100000000C9458000C94731D0C946D010C94731D8A
:100010000C94731D0C94731D0C94731D0C94731D20
:100020000C94731D0C94731D0C94731D0C94FB1491
:100030000C94731D0C94731D0C94731D0C94731D00
:100040000C94731D0C94731D0C94731D0C94731DF0
:100050000C94731D0C94731D0C94731D0C94731DE0
:100060000C94731D0C94731DAC15C215981598153E
:100070009815C515CB15C815981598159815981588
:10008000CE15D115D41501000134800134019A0038
:100090003AEE019A01A08001A001B4003B5401B4E2
:1000A00001DC8001DC01DD0002D901DD01DE800020
:1000B00011241FBECFEFD8E0DEBFCDBFE6E8F0E0F1
:1000C00040E017C0B591A59135912591059107FDA7
:1000D0000CC095918591EF01F92FE82F05900D92B5
:1000E000A217B307D9F7FE0104C01D92A217B307E8
:1000F000E1F7EF3AF40731F70E9470150C94800095
:04010000F894FFCFA1
:10010400496E7369726120612073656E68612E2E79
:10011400002020204465736174697661646F202037
:100124002000202020204174697661646F20200023
:1001340020202050726F6772616D6163616F2020AF
:10014400002053656E686120646573656A6164614B
:1001540000202053656E736F7220612073657200F6
:10016400202020686162696C697461646F002020DA
:100174006465736162696C697461646F0020202036
:100184004D6F64652050616E6963002020506F6C70
:1001940069636520636F6D696E6700457261736999
:1001A4006E672E2E2E2E2E0020205A6F6E61206137
:1001B40020736572002020686162696C69746164EF
:1001C4006100206465736162696C697461646100D3
:1001D400204173736F63696163616F200053656EBF
:1001E400736F722065205A6F6E610044657361738A
:1001F400736F63696163616F002020416A75737472
:100204006520646F20200020202054696D656F757F
:100214007420200054656D706F20646120536972EE
:10022400656E650054656D706F2064652041746966
:100234007600412063656E7472616C20666F69207C
:10024400617469766164612070656C6F2075737583
:100254006172696F202000206E6F20646961202024
:10026400002065206E6120686F72612020000D0AF5
:1002740000412063656E7472616C20666F69207042
:10028400726F6772616D6164612070656C6F207557
:1002940073756172696F202000412063656E74720A
:1002A400616C20666F69206465736174697661644A
:1002B400612070656C6F207573756172696F2020A1
:1002C4000031003200330034003500360037003886
:0502D4000039003000BC
:0102D900FF25
:1002DA001F920F920FB60F9211242F933F934F93B1
:1002EA005F936F937F938F939F93AF93BF93CF93B4
:1002FA00EF93FF9389B1807F90E0909309018093F7
:10030A000801803F910509F06BC191E08091DA0103
:10031A00883009F090E081E02091D6013091D70130
:10032A00243031050CF080E08923A9F081E30E9492
:10033A00381B45EC52E060E08091D6019091D701DC
:10034A000E941B1D8091D6019091D701019690932E
:10035A00D7018093D60191E08091DA01893009F0C2
:10036A0090E081E02091D6013091D7012430310507
:10037A000CF080E08923A9F081E30E94381B45EC48
:10038A0052E060E08091D6019091D7010E94731AE1
:10039A008091D6019091D70101969093D7018093CD
:1003AA00D60191E08091DA018A3009F090E081E08B
:1003BA002091D6013091D701243031050CF080E02C
:1003CA008923A9F081E30E94381B45EC52E060E0E2
:1003DA008091D6019091D7010E941B1D8091D60170
:1003EA009091D70101969093D7018093D60191E01D
:1003FA008091DA018B3009F090E081E02091D601FA
:10040A003091D701243031050CF080E08923A9F01E
:10041A0081E30E94381B45EC52E060E08091D601EE
:10042A009091D7010E941B1D8091D6019091D7010E
:10043A0001969093D7018093D60191E08091DA01D9
:10044A00873009F090E081E02091D8013091D901FC
:10045A002130310509F080E0892379F089E0809321
:10046A00DA010E94EA1A81E090E0909328018093D1
:10047A0027011092D9011092D80191E08091DA01F6
:10048A008F3009F090E081E02091D0013091D101C4
:10049A00232B09F080E0892321F081E090E00E947B
:1004AA00581491E08091DA01803109F090E081E0FE
:1004BA002091D0013091D101232B09F080E08923CA
:1004CA0021F081E090E00E9426169091DA0121E065
:1004DA004091C8015091C901452B09F020E081E003
:1004EA00913109F080E08223F9F02091CA0130911C
:1004FA00CB012115310559F421E030E03093010197
:10050A00209300013093CB012093CA010DC0213002
:10051A00310551F421E030E03093050120930401C4
:10052A003093C9012093C8012091BC013091BD01CB
:10053A0041E0933109F040E081E0223031050CF0CE
:10054A0080E0842379F0F901EE0FFF1FE45FFE4F8C
:10055A0041E050E0518340832F5F3F4F3093BD010C
:10056A002093BC0181E02091BC013091BD01233070
:10057A0031050CF080E021E0943109F020E02823D5
:10058A0099F02091B8013091B901F901EE0FFF1FDE
:10059A00E75DFE4F41E050E0518340832F5F3F4FBC
:1005AA003093B9012093B80121E0923109F020E09B
:1005BA00822311F40C94E9108091BA019091BB0145
:1005CA00FC01EE0FFF1FEF5DFE4F21E030E03183AB
:1005DA00208301969093BB018093BA010C94E91091
:1005EA00803E910509F088C191E08091DA01883056
:1005FA0009F090E081E02091D6013091D7012430B2
:10060A0031050CF080E08923A9F082E30E94381BAF
:10061A0047EC52E060E08091D6019091D7010E94A8
:10062A001B1D8091D6019091D70101969093D70115
:10063A008093D60191E08091DA01893009F090E047
:10064A0081E02091D6013091D701243031050CF098
:10065A0080E08923A9F082E30E94381B47EC52E02C
:10066A0060E08091D6019091D7010E94731A80911F
:10067A00D6019091D70101969093D7018093D60124
:10068A0091E08091DA018A3009F090E081E02091CE
:10069A00D6013091D701243031050CF080E089234E
:1006AA00A9F082E30E94381B47EC52E060E0809197
:1006BA00D6019091D7010E941B1D8091D60190917D
:1006CA00D70101969093D7018093D60191E080914A
:1006DA00DA018B3009F090E081E02091D601309167
:1006EA00D701243031050CF080E08923A9F082E398
:1006FA000E94381B47EC52E060E08091D60190914D
:10070A00D7010E941B1D8091D6019091D7010196B5
:10071A009093D7018093D60191E08091DA018730D6
:10072A0009F090E02091D8013091D90141E060911F
:10073A00C2017091C301672B09F040E081E02115E5
:10074A00310509F080E08423992349F0882339F0A0
:10075A0081E090E09093D9018093D80116C081E09E
:10076A002130310509F080E0982379F089E08093FF
:10077A00DA010E94EA1A82E090E0909328018093BD
:10078A0027011092D9011092D80191E08091DA01E3
:10079A008F3009F090E081E02091D0013091D101B1
:1007AA00232B09F080E0892321F082E090E00E9467
:1007BA00581491E08091DA01803109F090E081E0EB
:1007CA002091D0013091D101232B09F080E08923B7
:1007DA0021F082E090E00E9426169091DA0121E051
:1007EA004091C8015091C901452B09F020E081E0F0
:1007FA00913109F080E0822319F12091CA013091E8
:10080A00CB012115310569F422E030E03093010172
:10081A002093000121E030E03093CB012093CA01FC
:10082A000FC02130310561F422E030E03093050138
:10083A002093040121E030E03093C9012093C801DC
:10084A002091BC013091BD0141E0933109F040E0B3
:10085A0081E0223031050CF080E0842379F0F9013F
:10086A00EE0FFF1FE45FFE4F42E050E051834083EA
:10087A002F5F3F4F3093BD012093BC0181E020914F
:10088A00BC013091BD01233031050CF080E021E03C
:10089A00943109F020E0282399F02091B801309191
:1008AA00B901F901EE0FFF1FE75DFE4F42E050E08C
:1008BA00518340832F5F3F4F3093B9012093B80192
:1008CA0021E0923109F020E0822311F40C94E9101E
:1008DA008091BA019091BB01FC01EE0FFF1FEF5D01
:1008EA00FE4F22E030E03183208301969093BB01D2
:1008FA008093BA010C94E910803D910509F09DC1DD
:10090A0091E08091DA01883009F090E081E020914D
:10091A00D6013091D701243031050CF080E08923CB
:10092A00A9F083E30E94381B49EC52E060E0809111
:10093A00D6019091D7010E941B1D8091D6019091FA
:10094A00D70101969093D7018093D60191E08091C7
:10095A00DA01893009F090E081E02091D6013091E6
:10096A00D701243031050CF080E08923A9F083E314
:10097A000E94381B49EC52E060E08091D6019091C8
:10098A00D7010E94731A8091D6019091D7010196DE
:10099A009093D7018093D60191E08091DA018A3051
:1009AA0009F090E081E02091D6013091D7012430FE
:1009BA0031050CF080E08923A9F083E30E94381BFB
:1009CA0049EC52E060E08091D6019091D7010E94F3
:1009DA001B1D8091D6019091D70101969093D70162
:1009EA008093D60191E08091DA018B3009F090E092
:1009FA0081E02091D6013091D701243031050CF0E5
:100A0A0080E08923A9F083E30E94381B49EC52E075
:100A1A0060E08091D6019091D7010E941B1D8091C0
:100A2A00D6019091D70101969093D7018093D60170
:100A3A0091E08091DA01873009F090E021E040915D
:100A4A00D8015091D901452B09F020E081E040916D
:100A5A00C2015091C301452B09F080E082239923FA
:100A6A00A9F0882399F08FE08093DA018091CE0172
:100A7A009091CF01892B11F40E9430178091CE01F9
:100A8A009091CF01019711F40E94631791E0809130
:100A9A00DA01873009F090E081E02091D8013091A5
:100AAA00D9012130310509F080E0892379F089E004
:100ABA008093DA010E94EA1A83E090E09093280179
:100ACA00809327011092D9011092D80191E0809168
:100ADA00DA018F3009F090E081E02091D001309165
:100AEA00D101232B09F080E0892321F083E090E0F3
:100AFA000E94581491E08091DA01803109F090E067
:100B0A0081E02091D0013091D101232B09F080E0BE
:100B1A00892321F083E090E00E9426169091DA0161
:100B2A0021E04091C8015091C901452B09F020E00C
:100B3A0081E0913109F080E0822319F12091CA0104
:100B4A003091CB012115310569F423E030E030936F
:100B5A0001012093000121E030E03093CB01209382
:100B6A00CA010FC02130310561F423E030E030932F
:100B7A0005012093040121E030E03093C90120935C
:100B8A00C8012091BC013091BD0141E0933109F0C7
:100B9A0040E081E0223031050CF080E0842379F0D6
:100BAA00F901EE0FFF1FE45FFE4F43E050E051836F
:100BBA0040832F5F3F4F3093BD012093BC0181E0FA
:100BCA002091BC013091BD01233031050CF080E049
:100BDA0021E0943109F020E0282399F02091B8010E
:100BEA003091B901F901EE0FFF1FE75DFE4F43E0B7
:100BFA0050E0518340832F5F3F4F3093B9012093D8
:100C0A00B80121E0923109F020E0822311F40C941A
:100C1A00E9108091BA019091BB01FC01EE0FFF1F10
:100C2A00EF5DFE4F23E030E03183208301969093FD
:100C3A00BB018093BA010C94E910803C910579F4C8
:100C4A008091DA01813011F00C94E91088E08093E8
:100C5A00DA010E94C31A0E94511D0C94E910803BCC
:100C6A00910509F05DC191E08091DA01883009F0BF
:100C7A0090E081E02091D6013091D70124303105EE
:100C8A000CF080E08923A9F084E30E94381B4BEC26
:100C9A0052E060E08091D6019091D7010E941B1D1D
:100CAA008091D6019091D70101969093D7018093B4
:100CBA00D60191E08091DA01893009F090E081E073
:100CCA002091D6013091D701243031050CF080E013
:100CDA008923A9F084E30E94381B4BEC52E060E0C0
:100CEA008091D6019091D7010E94731A8091D60102
:100CFA009091D70101969093D7018093D60191E004
:100D0A008091DA018A3009F090E081E02091D601E1
:100D1A003091D701243031050CF080E08923A9F005
:100D2A0084E30E94381B4BEC52E060E08091D601CC
:100D3A009091D7010E941B1D8091D6019091D701F5
:100D4A0001969093D7018093D60191E08091DA01C0
:100D5A008B3009F090E081E02091D6013091D701E3
:100D6A00243031050CF080E08923A9F084E30E9445
:100D7A00381B4BEC52E060E08091D6019091D7018C
:100D8A000E941B1D8091D6019091D70101969093E4
:100D9A00D7018093D60191E08091DA018F3009F072
:100DAA0090E081E02091D0013091D101232B09F00C
:100DBA0080E0892321F084E090E00E94581491E0B9
:100DCA008091DA01873009F090E021E04091D80162
:100DDA005091D901452B09F020E081E04091C201F0
:100DEA005091C301452B09F080E082239923A9F091
:100DFA00882399F081E18093DA018091CE01909164
:100E0A00CF01892B11F40E94FC178091CE01909199
:100E1A00CF01019711F40E942F189091DA0121E075
:100E2A00913109F020E031E04091C8015091C901A7
:100E3A00452B09F030E081E04091CA015091CB0185
:100E4A00452B09F080E08323222371F0882361F087
:100E5A0024E030E0309301012093000121E030E0EA
:100E6A003093C9012093C8012091BC013091BD0182
:100E7A0041E0933109F040E081E0223031050CF085
:100E8A0080E0842379F0F901EE0FFF1FE45FFE4F43
:100E9A0044E050E0518340832F5F3F4F3093BD01C0
:100EAA002093BC0181E02091BC013091BD01233027
:100EBA0031050CF080E021E0943109F020E028238C
:100ECA0099F02091B8013091B901F901EE0FFF1F95
:100EDA00E75DFE4F44E050E0518340832F5F3F4F70
:100EEA003093B9012093B80121E0923109F020E052
:100EFA00822311F40C94E9108091BA019091BB01FC
:100F0A00FC01EE0FFF1FEF5DFE4F24E030E031835E
:100F1A00208301969093BB018093BA010C94E91047
:100F2A00803A910509F05DC191E08091DA0188303B
:100F3A0009F090E081E02091D6013091D701243068
:100F4A0031050CF080E08923A9F085E30E94381B63
:100F5A004DEC52E060E08091D6019091D7010E9459
:100F6A001B1D8091D6019091D70101969093D701CC
:100F7A008093D60191E08091DA01893009F090E0FE
:100F8A0081E02091D6013091D701243031050CF04F
:100F9A0080E08923A9F085E30E94381B4DEC52E0DA
:100FAA0060E08091D6019091D7010E94731A8091D6
:100FBA00D6019091D70101969093D7018093D601DB
:100FCA0091E08091DA018A3009F090E081E0209185
:100FDA00D6013091D701243031050CF080E0892305
:100FEA00A9F085E30E94381B4DEC52E060E0809145
:100FFA00D6019091D7010E941B1D8091D601909134
:10100A00D70101969093D7018093D60191E0809100
:10101A00DA018B3009F090E081E02091D60130911D
:10102A00D701243031050CF080E08923A9F085E34B
:10103A000E94381B4DEC52E060E08091D6019091FD
:10104A00D7010E941B1D8091D6019091D70101966C
:10105A009093D7018093D60191E08091DA018F3085
:10106A0009F090E081E02091D0013091D101232B49
:10107A0009F080E0892321F085E090E00E9458146D
:10108A0091E08091DA01873009F090E021E0409107
:10109A00D8015091D901452B09F020E081E0409117
:1010AA00C2015091C301452B09F080E082239923A4
:1010BA00A9F0882399F080E18093DA018091CE012A
:1010CA009091CF01892B11F40E9496178091CE013D
:1010DA009091CF01019711F40E94C9179091DA01FA
:1010EA0021E0913109F020E031E04091C8015091AE
:1010FA00C901452B09F030E081E04091CA015091C5
:10110A00CB01452B09F080E08323222371F0882349
:10111A0061F025E030E0309301012093000121E0E5
:10112A0030E03093C9012093C8012091BC0130916D
:10113A00BD0141E0933109F040E081E02230310500
:10114A000CF080E0842379F0F901EE0FFF1FE45FD1
:10115A00FE4F45E050E0518340832F5F3F4F30936D
:10116A00BD012093BC0181E02091BC013091BD01F9
:10117A00233031050CF080E021E0943109F020E0C1
:10118A00282399F02091B8013091B901F901EE0FA5
:10119A00FF1FE75DFE4F45E050E0518340832F5F1C
:1011AA003F4F3093B9012093B80121E0923109F001
:1011BA0020E0822311F40C94E9108091BA019091F5
:1011CA00BB01FC01EE0FFF1FEF5DFE4F25E030E093
:1011DA003183208301969093BB018093BA010C94CA
:1011EA00E9108039910509F05CC191E08091DA013A
:1011FA00883009F090E081E02091D6013091D70142
:10120A00243031050CF080E08923A9F086E30E949E
:10121A00381B4FEC52E060E08091D6019091D701E3
:10122A000E941B1D8091D6019091D701019690933F
:10123A00D7018093D60191E08091DA01893009F0D3
:10124A0090E081E02091D6013091D7012430310518
:10125A000CF080E08923A9F086E30E94381B4FEC4A
:10126A0052E060E08091D6019091D7010E94731AF2
:10127A008091D6019091D70101969093D7018093DE
:10128A00D60191E08091DA018A3009F090E081E09C
:10129A002091D6013091D701243031050CF080E03D
:1012AA008923A9F086E30E94381B4FEC52E060E0E4
:1012BA008091D6019091D7010E941B1D8091D60181
:1012CA009091D70101969093D7018093D60191E02E
:1012DA008091DA018B3009F090E081E02091D6010B
:1012EA003091D701243031050CF080E08923A9F030
:1012FA0086E30E94381B4FEC52E060E08091D601F1
:10130A009091D7010E941B1D8091D6019091D7011F
:10131A0001969093D7018093D60191E08091DA01EA
:10132A008F3009F090E081E02091D0013091D10115
:10133A00232B09F080E0892321F086E090E00E94C7
:10134A0058148091DA0121E0813109F020E031E07E
:10135A004091C8015091C901452B09F030E091E054
:10136A004091CA015091CB01452B09F090E093239B
:10137A00222371F0992361F026E030E030930101D5
:10138A002093000121E030E03093C9012093C80185
:10139A002091BC013091BD0141E0833109F040E068
:1013AA0091E0223031050CF090E0942379F0F901B4
:1013BA00EE0FFF1FE45FFE4F46E050E0518340838B
:1013CA002F5F3F4F3093BD012093BC0121E0409134
:1013DA00BC015091BD01433051050CF020E091E071
:1013EA00843109F090E0922399F02091B80130916C
:1013FA00B901F901EE0FFF1FE75DFE4F46E050E02D
:10140A00518340832F5F3F4F3093B9012093B80136
:10141A0091E0873009F090E021E04091D8015091A5
:10142A00D901452B09F020E081E04091C201509199
:10143A00C301452B09F080E08223992369F08823B0
:10144A0059F082E18093DA0181E090E09093BF0144
:10145A008093BE010E94C81891E08091DA0182311E
:10146A0009F090E081E02091BC013091BD01233068
:10147A0031050CF080E0892309F4A6C68091BA01EF
:10148A009091BB01FC01EE0FFF1FEF5DFE4F26E0BE
:10149A0030E03183208301969093BB018093BA0197
:1014AA0093C68038910519F591E08091DA01883068
:1014BA0009F090E081E02091D6013091D7012430E3
:1014CA00310509F080E0892339F08CE08093DA0154
:1014DA001092D7011092D6018091DA01813009F079
:1014EA0073C68AE08093DA010E94C31A6DC68037F8
:1014FA00910509F053C191E08091DA01883009F031
:10150A0090E081E02091D6013091D7012430310555
:10151A000CF080E08923A9F087E30E94381B41ED93
:10152A0052E060E08091D6019091D7010E941B1D84
:10153A008091D6019091D70101969093D70180931B
:10154A00D60191E08091DA01893009F090E081E0DA
:10155A002091D6013091D701243031050CF080E07A
:10156A008923A9F087E30E94381B41ED52E060E02D
:10157A008091D6019091D7010E94731A8091D60169
:10158A009091D70101969093D7018093D60191E06B
:10159A008091DA018A3009F090E081E02091D60149
:1015AA003091D701243031050CF080E08923A9F06D
:1015BA0087E30E94381B41ED52E060E08091D6013A
:1015CA009091D7010E941B1D8091D6019091D7015D
:1015DA0001969093D7018093D60191E08091DA0128
:1015EA008B3009F090E081E02091D6013091D7014B
:1015FA00243031050CF080E08923A9F087E30E94AA
:10160A00381B4FEC52E060E08091D6019091D701EF
:10161A000E941B1D8091D6019091D701019690934B
:10162A00D7018093D60191E08091DA018F3009F0D9
:10163A0090E081E02091D0013091D101232B09F073
:10164A0080E0892321F087E090E00E94581490916D
:10165A00DA0121E0913109F020E031E04091C8013E
:10166A005091C901452B09F030E081E04091CA014F
:10167A005091CB01452B09F080E08323222371F09E
:10168A00882361F027E030E03093010120930001C4
:10169A0021E030E03093C9012093C8012091BC01B8
:1016AA003091BD0141E0933109F040E081E0223000
:1016BA0031050CF080E0842379F0F901EE0FFF1F69
:1016CA00E45FFE4F47E050E0518340832F5F3F4F76
:1016DA003093BD012093BC0121E0973009F020E04E
:1016EA0091E04091D8015091D901452B09F090E041
:1016FA0081E04091C2015091C301452B09F080E07D
:10170A008923222369F0882359F083E18093DA013F
:10171A0081E090E09093C3018093C2010E94621815
:10172A002091DA0181E04091BC015091BD01433022
:10173A0051050CF080E091E0243109F090E0982303
:10174A0099F04091B8015091B901FA01EE0FFF1FCB
:10175A00E75DFE4F67E070E0718360834F5F5F4F24
:10176A005093B9014093B80191E0223109F090E019
:10177A00892309F429C58091BA019091BB01FC0122
:10178A00EE0FFF1FEF5DFE4F27E030E0318320832D
:10179A0001969093BB018093BA0116C580369105D4
:1017AA0009F023C191E08091DA01883009F090E0D4
:1017BA0081E02091D6013091D701243031050CF017
:1017CA0080E08923A9F088E30E94381B43ED52E0A8
:1017DA0060E08091D6019091D7010E941B1D8091F3
:1017EA00D6019091D70101969093D7018093D601A3
:1017FA0091E08091DA01893009F090E081E020914E
:10180A00D6013091D701243031050CF080E08923CC
:10181A00A9F088E30E94381B43ED52E060E0809112
:10182A00D6019091D7010E94731A8091D6019091A6
:10183A00D70101969093D7018093D60191E08091C8
:10184A00DA018A3009F090E081E02091D6013091E6
:10185A00D701243031050CF080E08923A9F088E310
:10186A000E94381B43ED52E060E08091D6019091CE
:10187A00D7010E941B1D8091D6019091D701019634
:10188A009093D7018093D60191E08091DA018B3051
:10189A0009F090E081E02091D6013091D7012430FF
:1018AA0031050CF080E08923A9F088E30E94381BF7
:1018BA004FEC52E060E08091D6019091D7010E94EE
:1018CA001B1D8091D6019091D70101969093D70163
:1018DA008093D6019091DA012091BC013091BD012B
:1018EA0041E0933109F040E081E0223031050CF00B
:1018FA0080E0842379F0F901EE0FFF1FE45FFE4FC9
:10190A0048E050E0518340832F5F3F4F3093BD0141
:10191A002093BC0121E04091BC015091BD014330AC
:10192A0051050CF020E081E0943109F080E0822337
:10193A0099F02091B8013091B901F901EE0FFF1F1A
:10194A00E75DFE4F48E050E0518340832F5F3F4FF1
:10195A003093B9012093B80121E0973009F020E0D3
:10196A0091E04091D8015091D901452B09F090E0BE
:10197A0081E04091C2015091C301452B09F080E0FA
:10198A008923222369F0882359F084E18093DA01BC
:10199A0081E090E09093C1018093C0010E94951864
:1019AA0091E08091DA01823109F090E081E02091A2
:1019BA00BC013091BD01233031050CF080E0892350
:1019CA0009F402C48091BA019091BB01FC01EE0FA7
:1019DA00FF1FEF5DFE4F28E030E031832083019640
:1019EA009093BB018093BA01EFC38035910509F04A
:1019FA00F4C091E08091DA01883009F090E081E04A
:101A0A002091D6013091D701243031050CF080E0C5
:101A1A008923A9F089E30E94381B45ED52E060E072
:101A2A008091D6019091D7010E941B1D8091D60109
:101A3A009091D70101969093D7018093D60191E0B6
:101A4A008091DA01893009F090E081E02091D60195
:101A5A003091D701243031050CF080E08923A9F0B8
:101A6A0089E30E94381B45ED52E060E08091D6017F
:101A7A009091D7010E94731A8091D6019091D70153
:101A8A0001969093D7018093D60191E08091DA0173
:101A9A008A3009F090E081E02091D6013091D70197
:101AAA00243031050CF080E08923A9F089E30E94F3
:101ABA00381B45ED52E060E08091D6019091D70144
:101ACA000E941B1D8091D6019091D7010196909397
:101ADA00D7018093D60191E08091DA018B3009F029
:101AEA0090E081E02091D6013091D7012430310570
:101AFA000CF080E08923A9F089E30E94381B45EDA8
:101B0A0052E060E08091D6019091D7010E941B1D9E
:101B1A008091D6019091D70101969093D701809335
:101B2A00D6012091DA014091BC015091BD0191E0AA
:101B3A00233109F090E081E0423051050CF080E059
:101B4A00892379F0FA01EE0FFF1FE45FFE4F89E067
:101B5A0090E0918380834F5F5F4F5093BD01409324
:101B6A00BC0181E04091BC015091BD014330510557
:101B7A000CF080E091E0243109F090E0982399F08C
:101B8A004091B8015091B901FA01EE0FFF1FE75DCC
:101B9A00FE4F69E070E0718360834F5F5F4F50933F
:101BAA00B9014093B80191E0223109F090E089230C
:101BBA0009F40AC38091BA019091BB01FC01EE0FAE
:101BCA00FF1FEF5DFE4F29E030E03183208301964D
:101BDA009093BB018093BA01F7C28034910549F50D
:101BEA008091DA01853029F48BE08093DA010E9432
:101BFA00C31A91E08091DA01883009F090E081E01F
:101C0A002091D6013091D7012430310509F080E0C6
:101C1A00892309F4D9C28CE08093DA0181E090E04B
:101C2A009093CF018093CE011092D7011092D601E2
:101C3A00CBC28033910511F51092DA010E94111D71
:101C4A000E94EE1B1092CD011092CC011092D1018C
:101C5A001092D0011092CF011092CE011092D901A8
:101C6A001092D801109269001DBA62E370E080E018
:101C7A0090E00E94491A0E944B1DA6C2803291052B
:101C8A0009F025C191E08091DA01883009F090E0ED
:101C9A0081E02091D6013091D701243031050CF032
:101CAA0080E08923A9F080E30E94381B47ED52E0C7
:101CBA0060E08091D6019091D7010E941B1D80910E
:101CCA00D6019091D70101969093D7018093D601BE
:101CDA0091E08091DA01893009F090E081E0209169
:101CEA00D6013091D701243031050CF080E08923E8
:101CFA00A9F080E30E94381B47ED52E060E0809132
:101D0A00D6019091D7010E94731A8091D6019091C1
:101D1A00D70101969093D7018093D60191E08091E3
:101D2A00DA018A3009F090E081E02091D601309101
:101D3A00D701243031050CF080E08923A9F080E333
:101D4A000E94381B47ED52E060E08091D6019091E5
:101D5A00D7010E941B1D8091D6019091D70101964F
:101D6A009093D7018093D60191E08091DA018B306C
:101D7A0009F090E081E02091D6013091D70124301A
:101D8A0031050CF080E08923A9F080E30E94381B1A
:101D9A0047ED52E060E08091D6019091D7010E9410
:101DAA001B1D8091D6019091D70101969093D7017E
:101DBA008093D60191E08091DA018F3009F090E0AA
:101DCA0081E02091D0013091D101232B09F080E0EC
:101DDA00892321F080E090E00E9458142091DA01D2
:101DEA0091E0213109F090E031E04091C801509131
:101DFA00C901452B09F030E081E04091CA015091B8
:101E0A00CB01452B09F080E08323992361F08823D5
:101E1A0051F0109201011092000181E090E090933C
:101E2A00C9018093C8014091BC015091BD0191E064
:101E3A00233109F090E081E0423051050CF080E056
:101E4A00892369F0FA01EE0FFF1FE45FFE4F11824A
:101E5A0010824F5F5F4F5093BD014093BC0181E0F8
:101E6A004091BC015091BD01433051050CF080E016
:101E7A0091E0243109F090E0982389F04091B8016B
:101E8A005091B901FA01EE0FFF1FE75DFE4F118273
:101E9A0010824F5F5F4F5093B9014093B80191E0B0
:101EAA00223109F090E0892309F48EC18091BA01A8
:101EBA009091BB01FC01EE0FFF1FEF5DFE4F1182F7
:101ECA00108201969093BB018093BA017DC1803143
:101EDA00910529F58091CC019091CD010097B1F43B
:101EEA008091DA01873011F0853021F40E94251D96
:101EFA000E94F11C0E945D1D86E08093DA0181E058
:101F0A0090E09093CD018093CC015EC1019709F0D6
:101F1A005BC10E946D1D81E08093DA0155C1892B56
:101F2A0009F052C191E08091DA01893009F090E01C
:101F3A0081E02091D6013091D7012430310509F092
:101F4A0080E0892389F081E08093DA010E94111DE3
:101F5A001092D7011092D6010E94611DC82F0E94CB
:101F6A00651D6C2F0E945D1991E08091DA018A301B
:101F7A0009F090E081E02091D6013091D701243018
:101F8A00310509F080E0892389F08DE08093DA0138
:101F9A000E94111D1092D7011092D6010E94611D54
:101FAA00C82F0E94651D6C2F0E942C1991E0809108
:101FBA00DA018B3009F090E081E02091D60130916E
:101FCA00D7012430310509F080E0892389F08EE0B9
:101FDA008093DA010E94111D1092D7011092D60146
:101FEA000E94611DC82F0E94651D6C2F0E948E19C8
:101FFA0091E08091DA018F3009F090E081E0209140
:10200A00D0013091D1012130310509F080E08923D6
:10201A0079F081E08093DA011092D1011092D00117
:10202A000E94611DC82F0E94651D6C2F0E945D19B8
:10203A0091E08091DA01803109F090E081E020910D
:10204A00D0013091D1012130310509F080E0892396
:10205A0079F081E08093DA011092D1011092D001D7
:10206A000E94611DC82F0E94651D6C2F0E945D1978
:10207A0091E08091DA01813109F090E021E040910C
:10208A00C8015091C9014130510509F020E081E0B1
:10209A004091CA015091CB014130510509F080E0CD
:1020AA0082239923F9F08823E9F081E08093DA0109
:1020BA0060910401709105018091000190910101E4
:1020CA000E94FB101092CB011092CA011092C90112
:1020DA001092C8010E94611DC82F0E94651D6C2FB5
:1020EA000E945D1991E08091DA01833109F090E054
:1020FA0021E04091BC015091BD01423051050CF4E0
:10210A0020E081E04091C2015091C3014130510564
:10211A0009F080E08223992399F0882389F081E0ED
:10212A008093DA010E94701C1092BD011092BC01CA
:10213A000E94611DC82F0E94651D6C2F0E945D19A7
:10214A0091E08091DA01843109F090E081E02091F8
:10215A00B8013091B901233031050CF480E08923AC
:10216A0089F081E08093DA010E94CA1B1092B901BA
:10217A001092B8010E94611DC82F0E94651D6C2F24
:10218A000E945D1991E08091DA01823109F090E0B4
:10219A0081E02091BA013091BB01233031050CF462
:1021AA0080E0892389F081E08093DA010E94A61BEE
:1021BA001092BB011092BA010E94611DC82F0E94A1
:1021CA00651D6C2F0E945D19FF91EF91CF91BF9110
:1021DA00AF919F918F917F916F915F914F913F91B5
:0C21EA002F910F900FBE0F901F901895C2
:1021F6002091CE013091CF012115310509F0E4C0BF
:102206006130710509F048C0009731F421E030E0F3
:1022160030936101209360018130910531F421E012
:1022260030E030936301209362018230910531F4EE
:1022360021E030E0309365012093640183309105FD
:1022460031F421E030E03093670120936601843059
:10225600910531F421E030E0309369012093680163
:102266008530910531F421E030E030936B01209305
:102276006A018630910531F421E030E030936D013A
:1022860020936C01079709F051C181E090E090938B
:102296006F0180936E0108956230710509F048C0A0
:1022A600009731F421E030E0309361012093600122
:1022B6008130910531F421E030E0309363012093C1
:1022C60062018230910531F421E030E030936501FE
:1022D600209364018330910531F421E030E030939E
:1022E6006701209366018430910531F421E030E0E6
:1022F60030936901209368018530910531F421E01E
:1023060030E030936B0120936A018630910531F4F9
:1023160021E030E030936D0120936C01079709F0BE
:1023260005C181E090E090936F0180936E0108955E
:102336006330710509F0FAC0009731F421E030E00E
:1023460030936101209360018130910531F421E0E1
:1023560030E030936301209362018230910531F4BD
:1023660021E030E0309365012093640183309105CC
:1023760031F421E030E03093670120936601843028
:10238600910531F421E030E0309369012093680132
:102396008530910531F421E030E030936B012093D4
:1023A6006A018630910531F421E030E030936D0109
:1023B60020936C01079709F0B9C081E090E09093F3
:1023C6006F0180936E0108952130310509F0AEC08A
:1023D60061307105C1F5009721F4109261011092E8
:1023E60060018130910521F410926301109262011F
:1023F6008230910521F410926501109264018330B8
:10240600910521F4109267011092660184309105BE
:1024160021F410926901109268018530910521F42A
:1024260010926B0110926A018630910521F4109288
:102436006D0110926C01079709F078C010926F0138
:1024460010926E01089562307105B9F5009721F476
:1024560010926101109260018130910521F4109271
:102466006301109262018230910521F41092650198
:10247600109264018330910521F410926701109245
:1024860066018430910521F4109269011092680169
:102496008530910521F410926B0110926A01863005
:1024A600910521F410926D0110926C010797F1F5D8
:1024B60010926F0110926E01089563307105B1F5A7
:1024C600009721F41092610110926001813091050C
:1024D60021F410926301109262018230910521F479
:1024E60010926501109264018330910521F41092D7
:1024F6006701109266018430910521F410926901FA
:10250600109268018530910521F410926B011092AA
:102516006A018630910521F410926D0110926C01CA
:0E252600079721F410926F0110926E01089534
:102534001092D5011092D4011092D3011092D201BD
:1025440015C0FC01E15DFE4F308123130AC02091C8
:10255400D2013091D3012F5F3F4F3093D3012093A9
:10256400D20101969093D5018093D4018091D40136
:102574009091D501FC01E155FE4F20812111E1CF5D
:102584008091D2019091D301049749F410920701EC
:10259400109206010E94111D0E94511D089510926F
:1025A400D5011092D4011092D3011092D20115C01A
:1025B400FC01E15DFE4F308123130AC02091D2015A
:1025C4003091D3012F5F3F4F3093D3012093D20139
:1025D40001969093D5018093D4018091D401909178
:1025E400D501FC01E655FE4F20812111E1CF8091F8
:1025F400D2019091D301049759F481E090E0909333
:102604000701809306010E94111D0E94511D089527
:102614001092D5011092D4011092D3011092D201DC
:1026240015C0FC01E15DFE4F308123130AC02091E7
:10263400D2013091D3012F5F3F4F3093D3012093C8
:10264400D20101969093D5018093D4018091D40155
:102654009091D501FC01EB55FE4F20812111E1CF72
:102664008091D2019091D301049759F482E090E0D3
:1026740090930701809306010E94111D0E94511D31
:1026840008951092D5011092D4011092D3011092A2
:10269400D20115C0FC01E15DFE4F308123130AC055
:1026A4002091D2013091D3012F5F3F4F3093D3015A
:1026B4002093D20101969093D5018093D401809107
:1026C400D4019091D501FC01E056FE4F20812111E7
:1026D400E1CF8091D2019091D301049759F483E022
:1026E40090E090930701809306010E94111D0E94BF
:1026F400511D089581E08093DA010E94111D08950F
:102704001092D5011092D4011092D3011092D201EB
:1027140015C0FC01E15DFE4F308123130AC02091F6
:10272400D2013091D3012F5F3F4F3093D3012093D7
:10273400D20101969093D5018093D4018091D40164
:102744009091D501FC01E155FE4F20812111E1CF8B
:102754008091D2019091D301049731F481E0809368
:10276400DA010E94111D08951092D5011092D4012E
:102774001092D3011092D20115C0FC01E15DFE4F0D
:10278400308123130AC02091D2013091D3012F5FED
:102794003F4F3093D3012093D20101969093D501FA
:1027A4008093D4018091D4019091D501FC01E65528
:1027B400FE4F20812111E1CF8091D2019091D3016C
:1027C400049731F481E08093DA010E94111D089589
:1027D4001092D5011092D4011092D3011092D2011B
:1027E40015C0FC01E15DFE4F308123130AC0209126
:1027F400D2013091D3012F5F3F4F3093D301209307
:10280400D20101969093D5018093D4018091D40193
:102814009091D501FC01EB55FE4F20812111E1CFB0
:102824008091D2019091D301049731F481E0809397
:10283400DA010E94111D08951092D5011092D4015D
:102844001092D3011092D20115C0FC01E15DFE4F3C
:10285400308123130AC02091D2013091D3012F5F1C
:102864003F4F3093D3012093D20101969093D50129
:102874008093D4018091D4019091D501FC01E0565C
:10288400FE4F20812111E1CF8091D2019091D3019B
:10289400049731F481E08093DA010E94111D0895B8
:0C28A40085E08093DA010E94111D089568
:1028B00021E030E03093D1012093D0012091CE016E
:1028C0003091CF012115310509F04FC0009739F43F
:1028D00081E090E090939D0180939C010895813068
:1028E000910539F481E090E09093970180939601EF
:1028F00008958230910539F481E090E09093910140
:102900008093900108958330910539F481E090E03F
:1029100090938B0180938A0108958430910539F456
:1029200081E090E090938501809384010895853043
:10293000910539F481E090E090937F0180937E01CE
:1029400008958630910539F481E090E09093790103
:10295000809378010895079709F04CC081E090E0DA
:10296000909373018093720108952130310509F02D
:1029700041C0009729F410929D0110929C0136C02D
:102980008130910529F410929701109296012EC082
:102990008230910529F4109291011092900126C085
:1029A0008330910529F410928B0110928A011EC088
:1029B0008430910529F4109285011092840116C08B
:1029C0008530910529F410927F0110927E010EC08E
:1029D0008630910529F4109279011092780106C091
:1029E000079721F410927301109272011092CF0197
:0629F0001092CE010895D3
:1029F6001F920F920FB60F9211242F933F934F936E
:102A06005F936F937F938F939F93AF93BF93EF9350
:102A1600FF938091DA018730B9F48091DB01482F6A
:102A260050E020911001309111014217530741F4F3
:102A360081E08093DA011092DB010E94251D3CC0E3
:102A46008F5F8093DB0138C08530D1F48091C60159
:102A56009091C70120910A0130910B0182179307CB
:102A660049F40E946D1D1092C7011092C6010E9482
:102A7600251D22C001969093C7018093C6011CC0F4
:102A86008D30D1F48091C4019091C501209102014D
:102A9600309103018217930751F485E08093DA01A0
:102AA6001092C5011092C4010E94251D05C0019611
:102AB6009093C5018093C401FF91EF91BF91AF91AF
:102AC6009F918F917F916F915F914F913F912F9140
:0A2AD6000F900FBE0F901F9018958F
:102AE00084B18E7F84B984B18E6884B98FEF8AB93E
:102AF00087B1816087B98EE787B98FE184B987E0B4
:102B00008AB980EF8BB90E94B41C0E94421D0E94BA
:102B10004B1D0E94D7150E942F1D20E032E14AE78D
:102B200050E060E875E280E090E00E94111B78942C
:102B30000E946E168091DD018093DC010E945E1B75
:102B4000E091DA018E2F90E08F30910588F7FC013B
:102B5000EC5CFF4F0C94571D0E94251D8CE090E00B
:102B6000909311018093100185E090E090930B0108
:102B700080930A01909303018093020181E0809386
:102B8000DA01D6CF0E94BF19D3CF0E94ED19D0CF62
:102B90000E941B1ACDCF0E94FB18CACF0E94F216CA
:0E2BA000C7CF0E949A12C4CF0E948213C1CFE9
:102BAE006FE070E080E090E00E94491A83E00E949E
:102BBE00C51C65E070E080E090E00E94491A83E059
:102BCE000E94C51C64E670E080E090E00E94821BCB
:102BDE0083E00E94C51C68E270E080E090E00E94F5
:102BEE00821B82E00E94C51C68E270E080E090E0EB
:102BFE000E94821B88E20E94321C68E270E080E034
:102C0E0090E00E94821B81E00E94321C62E070E024
:102C1E0080E090E00E94491A86E00E94321C68E231
:102C2E0070E080E090E00E94821B8CE00E94321CDB
:0E2C3E0068E270E080E090E00E94821B089542
:102C4C0021E030E03093D1012093D0012091CE01CE
:102C5C003091CF0121153105E9F48130910539F41A
:102C6C0081E090E090935F0180935E010895823043
:102C7C00910539F481E090E090934B0180934A01E7
:102C8C000895039721F581E090E0909337018093AC
:102C9C003601089521303105D1F48130910529F4A4
:102CAC0010925F0110925E010EC08230910529F4E2
:102CBC0010924B0110924A0106C0039721F4109216
:102CCC003701109236011092CF011092CE01089567
:102CDC00CF9385B1826085B985B1846085B985B1A2
:102CEC008B7F85B985B18D7F85B9C0E02FC0189BCE
:102CFC0015C08091DD0121E030E00C2E02C0220FC6
:102D0C00331F0A94E2F720953095282B232BB9F02A
:102D1C006C2F0E94391D8093DD0111C08091DD0163
:102D2C00282F30E00C2E02C0359527950A94E2F737
:102D3C0020FF05C06C2F0E94071D8093DD0185B11B
:102D4C00846085B985B18B7F85B9CF5FC83078F247
:042D5C00CF91089576
:102D60001F93CF93DF9300D01F92CDB7DEB710E053
:102D700001C0192F9DEC899F912D11249695969550
:102D80009695392F330F232F220F220F230F821BEB
:102D900020E3280F892FE1E0F0E0EC0FFD1FE10FA9
:102DA000F11D17FDFA95208391E0910F8111E1CF7C
:102DB00010C00E94691D8823E1F3E1E0F0E0EC0F10
:102DC000FD1FE10FF11D17FDFA9580810E94701D16
:102DD0001150112374F70F900F900F90DF91CF9146
:042DE0001F910895A2
:102DE4001092D5011092D4011092D3011092D20105
:102DF40015C0FC01E15DFE4F308123130AC0209110
:102E0400D2013091D3012F5F3F4F3093D3012093F0
:102E1400D20101969093D5018093D4018091D4017D
:102E24009091D501FC01E155FE4F20812111E1CFA4
:102E34008091D2019091D301049751F487E080935B
:102E4400DA010E94111D10920701109206010895E3
:0C2E540081E08093DA010E94111D0895B6
:102E6000CF93DF93CDB7DEB76D970FB6F894DEBF83
:102E70000FBECDBF0E94111D25E531E040E08FE07F
:102E8000F901DE011196742F0E94E41C60E0CE016E
:102E900001960E94881C24E631E040E08EE0F901B2
:102EA000DE015096742F0E94E41C60E4CE0140962F
:102EB0000E94881C6D960FB6F894DEBF0FBECDBF82
:062EC000DF91CF9108959F
:102EC600CF93DF93CDB7DEB76E970FB6F894DEBF1C
:102ED6000FBECDBF0E94111D25E531E040E08FE019
:102EE600F901DE011196742F0E94E41C60E0CE0108
:102EF60001960E94881C22E731E040E08FE0F9014C
:102F0600DE015096742F0E94E41C60E4CE014096C8
:102F16000E94881C6E960FB6F894DEBF0FBECDBF1A
:062F2600DF91CF91089538
:102F2C00CF93DF93CDB7DEB76A970FB6F894DEBFB9
:102F3C000FBECDBF0E94111D2CEA31E040E08DE0A8
:102F4C00F901DE011196742F0E94E41C60E0CE01A1
:102F5C0001960E94881C29EB31E040E08DE0F901DC
:102F6C00DE011E96742F0E94E41C60E4CE010E96C6
:102F7C000E94881C6A960FB6F894DEBF0FBECDBFB8
:062F8C00DF91CF910895D2
:102F9200CF93DF93CDB7DEB76B970FB6F894DEBF52
:102FA2000FBECDBF0E94111D2CEA31E040E08DE042
:102FB200F901DE011196742F0E94E41C60E0CE013B
:102FC20001960E94881C26EC31E040E08EE0F90177
:102FD200DE011E96742F0E94E41C60E4CE010E9660
:102FE2000E94881C6B960FB6F894DEBF0FBECDBF51
:062FF200DF91CF9108956C
:102FF800CF93DF93CDB7DEB76B970FB6F894DEBFEC
:103008000FBECDBF0E94111D24ED31E040E08DE0E0
:10301800F901DE011196742F0E94E41C60E0CE01D4
:1030280001960E94881C21EE31E040E08EE0F90113
:10303800DE011E96742F0E94E41C60E4CE010E96F9
:103048000E94881C6B960FB6F894DEBF0FBECDBFEA
:06305800DF91CF91089505
:10305E00CF93DF93CDB7DEB76C970FB6F894DEBF84
:10306E000FBECDBF0E94111D2FEE31E040E08EE06D
:10307E00F901DE011196742F0E94E41C60E0CE016E
:10308E0001960E94881C21EE31E040E08EE0F901AD
:10309E00DE011F96742F0E94E41C60E4CE010F9691
:1030AE000E94881C6C960FB6F894DEBF0FBECDBF83
:0630BE00DF91CF9108959F
:1030C400CF93DF93CDB7DEB76B970FB6F894DEBF1F
:1030D4000FBECDBF0E94111D2DEF31E040E08EE008
:1030E400F901DE011196742F0E94E41C60E0CE0108
:1030F40001960E94881C2BE032E040E08DE0F9014B
:10310400DE011F96742F0E94E41C60E4CE010F962A
:103114000E94881C6B960FB6F894DEBF0FBECDBF1D
:06312400DF91CF91089538
:10312A00CF93DF93CDB7DEB76E970FB6F894DEBFB5
:10313A000FBECDBF0E94111D2DEF31E040E08EE0A1
:10314A00F901DE011196742F0E94E41C60E0CE01A1
:10315A0001960E94881C28E132E040E080E1F901F2
:10316A00DE011F96742F0E94E41C60E4CE010F96C4
:10317A000E94881C6E960FB6F894DEBF0FBECDBFB4
:06318A00DF91CF910895D2
:10319000CF93DF93CDB7DEB76C970FB6F894DEBF51
:1031A0000FBECDBF0E94111D2DEF31E040E08EE03B
:1031B000F901DE011196742F0E94E41C60E0CE013B
:1031C00001960E94881C28E232E040E08EE0F9017E
:1031D000DE011F96742F0E94E41C60E4CE010F965E
:1031E0000E94881C6C960FB6F894DEBF0FBECDBF50
:0631F000DF91CF9108956C
:1031F600CF93DF93CDB7DEB76E970FB6F894DEBFE9
:103206000FBECDBF21E831E040E08EE0F901DE01DE
:103216001196742F0E94E41C60E0CE0101960E9474
:10322600881C2FE831E040E080E1F901DE011F96BD
:10323600742F0E94E41C60E4CE010F960E94881C45
:103246006E960FB6F894DEBF0FBECDBFDF91CF915D
:023256000895D9
:10325800CF93DF93D82FC62F66E372E080E00E94F9
:10326800521C0E94691D8823E1F3809106010E9487
:10327800B0166BE572E080E00E94521C0E94691D46
:103288008823E1F38D2F0E94B01665E672E080E096
:103298000E94521C0E94691D8823E1F38C2F0E9412
:1032A800B01662E772E080E00E94521CDF91CF9175
:0232B800089577
:1032BA00CF93DF93D82FC62F65E772E080E00E9494
:1032CA00521C0E94691D8823E1F3809106010E9425
:1032DA00B0166BE572E080E00E94521C0E94691DE4
:1032EA008823E1F38D2F0E94B01665E672E080E034
:1032FA000E94521C0E94691D8823E1F38C2F0E94B0
:10330A00B01662E772E080E00E94521CDF91CF9112
:02331A00089514
:10331C00CF93DF93D82FC62F6DE972E080E00E9427
:10332C00521C0E94691D8823E1F3809106010E94C2
:10333C00B0166BE572E080E00E94521C0E94691D81
:10334C008823E1F38D2F0E94B01665E672E080E0D1
:10335C000E94521C0E94691D8823E1F38C2F0E944D
:10336C00B01662E772E080E00E94521CDF91CF91B0
:02337C000895B2
:10337E00CF93DF93CDB7DEB762970FB6F894DEBF6B
:10338E000FBECDBF25E131E040E081E1F901DE0164
:10339E001196742F0E94E41C60E0CE0101960E94EB
:1033AE00881C1A8A60E4CE0142960E94881C63E053
:1033BE0070E080E090E00E94491A62960FB6F89491
:0C33CE00DEBF0FBECDBFDF91CF91089590
:1033DA00CF93DF93CDB7DEB72F970FB6F894DEBF42
:1033EA000FBECDBF26E231E040E08EE0F901DE01FA
:1033FA001196742F0E94E41C60E0CE0101960E948F
:10340A00881C1F8660E4CE010F960E94881C63E028
:10341A0070E080E090E00E94491A2F960FB6F89467
:0C342A00DEBF0FBECDBFDF91CF91089533
:10343600CF93DF93CDB7DEB762970FB6F894DEBFB2
:103446000FBECDBF24E331E040E081E1F901DE01AA
:103456001196742F0E94E41C60E0CE0101960E9432
:10346600881C1A8A60E4CE0142960E94881C63E09A
:1034760070E080E090E00E94491A62960FB6F894D8
:0C348600DEBF0FBECDBFDF91CF910895D7
:103492009B01AC011092B4011092B5011092B601D9
:1034A2001092B701A8EEB3E00E94FC1CAB01BC0174
:1034B2000BC00196A11DB11D8093B4019093B5017B
:1034C200A093B601B093B7018091B4019091B50178
:1034D200A091B601B091B701481759076A077B0757
:0434E20044F708950E
:1034E60020912701309128012130310549F4E42F3C
:1034F600F52F749167FD7081FC01E655FE4F7083D0
:103506002230310549F4E42FF52F749167FD70815F
:10351600FC01EB55FE4F70832330310549F4E42F4F
:10352600F52F249167FD2081FC01E056FE4F208394
:023536000895F6
:10353800806898B1907C98B998B19F7E98B998B1F5
:10354800906298B998B1282F22952F70922B98B92C
:1035580098B19F7D98B998B1907C98B998B19062CC
:1035680098B998B18F70892B88B988B18F7D88B93F
:0E3578006BE270E080E090E00E94821B0895FC
:10358600CF93DF93CDB7DEB761970FB6F894DEBF62
:103596000FBECDBF0E94111D24E031E040E081E165
:1035A600F901DE011196742F0E94E41C60E0CE0141
:1035B60001960E94881C80EC0E94321C61960FB610
:0E35C600F894DEBF0FBECDBFDF91CF91089508
:1035D400CF93DF93CDB7DEB760970FB6F894DEBF15
:1035E4000FBECDBF0E94111D25E431E040E080E113
:1035F400F901DE011196742F0E94E41C60E0CE01F3
:1036040001960E94881C80EC0E94321C60960FB6C2
:0E361400F894DEBF0FBECDBFDF91CF910895B9
:10362200CF92DF92EF92FF926B017C01CA01B90146
:10363200689413F896958795779567951694D1F7C0
:10364200A70196010E94101C215031093093C50038
:103652002093C4001092C00088E08093C10086E0ED
:0E3662008093C200FF90EF90DF90CF9008950C
:1036700098B1907F98B998B1906198B998B19062DB
:1036800098B998B1282F22952F70922B98B998B19C
:103690009F7D98B998B1907F98B998B1906298B988
:1036A00098B18F70892B88B988B18F7D88B96BE20A
:0C36B00070E080E090E00E94821B089512
:1036BC0020E019C08091DC0190E0022E02C09595AB
:1036CC0087950A94E2F780FF04C088B1816088B9BD
:1036DC0003C088B18E7F88B985B1846085B985B106
:1036EC008B7F85B92F5F283028F383B18F7783B90F
:0836FC0083B1806883B90895D1
:10370400AB01BC011092B4011092B5011092B60144
:103714001092B7010BC00196A11DB11D8093B40195
:103724009093B501A093B601B093B7018091B40111
:103734009091B501A091B601B091B701481759070E
:083744006A077B0744F70895B2
:10374C00E1E2F1E08081918124E6289FA001299F8C
:10375C00500D112482819381BC01660F771F9C014F
:10376C00220F331F220F331F220F331FCB01820F67
:10377C00931F840F951F24813581820F931F909383
:08378C0003018093020108957E
:10379400E9E2F1E08081918124E6289FA001299F3C
:1037A400500D112482819381BC01660F771F9C0107
:1037B400220F331F220F331F220F331FCB01820F1F
:1037C400931F840F951F24813581820F931F90933B
:0837D4000B0180930A01089526
:1037DC00CF93DF93CDB7DEB72D970FB6F894DEBF3E
:1037EC000FBECDBF2FE931E040E08DE0F901DE01E5
:1037FC001196742F0E94E41C60E0CE0101960E9489
:10380C00881C2D960FB6F894DEBF0FBECDBFDF918E
:04381C00CF910895AB
:10382000A1E21A2EAA1BBB1BFD010DC0AA1FBB1FC4
:10383000EE1FFF1FA217B307E407F50720F0A21B36
:10384000B30BE40BF50B661F771F881F991F1A94A3
:1038500069F760957095809590959B01AC01BD01CD
:04386000CF010895F7
:1038640098B1907C98B998B19F7E98B998B19062BC
:1038740098B998B1282F22952F70922B98B998B1A6
:103884009F7D98B998B1907C98B998B1906298B995
:1038940098B18F70892B88B988B18F7D88B90895C4
:1038A400CF92DF92EF926B01E82E0EC00E94691D49
:1038B4008823E1F3F6018491E7FC80810E94701D66
:1038C4008FEFC81AD80AE80AF6018491E7FC8081D0
:0C38D4008111ECCFEF90DF90CF900895B1
:1038E000ECE0F1E0808191819C01220F331F880F71
:1038F000991F880F991F880F991F820F931F22818C
:103900003381820F931F90931101809310010895CA
:103910000F931F93CF938C01862F0E949C1AC0E0B7
:1039200003C00E94381BCF5FF801EC0FF11D8081AE
:0C3930008111F7CFCF911F910F910895E6
:10393C009CB595659CBD95B19B7F95B90E94751DF5
:10394C000DB407FEFDCF8FEF0E94751D0DB407FE61
:0C395C00FDCF85B1846085B98EB508955B
:10396800E1E8F0E0808188608083EFE6F0E0808124
:103978008260808382E19AE790938900809388002F
:023988000895A0
:10398A0098B1907C98B998B19F7E98B998B1906295
:10399A0098B998B1892B88B988B18F7D88B908956B
:1039AA00A29FB001B39FC001A39F700D811D112476
:0E39BA00911DB29F700D811D1124911D089565
:1039C800992777FD05C005900D920197E1F70895B5
:0A39D80001900D920197E1F70895A8
:1039E2001092DB011092C5011092C4011092C7011E
:0639F2001092C6010895C9
:1039F8000E94D51CA59F900DB49F900DA49F800D8B
:063A0800911D1124089538
:103A0E0021E030E002C0220F331F6A95E2F72095C5
:043A1E008223089562
:103A220081E00E94321C6FE070E080E090E00E9432
:043A3200491A089590
:103A3600E42FF52F249167FD2081815D9E4FFC01C7
:043A4600208308953C
:103A4A00E1E8F0E08081887F8083109285001092FF
:043A5A008400089547
:103A5E0084B18C6284B98CB581658CBD85B184606E
:043A6E0085B9089579
:103A720021E030E002C0220F331F6A95E2F7822B69
:023A82000895A5
:103A840084B5826084BDEEE6F0E08081826080834C
:023A9400089593
:0C3A96008CE08093690082E08DBB0895F5
:0C3AA200E1E8F0E08081846080830895FA
:0C3AAE00EE0FFF1F0590F491E02D09942D
:083ABA008BB181608BB9089506
:083AC20082E00E949E1C0895A1
:083ACA0083E00E949E1C089598
:083AD2008091C000807208958C
:063ADA008BB11BB808953A
:063AE0008093C60008956A
:043AE6000C9400003C
:043AEA008EBD0895F0
:103AEE0003000000000000000000000000000000C5
:043AFE0000000000C4
:103B020002000000000000000000000000000000B1
:043B120000000000AF
:103B1600010000000000000000000000000000009E
:043B2600000000009B
:063B2A000700000000008E
:063B300006000000000089
:063B360005000000000084
:063B3C000400000000007F
:063B42000300000000007A
:063B480002000000000075
:063B4E0001000000000070
:053B54003132333400A2
:053B590031323334009D
:053B5E00313233340098
:053B6300313233340093
:00000001FF
