:100000000C943D000C944E040C948B000C944E0404
:100010000C944E040C944E040C944E040C944E0418
:100020000C944E040C944E040C944E040C944E0408
:100030000C944E040C944E040C944E040C944E04F8
:100040000C944E040C944E040C944E040C944E04E8
:100050000C944E040C944E040C944E040C944E04D8
:100060000C944E040C944E040100011680011601FC
:100070001B0008A0011B0122800011241FBECFEF2E
:10008000D8E0DEBFCDBFE8E6F0E040E017C0B591B4
:10009000A59135912591059107FD0CC0959185910C
:1000A000EF01F92FE82F05900D92A217B307D9F7AA
:1000B000FE0104C01D92A217B307E1F7E937F40768
:0E00C00031F70E945B020C946500F894FFCFAC
:1000CE004465736174697661646F2020202020205E
:1000DE000050726F6772616D6163616F2020202026
:1000EE002000496E7369726120612073656E6861CC
:1000FE002020003100320033003400350036003746
:07010E000038003900300049
:100116001F920F920FB60F9211242F933F934F9376
:100126005F936F937F938F939F93AF93BF93EF9359
:10013600FF9389B1807F90E0909301018093000145
:10014600803F9105D9F481E30E94590380912101F2
:100156008E3009F04DC141E051E060E080911F0111
:10016600909120010E94340480911F0190912001FA
:1001760001969093200180931F013AC18037910523
:10018600D9F482E30E945903809121018E3009F04F
:100196002FC143E051E060E080911F019091200162
:1001A6000E94340480911F01909120010196909342
:1001B600200180931F011CC1803B9105D9F483E384
:1001C6000E945903809121018E3009F011C145E04A
:1001D60051E060E080911F01909120010E9434045B
:1001E60080911F01909120010196909320018093A8
:1001F6001F01FEC08033910549F480E50E94590332
:100206008EE0809321010E94A303F2C0803D9105F8
:10021600D9F484E30E945903809121018E3009F0BC
:10022600E7C047E051E060E080911F019091200116
:100236000E94340480911F019091200101969093B1
:10024600200180931F01D4C080359105D9F485E340
:100256000E945903809121018E3009F0C9C049E0FE
:1002660051E060E080911F01909120010E943404CA
:1002760080911F0190912001019690932001809317
:100286001F01B6C080399105D9F486E30E9459034F
:10029600809121018E3009F0ABC04BE051E060E067
:1002A60080911F01909120010E94340480911F01CA
:1002B6009091200101969093200180931F0198C090
:1002C6008031910521F481E40E94590391C0803E5A
:1002D6009105D9F487E30E945903809121018E305C
:1002E60009F086C04DE051E060E080911F019091D9
:1002F60020010E94340480911F01909120010196F3
:100306009093200180931F0173C080369105D9F424
:1003160088E30E945903809121018E3009F068C05C
:100326004FE051E060E080911F01909120010E9412
:10033600340480911F019091200101969093200131
:1003460080931F0155C0803A9105D9F489E30E9434
:100356005903809121018E3009F04AC041E151E0F4
:1003660060E080911F01909120010E9434048091E9
:100376001F019091200101969093200180931F0107
:1003860037C08032910521F484E40E94590330C0BD
:10039600803C910521F482E50E94590329C08034EE
:1003A6009105D1F480E30E945903809121018E309A
:1003B600F9F443E151E060E080911F019091200142
:1003C6000E94340480911F01909120010196909320
:1003D600200180931F010CC08038910521F483E52C
:1003E6000E94590305C0892B19F485E40E9459031C
:1003F600FF91EF91BF91AF919F918F917F916F91F7
:100406005F914F913F912F910F900FBE0F901F90CC
:02041600189537
:100418006FE070E080E090E00E948F0283E00E942D
:10042800FD0365E070E080E090E00E948F0283E0C9
:100438000E94FD0364E670E080E090E00E947F0384
:1004480083E00E94FD0368E270E080E090E00E9493
:100458007F0382E00E94FD0368E270E080E090E0A4
:100468000E947F0388E20E94C70368E270E080E090
:1004780090E00E947F0381E00E94C70362E070E081
:1004880080E090E00E948F0286E00E94C70368E245
:1004980070E080E090E00E947F038CE00E94C70338
:0E04A80068E270E080E090E00E947F0308951B
:1004B6008FE384B91AB880EF8BB90E9448040E9472
:1004C6000C027894809121018A3091F028F48823D7
:1004D60041F0813051F0F6CF8E3069F08F30C9F09F
:1004E600F1CF81E080932101EDCF0E94E202EACFB5
:1004F6000E940A03E7CF80911F0190912001049783
:100506000CF38FE0809321011092200110921F01BD
:08051600D9CF0E94B902D6CF33
:10051E009B01AC0110921B0110921C0110921D0147
:10052E0010921E01A8EEB3E00E942904AB01BC019B
:10053E000BC00196A11DB11D80931B0190931C0150
:10054E00A0931D01B0931E0180911B0190911C017F
:10055E00A0911D01B0911E01481759076A077B072C
:04056E0044F70895B1
:1005720040E050E080E090E009C0FC01EF5EFE4FF9
:100582003081231302C04F5F5F4F0196FC01EA5E88
:10059200FE4F20812111F1CF4430510531F48AE020
:1005A200809321010E943E0405C081E080932101D5
:1005B2000E943E0464E170E080E090E00E948F02BD
:0205C20008959A
:1005C400CF93DF93CDB7DEB762970FB6F894DEBF53
:1005D4000FBECDBF2EEC30E040E081E1F901DE0139
:1005E4001196742F0E941C0460E0CE0101960E94B3
:1005F400E7031A8A60E4CE0142960E94E7036296FA
:100604000FB6F894DEBF0FBECDBFDF91CF91089532
:10061400CF93DF93CDB7DEB762970FB6F894DEBF02
:100624000FBECDBF2FED30E040E081E1F901DE01E6
:100634001196742F0E941C0460E0CE0101960E9462
:10064400E7031A8A60E4CE0142960E94E7036296A9
:100654000FB6F894DEBF0FBECDBFDF91CF910895E2
:10066400806895B1907C95B995B19F7E95B995B107
:10067400906295B995B1282F22952F70922B95B938
:1006840095B19F7D95B995B1907C95B995B19062DE
:1006940095B995B18F70892B85B985B18F7D85B951
:0E06A4006BE270E080E090E00E947F0308951A
:1006B20095B1907F95B995B1906195B995B19062D8
:1006C20095B995B1282F22952F70922B95B995B196
:1006D2009F7D95B995B1907F95B995B1906295B985
:1006E20095B18F70892B85B985B18F7D85B96BE204
:0C06F20070E080E090E00E947F0308951B
:1006FE00AB01BC0110921B0110921C0110921D0146
:10070E0010921E010BC00196A11DB11D80931B01FD
:10071E0090931C01A0931D01B0931E0180911B01AB
:10072E0090911C01A0911D01B0911E01481759070F
:08073E006A077B0744F70895E8
:10074600CF93DF93CDB7DEB761970FB6F894DEBFD0
:100756000FBECDBF0E943E0420EF30E040E081E1B5
:10076600F901DE011196742F0E941C0460E0CE018F
:1007760001960E94E70361960FB6F894DEBF0FBE9E
:08078600CDBFDF91CF91089572
:10078E0095B1907C95B995B19F7E95B995B19062D2
:10079E0095B995B1282F22952F70922B95B995B1B9
:1007AE009F7D95B995B1907C95B995B1906295B9AB
:1007BE0095B18F70892B85B985B18F7D85B90895D7
:1007CE000F931F93CF938C01862F0E943203C0E0AC
:1007DE0003C00E945903CF5FF801EC0FF11D808119
:0C07EE008111F7CFCF911F910F9108955A
:1007FA0095B1907C95B995B19F7E95B995B1906266
:10080A0095B995B1892B85B985B18F7D85B908953B
:10081A00A29FB001B39FC001A39F700D811D112437
:0E082A00911DB29F700D811D1124911D089526
:10083800992777FD05C005900D920197E1F7089576
:0A08480001900D920197E1F7089569
:100852000E940D04A59F900DB49F900DA49F800D42
:06086200911D1124089510
:10086800E42FF52F249167FD20818F5E9E4FFC01B8
:04087800208308953C
:10087C0081E00E94C70365E070E080E090E00E9498
:04088C008F0208953A
:0C0890008CE08093690082E08DBB08952D
:04089C000C940000B8
:0508A000313233340089
:00000001FF
