:100000000C9458000C944B1B0C9425010C944B1B26
:100010000C944B1B0C944B1B0C944B1B0C944B1BC8
:100020000C944B1B0C944B1B0C944B1B0C945114B9
:100030000C944B1B0C944B1B0C944B1B0C944B1BA8
:100040000C944B1B0C944B1B0C944B1B0C944B1B98
:100050000C944B1B0C944B1B0C944B1B0C944B1B88
:100060000C944B1B0C944B1BF3140915DF14DF1479
:10007000DF140C1512150F15DF14DF14DF14DF1455
:10008000151518151B150100013280013201980069
:10009000369A0198019E80019E01B200370001B29C
:1000A00001DA8001DA01DB00371401DB01DC8000BA
:1000B00011241FBECFEFD8E0DEBFCDBFE6E8F0E0F1
:1000C00040E017C0B591A59135912591059107FDA7
:1000D0000CC095918591EF01F92FE82F05900D92B5
:1000E000A217B307D9F7FE0104C01D92A217B307E8
:1000F000E1F7EF3AF40731F70E94C6140C94800040
:04010000F894FFCFA1
:10010400496E7369726120612073656E68612E2E79
:10011400002020204465736174697661646F202037
:100124002000202020204174697661646F20200023
:1001340020202050726F6772616D6163616F2020AF
:10014400002053656E686120646573656A6164614B
:1001540000202053656E736F7220612073657200F6
:10016400202020686162696C697461646F002020DA
:100174006465736162696C697461646F0020202036
:100184004D6F64652050616E6963002020506F6C70
:1001940069636520636F6D696E6700457261736999
:1001A4006E672E2E2E2E2E0020205A6F6E61206137
:1001B40020736572002020686162696C69746164EF
:1001C4006100206465736162696C697461646100D3
:1001D400204173736F63696163616F200053656EBF
:1001E400736F722065205A6F6E610044657361738A
:1001F400736F63696163616F002020416A75737472
:100204006520646F20200020202054696D656F757F
:100214007420200054656D706F20646120536972EE
:10022400656E650054656D706F2064652041746966
:1002340076003100320033003400350036003700D8
:0602440038003900300013
:10024A001F920F920FB60F9211242F933F934F9341
:10025A005F936F937F938F939F93AF93BF93EF9324
:10026A00FF9389B1807F90E0909307018093060104
:10027A00803F910509F06BC191E08091D8018830E7
:10028A0009F090E081E02091D4013091D501243029
:10029A0031050CF080E08923A9F081E30E947F19DF
:1002AA0046E352E060E08091D4019091D5010E942A
:1002BA000C1B8091D4019091D50101969093D501A0
:1002CA008093D40191E08091D801893009F090E0BF
:1002DA0081E02091D4013091D501243031050CF010
:1002EA0080E08923A9F081E30E947F1946E352E066
:1002FA0060E08091D4019091D5010E94E11880912B
:10030A00D4019091D50101969093D5018093D4019F
:10031A0091E08091D8018A3009F090E081E0209143
:10032A00D4013091D501243031050CF080E08923C5
:10033A00A9F081E30E947F1946E352E060E08091D0
:10034A00D4019091D5010E940C1B8091D401909107
:10035A00D50101969093D5018093D40191E08091C3
:10036A00D8018B3009F090E081E02091D4013091DE
:10037A00D501243031050CF080E08923A9F081E30E
:10038A000E947F1946E352E060E08091D401909187
:10039A00D5010E940C1B8091D4019091D501019640
:1003AA009093D5018093D40191E08091D801873050
:1003BA0009F090E081E02091D6013091D7012130F7
:1003CA00310509F080E0892379F089E08093D8012A
:1003DA000E94581981E090E09093260180932501AC
:1003EA001092D7011092D60191E08091D8018F30F6
:1003FA0009F090E081E02091CE013091CF01232BCA
:10040A0009F080E0892321F081E090E00E94AE1398
:10041A0091E08091D801803109F090E081E020914B
:10042A00CE013091CF01232B09F080E0892321F0FE
:10043A0081E090E00E946D159091D80121E04091F1
:10044A00C6015091C701452B09F020E081E09131A6
:10045A0009F080E08223F9F02091C8013091C901A6
:10046A002115310559F421E030E030930101209340
:10047A0000013093C9012093C8010DC02130310514
:10048A0051F421E030E030930501209304013093C8
:10049A00C7012093C6012091BA013091BB0141E006
:1004AA00933109F040E081E0223031050CF080E020
:1004BA00842379F0F901EE0FFF1FE65FFE4F41E05A
:1004CA0050E0518340832F5F3F4F3093BB0120930D
:1004DA00BA0181E02091BA013091BB012330310584
:1004EA000CF080E021E0943109F020E0282399F013
:1004FA002091B6013091B701F901EE0FFF1FE95DB6
:10050A00FE4F41E050E0518340832F5F3F4F3093CD
:10051A00B7012093B60121E0923109F020E082234D
:10052A0011F40C9456108091B8019091B901FC0114
:10053A00EE0FFF1FE15EFE4F21E030E031832083A2
:10054A0001969093B9018093B8010C945610803E9D
:10055A00910509F088C191E08091D801883009F0AD
:10056A0090E081E02091D4013091D5012430310509
:10057A000CF080E08923A9F082E30E947F1948E306
:10058A0052E060E08091D4019091D5010E940C1B49
:10059A008091D4019091D50101969093D5018093D1
:1005AA00D40191E08091D801893009F090E081E08E
:1005BA002091D4013091D501243031050CF080E02E
:1005CA008923A9F082E30E947F1948E352E060E0A0
:1005DA008091D4019091D5010E94E1188091D401B3
:1005EA009091D50101969093D5018093D40191E021
:1005FA008091D8018A3009F090E081E02091D401FD
:10060A003091D501243031050CF080E08923A9F01E
:10061A0082E30E947F1948E352E060E08091D401AE
:10062A009091D5010E940C1B8091D4019091D50123
:10063A0001969093D5018093D40191E08091D801DD
:10064A008B3009F090E081E02091D4013091D501FE
:10065A00243031050CF080E08923A9F082E30E945E
:10066A007F1948E352E060E08091D4019091D5016E
:10067A000E940C1B8091D4019091D5010196909310
:10068A00D5018093D40191E08091D801873009F097
:10069A0090E02091D6013091D70141E06091C001EC
:1006AA007091C101672B09F040E081E02115310505
:1006BA0009F080E08423992349F0882339F081E006
:1006CA0090E09093D7018093D60116C081E0213043
:1006DA00310509F080E0982379F089E08093D80108
:1006EA000E94581982E090E0909326018093250198
:1006FA001092D7011092D60191E08091D8018F30E3
:10070A0009F090E081E02091CE013091CF01232BB6
:10071A0009F080E0892321F082E090E00E94AE1384
:10072A0091E08091D801803109F090E081E0209138
:10073A00CE013091CF01232B09F080E0892321F0EB
:10074A0082E090E00E946D159091D80121E04091DD
:10075A00C6015091C701452B09F020E081E0913193
:10076A0009F080E0822319F12091C8013091C90172
:10077A002115310569F422E030E03093010120931C
:10078A00000121E030E03093C9012093C8010FC075
:10079A002130310561F422E030E0309305012093E5
:1007AA00040121E030E03093C7012093C601209173
:1007BA00BA013091BB0141E0933109F040E081E098
:1007CA00223031050CF080E0842379F0F901EE0F34
:1007DA00FF1FE65FFE4F42E050E0518340832F5FE8
:1007EA003F4F3093BB012093BA0181E02091BA01B7
:1007FA003091BB01233031050CF080E021E09431C7
:10080A0009F020E0282399F02091B6013091B70130
:10081A00F901EE0FFF1FE95DFE4F42E050E0518300
:10082A0040832F5F3F4F3093B7012093B60121E0F9
:10083A00923109F020E0822311F40C945610809131
:10084A00B8019091B901FC01EE0FFF1FE15EFE4F66
:10085A0022E030E03183208301969093B90180939E
:10086A00B8010C945610803D910509F09DC191E0A4
:10087A008091D801883009F090E081E02091D4017C
:10088A003091D501243031050CF080E08923A9F09C
:10089A0083E30E947F194AE352E060E08091D40129
:1008AA009091D5010E940C1B8091D4019091D501A1
:1008BA0001969093D5018093D40191E08091D8015B
:1008CA00893009F090E081E02091D4013091D5017E
:1008DA00243031050CF080E08923A9F083E30E94DB
:1008EA007F194AE352E060E08091D4019091D501EA
:1008FA000E94E1188091D4019091D50101969093BC
:10090A00D5018093D40191E08091D8018A3009F011
:10091A0090E081E02091D4013091D5012430310555
:10092A000CF080E08923A9F083E30E947F194AE34F
:10093A0052E060E08091D4019091D5010E940C1B95
:10094A008091D4019091D50101969093D50180931D
:10095A00D40191E08091D8018B3009F090E081E0D8
:10096A002091D4013091D501243031050CF080E07A
:10097A008923A9F083E30E947F194AE352E060E0E9
:10098A008091D4019091D5010E940C1B8091D401D1
:10099A009091D50101969093D5018093D40191E06D
:1009AA008091D801873009F090E021E04091D6018A
:1009BA005091D701452B09F020E081E04091C00118
:1009CA005091C101452B09F080E082239923A9F0B7
:1009DA00882399F08FE08093D8018091CC0190917F
:1009EA00CD01892B11F40E9431168091CC0190918E
:1009FA00CD01019711F40E94641691E08091D8010B
:100A0A00873009F090E081E02091D6013091D7013A
:100A1A002130310509F080E0892379F089E080935B
:100A2A00D8010E94581983E090E0909326018093A0
:100A3A0025011092D7011092D60191E08091D80138
:100A4A008F3009F090E081E02091CE013091CF0102
:100A5A00232B09F080E0892321F083E090E00E94B3
:100A6A00AE1391E08091D801803109F090E081E0E5
:100A7A002091CE013091CF01232B09F080E0892308
:100A8A0021F083E090E00E946D159091D80121E059
:100A9A004091C6015091C701452B09F020E081E041
:100AAA00913109F080E0822319F12091C801309137
:100ABA00C9012115310569F423E030E030930101C1
:100ACA002093000121E030E03093C9012093C8014E
:100ADA000FC02130310561F423E030E03093050185
:100AEA002093040121E030E03093C7012093C6012E
:100AFA002091BA013091BB0141E0933109F040E005
:100B0A0081E0223031050CF080E0842379F0F9018C
:100B1A00EE0FFF1FE65FFE4F43E050E05183408334
:100B2A002F5F3F4F3093BB012093BA0181E02091A0
:100B3A00BA013091BB01233031050CF080E021E08D
:100B4A00943109F020E0282399F02091B6013091E0
:100B5A00B701F901EE0FFF1FE95DFE4F43E050E0D8
:100B6A00518340832F5F3F4F3093B7012093B601E3
:100B7A0021E0923109F020E0822311F40C945610FE
:100B8A008091B8019091B901FC01EE0FFF1FE15E5F
:100B9A00FE4F23E030E03183208301969093B90120
:100BAA008093B8010C945610803C910579F4809199
:100BBA00D801813011F00C94561088E08093D80146
:100BCA000E9431190E94381B0C945610803B9105E3
:100BDA0009F05DC191E08091D801883009F090E078
:100BEA0081E02091D4013091D501243031050CF0F7
:100BFA0080E08923A9F084E30E947F194CE352E044
:100C0A0060E08091D4019091D5010E940C1B8091E3
:100C1A00D4019091D50101969093D5018093D40186
:100C2A0091E08091D801893009F090E081E020912B
:100C3A00D4013091D501243031050CF080E08923AC
:100C4A00A9F084E30E947F194CE352E060E08091AE
:100C5A00D4019091D5010E94E1188091D40190911C
:100C6A00D50101969093D5018093D40191E08091AA
:100C7A00D8018A3009F090E081E02091D4013091C6
:100C8A00D501243031050CF080E08923A9F084E3F2
:100C9A000E947F194CE352E060E08091D401909168
:100CAA00D5010E940C1B8091D4019091D501019627
:100CBA009093D5018093D40191E08091D8018B3033
:100CCA0009F090E081E02091D4013091D5012430DF
:100CDA0031050CF080E08923A9F084E30E947F1992
:100CEA004CE352E060E08091D4019091D5010E94DA
:100CFA000C1B8091D4019091D50101969093D50156
:100D0A008093D40191E08091D8018F3009F090E06E
:100D1A0081E02091CE013091CF01232B09F080E0B0
:100D2A00892321F084E090E00E94AE1391E0809143
:100D3A00D801873009F090E021E04091D601509126
:100D4A00D701452B09F020E081E04091C001509184
:100D5A00C101452B09F080E082239923A9F0882359
:100D6A0099F081E18093D8018091CC019091CD01D5
:100D7A00892B11F40E94FD168091CC019091CD012E
:100D8A00019711F40E9430179091D80121E0913116
:100D9A0009F020E031E04091C6015091C701452B8E
:100DAA0009F030E081E04091C8015091C901452B1A
:100DBA0009F080E08323222371F0882361F024E084
:100DCA0030E0309301012093000121E030E03093BC
:100DDA00C7012093C6012091BA013091BB0141E0BD
:100DEA00933109F040E081E0223031050CF080E0D7
:100DFA00842379F0F901EE0FFF1FE65FFE4F44E00E
:100E0A0050E0518340832F5F3F4F3093BB012093C3
:100E1A00BA0181E02091BA013091BB01233031053A
:100E2A000CF080E021E0943109F020E0282399F0C9
:100E3A002091B6013091B701F901EE0FFF1FE95D6C
:100E4A00FE4F44E050E0518340832F5F3F4F309381
:100E5A00B7012093B60121E0923109F020E0822304
:100E6A0011F40C9456108091B8019091B901FC01CB
:100E7A00EE0FFF1FE15EFE4F24E030E03183208356
:100E8A0001969093B9018093B8010C945610803A58
:100E9A00910509F05BC191E08091D801883009F091
:100EAA0090E081E02091D4013091D50124303105C0
:100EBA000CF080E08923A9F085E30E947F194EE3B4
:100ECA0052E060E08091D4019091D5010E940C1B00
:100EDA008091D4019091D50101969093D501809388
:100EEA00D40191E08091D801893009F090E081E045
:100EFA002091D4013091D501243031050CF080E0E5
:100F0A008923A9F085E30E947F194EE352E060E04D
:100F1A008091D4019091D5010E94E1188091D40169
:100F2A009091D50101969093D5018093D40191E0D7
:100F3A008091D8018A3009F090E081E02091D401B3
:100F4A003091D501243031050CF080E08923A9F0D5
:100F5A0085E30E947F194EE352E060E08091D4015C
:100F6A009091D5010E940C1B8091D4019091D501DA
:100F7A0001969093D5018093D40191E08091D80194
:100F8A008B3009F090E081E02091D4013091D501B5
:100F9A00243031050CF080E08923A9F085E30E9412
:100FAA007F194EE352E060E08091D4019091D5011F
:100FBA000E940C1B8091D4019091D50101969093C7
:100FCA00D5018093D40191E08091D8018F3009F046
:100FDA0090E081E02091CE013091CF01232B09F0DE
:100FEA0080E0892321F085E090E00E94AE1391E031
:100FFA008091D801873009F090E021E04091D60134
:10100A005091D701452B09F020E081E04091C001C1
:10101A005091C101452B09F080E082239923A9F060
:10102A00882399F080E18093D8018091CC01909136
:10103A00CD01892B11F40E9497168091CC019091D1
:10104A00CD01019711F40E94CA169091D80121E0AE
:10105A00913109F020E031E04091C6015091C70179
:10106A00452B09F030E081E04091C8015091C90157
:10107A00452B09F080E08323222371F0882361F055
:10108A0025E030E0309301012093000121E030E0B7
:10109A003093C7012093C6012091BA013091BB0158
:1010AA0041E0933109F040E081E0223031050CF053
:1010BA0080E0842379F0F901EE0FFF1FE65FFE4F0F
:1010CA0045E050E0518340832F5F3F4F3093BB018F
:1010DA002093BA0181E02091BA013091BB012330FB
:1010EA0031050CF080E021E0943109F020E028235A
:1010FA0099F02091B6013091B701F901EE0FFF1F67
:10110A00E95DFE4F45E050E0518340832F5F3F4F3A
:10111A003093B7012093B60121E0923109F020E023
:10112A00822309F4BEC78091B8019091B901FC01EC
:10113A00EE0FFF1FE15EFE4F25E030E03183208392
:10114A0001969093B9018093B801ABC78039910594
:10115A0009F05CC191E08091D801883009F090E0F3
:10116A0081E02091D4013091D501243031050CF071
:10117A0080E08923A9F086E30E947F1940E452E0C7
:10118A0060E08091D4019091D5010E940C1B80915E
:10119A00D4019091D50101969093D5018093D40101
:1011AA0091E08091D801893009F090E081E02091A6
:1011BA00D4013091D501243031050CF080E0892327
:1011CA00A9F086E30E947F1940E452E060E0809132
:1011DA00D4019091D5010E94E1188091D401909197
:1011EA00D50101969093D5018093D40191E0809125
:1011FA00D8018A3009F090E081E02091D401309141
:10120A00D501243031050CF080E08923A9F086E36A
:10121A000E947F1940E452E060E08091D4019091ED
:10122A00D5010E940C1B8091D4019091D5010196A1
:10123A009093D5018093D40191E08091D8018B30AD
:10124A0009F090E081E02091D4013091D501243059
:10125A0031050CF080E08923A9F086E30E947F190A
:10126A0040E452E060E08091D4019091D5010E945F
:10127A000C1B8091D4019091D50101969093D501D0
:10128A008093D40191E08091D8018F3009F090E0E9
:10129A0081E02091CE013091CF01232B09F080E02B
:1012AA00892321F086E090E00E94AE138091D80154
:1012BA0021E0813109F020E031E04091C6015091EE
:1012CA00C701452B09F030E091E04091C8015091E7
:1012DA00C901452B09F090E09323222371F0992349
:1012EA0061F026E030E0309301012093000121E013
:1012FA0030E03093C7012093C6012091BA013091A2
:10130A00BB0141E0833109F040E091E02230310530
:10131A000CF090E0942379F0F901EE0FFF1FE65FDD
:10132A00FE4F46E050E0518340832F5F3F4F30939A
:10133A00BB012093BA0121E04091BA015091BB014F
:10134A00433051050CF020E091E0843109F090E03F
:10135A00922399F02091B6013091B701F901EE0F6D
:10136A00FF1FE95DFE4F46E050E0518340832F5F47
:10137A003F4F3093B7012093B60191E0873009F0CF
:10138A0090E021E04091D6015091D701452B09F018
:10139A0020E081E04091C0015091C101452B09F044
:1013AA0080E08223992369F0882359F082E18093AF
:1013BA00D80181E090E09093BD018093BC010E9426
:1013CA00C91791E08091D801823109F090E081E05B
:1013DA002091BA013091BB01233031050CF080E035
:1013EA00892309F45EC68091B8019091B901FC0184
:1013FA00EE0FFF1FE15EFE4F26E030E031832083CF
:10140A0001969093B9018093B8014BC68038910533
:10141A0019F591E08091D801883009F090E081E0D7
:10142A002091D4013091D5012430310509F080E0B2
:10143A00892339F08CE08093D8011092D50110925B
:10144A00D4018091D801813009F02BC68AE08093BB
:10145A00D8010E94311925C68037910509F053C178
:10146A0091E08091D801883009F090E081E02091E4
:10147A00D4013091D501243031050CF080E0892364
:10148A00A9F087E30E947F1942E452E060E080916C
:10149A00D4019091D5010E940C1B8091D4019091A6
:1014AA00D50101969093D5018093D40191E0809162
:1014BA00D801893009F090E081E02091D40130917F
:1014CA00D501243031050CF080E08923A9F087E3A7
:1014DA000E947F1942E452E060E08091D401909129
:1014EA00D5010E94E1188091D4019091D50101960D
:1014FA009093D5018093D40191E08091D8018A30EC
:10150A0009F090E081E02091D4013091D501243096
:10151A0031050CF080E08923A9F087E30E947F1946
:10152A0042E452E060E08091D4019091D5010E949A
:10153A000C1B8091D4019091D50101969093D5010D
:10154A008093D40191E08091D8018B3009F090E02A
:10155A0081E02091D4013091D501243031050CF07D
:10156A0080E08923A9F087E30E947F1940E452E0D2
:10157A0060E08091D4019091D5010E940C1B80916A
:10158A00D4019091D50101969093D5018093D4010D
:10159A0091E08091D8018F3009F090E081E02091AC
:1015AA00CE013091CF01232B09F080E0892321F06D
:1015BA0087E090E00E94AE139091D80121E091312A
:1015CA0009F020E031E04091C6015091C701452B56
:1015DA0009F030E081E04091C8015091C901452BE2
:1015EA0009F080E08323222371F0882361F027E049
:1015FA0030E0309301012093000121E030E0309384
:10160A00C7012093C6012091BA013091BB0141E084
:10161A00933109F040E081E0223031050CF080E09E
:10162A00842379F0F901EE0FFF1FE65FFE4F47E0D2
:10163A0050E0518340832F5F3F4F3093BB0120938B
:10164A00BA0121E0973009F020E091E04091D601FB
:10165A005091D701452B09F090E081E04091C001FB
:10166A005091C101452B09F080E08923222369F0BA
:10167A00882359F083E18093D80181E090E0909328
:10168A00C1018093C0010E9463172091D80181E0B3
:10169A004091BA015091BB01433051050CF080E0F2
:1016AA0091E0243109F090E0982399F04091B60135
:1016BA005091B701FA01EE0FFF1FE95DFE4F67E097
:1016CA0070E0718360834F5F5F4F5093B70140931F
:1016DA00B60191E0223109F090E0892309F4E1C4CE
:1016EA008091B8019091B901FC01EE0FFF1FE15EF4
:1016FA00FE4F27E030E03183208301969093B901B1
:10170A008093B801CEC48036910509F023C191E0D7
:10171A008091D801883009F090E081E02091D401CD
:10172A003091D501243031050CF080E08923A9F0ED
:10173A0088E30E947F1944E452E060E08091D4017A
:10174A009091D5010E940C1B8091D4019091D501F2
:10175A0001969093D5018093D40191E08091D801AC
:10176A00893009F090E081E02091D4013091D501CF
:10177A00243031050CF080E08923A9F088E30E9427
:10178A007F1944E452E060E08091D4019091D50140
:10179A000E94E1188091D4019091D501019690930D
:1017AA00D5018093D40191E08091D8018A3009F063
:1017BA0090E081E02091D4013091D50124303105A7
:1017CA000CF080E08923A9F088E30E947F1944E4A1
:1017DA0052E060E08091D4019091D5010E940C1BE7
:1017EA008091D4019091D50101969093D50180936F
:1017FA00D40191E08091D8018B3009F090E081E02A
:10180A002091D4013091D501243031050CF080E0CB
:10181A008923A9F088E30E947F1940E452E060E03E
:10182A008091D4019091D5010E940C1B8091D40122
:10183A009091D50101969093D5018093D40190910E
:10184A00D8012091BA013091BB0141E0933109F0EE
:10185A0040E081E0223031050CF080E0842379F009
:10186A00F901EE0FFF1FE65FFE4F48E050E051839B
:10187A0040832F5F3F4F3093BB012093BA0121E091
:10188A004091BA015091BB01433051050CF020E060
:10189A0081E0943109F080E0822399F02091B60129
:1018AA003091B701F901EE0FFF1FE95DFE4F48E0E5
:1018BA0050E0518340832F5F3F4F3093B70120930D
:1018CA00B60121E0973009F020E091E04091D6017D
:1018DA005091D701452B09F090E081E04091C00179
:1018EA005091C101452B09F080E08923222369F038
:1018FA00882359F084E18093D80181E090E09093A5
:10190A00BF018093BE010E94961791E08091D80191
:10191A00823109F090E081E02091BA013091BB0157
:10192A00233031050CF080E0892309F4BAC3809191
:10193A00B8019091B901FC01EE0FFF1FE15EFE4F65
:10194A0028E030E03183208301969093B901809397
:10195A00B801A7C38035910509F0F4C091E08091E0
:10196A00D801883009F090E081E02091D4013091CB
:10197A00D501243031050CF080E08923A9F089E3F0
:10198A000E947F1946E452E060E08091D401909170
:10199A00D5010E940C1B8091D4019091D50101962A
:1019AA009093D5018093D40191E08091D801893038
:1019BA0009F090E081E02091D4013091D5012430E2
:1019CA0031050CF080E08923A9F089E30E947F1990
:1019DA0046E452E060E08091D4019091D5010E94E2
:1019EA00E1188091D4019091D50101969093D50187
:1019FA008093D40191E08091D8018A3009F090E077
:101A0A0081E02091D4013091D501243031050CF0C8
:101A1A0080E08923A9F089E30E947F1946E452E015
:101A2A0060E08091D4019091D5010E940C1B8091B5
:101A3A00D4019091D50101969093D5018093D40158
:101A4A0091E08091D8018B3009F090E081E02091FB
:101A5A00D4013091D501243031050CF080E089237E
:101A6A00A9F089E30E947F1946E452E060E0809180
:101A7A00D4019091D5010E940C1B8091D4019091C0
:101A8A00D50101969093D5018093D4012091D80174
:101A9A004091BA015091BB0191E0233109F090E0E5
:101AAA0081E0423051050CF080E0892379F0FA0197
:101ABA00EE0FFF1FE65FFE4F89E090E0918380837F
:101ACA004F5F5F4F5093BB014093BA0181E0409151
:101ADA00BA015091BB01433051050CF080E091E00E
:101AEA00243109F090E0982399F04091B601509181
:101AFA00B701FA01EE0FFF1FE95DFE4F69E070E0E2
:101B0A00718360834F5F5F4F5093B7014093B60173
:101B1A0091E0223109F090E0892309F4C2C2809150
:101B2A00B8019091B901FC01EE0FFF1FE15EFE4F73
:101B3A0029E030E03183208301969093B9018093A4
:101B4A00B801AFC28034910549F58091D80185303A
:101B5A0029F48BE08093D8010E94311991E0809199
:101B6A00D801883009F090E081E02091D4013091C9
:101B7A00D5012430310509F080E0892309F491C2A6
:101B8A008CE08093D80181E090E09093CD0180931E
:101B9A00CC011092D5011092D40183C280339105F1
:101BAA0011F51092D8010E94021B0E94351A109258
:101BBA00CB011092CA011092CF011092CE0110925D
:101BCA00CD011092CC011092D7011092D601109239
:101BDA0069001DBA62E370E080E090E00E94B718E5
:101BEA000E94321B5EC28032910509F025C191E044
:101BFA008091D801883009F090E081E02091D401E9
:101C0A003091D501243031050CF080E08923A9F008
:101C1A0080E30E947F1948E452E060E08091D40199
:101C2A009091D5010E940C1B8091D4019091D5010D
:101C3A0001969093D5018093D40191E08091D801C7
:101C4A00893009F090E081E02091D4013091D501EA
:101C5A00243031050CF080E08923A9F080E30E944A
:101C6A007F1948E452E060E08091D4019091D50157
:101C7A000E94E1188091D4019091D5010196909328
:101C8A00D5018093D40191E08091D8018A3009F07E
:101C9A0090E081E02091D4013091D50124303105C2
:101CAA000CF080E08923A9F080E30E947F1948E4C0
:101CBA0052E060E08091D4019091D5010E940C1B02
:101CCA008091D4019091D50101969093D50180938A
:101CDA00D40191E08091D8018B3009F090E081E045
:101CEA002091D4013091D501243031050CF080E0E7
:101CFA008923A9F080E30E947F1948E452E060E05A
:101D0A008091D4019091D5010E940C1B8091D4013D
:101D1A009091D50101969093D5018093D40191E0D9
:101D2A008091D8018F3009F090E081E02091CE01B6
:101D3A003091CF01232B09F080E0892321F080E044
:101D4A0090E00E94AE132091D80191E0213109F070
:101D5A0090E031E04091C6015091C701452B09F04E
:101D6A0030E081E04091C8015091C901452B09F04A
:101D7A0080E08323992361F0882351F010920101B6
:101D8A001092000181E090E09093C7018093C60110
:101D9A004091BA015091BB0191E0233109F090E0E2
:101DAA0081E0423051050CF080E0892369F0FA01A4
:101DBA00EE0FFF1FE65FFE4F118210824F5F5F4FEB
:101DCA005093BB014093BA0181E04091BA0150910E
:101DDA00BB01433051050CF080E091E0243109F059
:101DEA0090E0982389F04091B6015091B701FA0129
:101DFA00EE0FFF1FE95DFE4F118210824F5F5F4FAA
:101E0A005093B7014093B60191E0223109F090E076
:101E1A00892309F446C18091B8019091B901FC0166
:101E2A00EE0FFF1FE15EFE4F118210820196909322
:101E3A00B9018093B80135C18031910529F58091A6
:101E4A00CA019091CB010097B1F48091D8018730F3
:101E5A0011F0853021F40E94161B0E94E21A0E949A
:101E6A00441B86E08093D80181E090E09093CB01F7
:101E7A008093CA0116C1019709F013C10E94481B39
:101E8A0081E08093D8010DC1892B09F00AC191E044
:101E9A008091D801893009F090E081E02091D40145
:101EAA003091D5012430310509F080E0892349F0C9
:101EBA0081E08093D8010E94021B1092D5011092F2
:101ECA00D40191E08091D8018A3009F090E081E054
:101EDA002091D4013091D5012430310509F080E0F8
:101EEA00892349F08DE08093D8010E94021B109249
:101EFA00D5011092D40191E08091D8018B3009F07C
:101F0A0090E081E02091D4013091D501243031054F
:101F1A0009F080E0892349F08EE08093D8010E947D
:101F2A00021B1092D5011092D40191E08091D80140
:101F3A008F3009F090E081E02091CE013091CF01FD
:101F4A002130310509F080E0892339F081E080935E
:101F5A00D8011092CF011092CE0191E08091D80160
:101F6A00803109F090E081E02091CE013091CF01DB
:101F7A002130310509F080E0892339F081E080932E
:101F8A00D8011092CF011092CE0191E08091D80130
:101F9A00813109F090E021E04091C6015091C701DA
:101FAA004130510509F020E081E04091C80150918B
:101FBA00C9014130510509F080E082239923B9F023
:101FCA008823A9F081E08093D8016091040170917F
:101FDA00050180910001909101010E946710109201
:101FEA00C9011092C8011092C7011092C60191E06E
:101FFA008091D801833109F090E021E04091BA0143
:10200A005091BB01423051050CF420E081E040912F
:10201A00C0015091C1014130510509F080E082238D
:10202A00992359F0882349F081E08093D8010E94CE
:10203A00771A1092BB011092BA0191E08091D801EF
:10204A00843109F090E081E02091B6013091B70126
:10205A00233031050CF480E0892349F081E0809334
:10206A00D8010E94111A1092B7011092B60191E09C
:10207A008091D801823109F090E081E02091B80185
:10208A003091B901233031050CF480E0892349F0FD
:10209A0081E08093D8010E94ED191092B901109243
:1020AA00B801FF91EF91BF91AF919F918F917F916D
:1020BA006F915F914F913F912F910F900FBE0F90AB
:0420CA001F901895B6
:1020CE002091CC013091CD012115310509F0E4C0EC
:1020DE006130710509F048C0009731F421E030E01D
:1020EE0030935F0120935E018130910531F421E040
:1020FE0030E030936101209360018230910531F41C
:10210E0021E030E03093630120936201833091052A
:10211E0031F421E030E03093650120936401843086
:10212E00910531F421E030E0309367012093660190
:10213E008530910531F421E030E030936901209330
:10214E0068018630910531F421E030E030936B0167
:10215E0020936A01079709F051C181E090E09093B6
:10216E006D0180936C0108956230710509F048C0CD
:10217E00009731F421E030E030935F0120935E014F
:10218E008130910531F421E030E0309361012093EC
:10219E0060018230910531F421E030E0309363012B
:1021AE00209362018330910531F421E030E03093C9
:1021BE006501209364018430910531F421E030E013
:1021CE0030936701209366018530910531F421E04B
:1021DE0030E030936901209368018630910531F427
:1021EE0021E030E030936B0120936A01079709F0EC
:1021FE0005C181E090E090936D0180936C0108958C
:10220E006330710509F0FAC0009731F421E030E037
:10221E0030935F0120935E018130910531F421E00E
:10222E0030E030936101209360018230910531F4EA
:10223E0021E030E0309363012093620183309105F9
:10224E0031F421E030E03093650120936401843055
:10225E00910531F421E030E030936701209366015F
:10226E008530910531F421E030E0309369012093FF
:10227E0068018630910531F421E030E030936B0136
:10228E0020936A01079709F0B9C081E090E090931E
:10229E006D0180936C0108952130310509F0AEC0B7
:1022AE0061307105C1F5009721F410925F01109213
:1022BE005E018130910521F410926101109260014E
:1022CE008230910521F410926301109262018330E5
:1022DE00910521F4109265011092640184309105EC
:1022EE0021F410926701109266018530910521F458
:1022FE0010926901109268018630910521F41092B6
:10230E006B0110926A01079709F078C010926D0167
:10231E0010926C01089562307105B9F5009721F4A1
:10232E0010925F0110925E018130910521F410929E
:10233E006101109260018230910521F410926301C7
:10234E00109262018330910521F410926501109272
:10235E0064018430910521F4109267011092660198
:10236E008530910521F41092690110926801863032
:10237E00910521F410926B0110926A010797F1F505
:10238E0010926D0110926C01089563307105B1F5D4
:10239E00009721F410925F0110925E018130910539
:1023AE0021F410926101109260018230910521F4A6
:1023BE0010926301109262018330910521F4109204
:1023CE006501109264018430910521F41092670129
:1023DE00109266018530910521F4109269011092D8
:1023EE0068018630910521F410926B0110926A01FA
:0E23FE00079721F410926D0110926C01089562
:10240C001092D3011092D2011092D1011092D001EE
:10241C0015C0FC01E35DFE4F308123130AC02091EF
:10242C00D0013091D1012F5F3F4F3093D1012093D8
:10243C00D00101969093D3018093D2018091D20167
:10244C009091D301FC01E355FE4F20812111E1CF86
:10245C008091D0019091D101049731F481E0809367
:10246C00D8010E94021B08951092D3011092D20140
:10247C001092D1011092D00115C0FC01E35DFE4F0A
:10248C00308123130AC02091D0013091D1012F5FEC
:10249C003F4F3093D1012093D00101969093D301FB
:1024AC008093D2018091D2019091D301FC01E85527
:1024BC00FE4F20812111E1CF8091D0019091D1016B
:1024CC00049731F481E08093D8010E94021B089597
:1024DC001092D3011092D2011092D1011092D0011E
:1024EC0015C0FC01E35DFE4F308123130AC020911F
:1024FC00D0013091D1012F5F3F4F3093D101209308
:10250C00D00101969093D3018093D2018091D20196
:10251C009091D301FC01ED55FE4F20812111E1CFAB
:10252C008091D0019091D101049731F481E0809396
:10253C00D8010E94021B08951092D3011092D2016F
:10254C001092D1011092D00115C0FC01E35DFE4F39
:10255C00308123130AC02091D0013091D1012F5F1B
:10256C003F4F3093D1012093D00101969093D3012A
:10257C008093D2018091D2019091D301FC01E2565B
:10258C00FE4F20812111E1CF8091D0019091D1019A
:10259C00049731F481E08093D8010E94021B0895C6
:0C25AC0085E08093D8010E94021B089576
:1025B8001092D3011092D2011092D1011092D00141
:1025C80015C0FC01E35DFE4F308123130AC0209142
:1025D800D0013091D1012F5F3F4F3093D10120932B
:1025E800D00101969093D3018093D2018091D201BA
:1025F8009091D301FC01E355FE4F20812111E1CFD9
:102608008091D0019091D101049729F40E94021B76
:102618000E94381B08951092D3011092D201109293
:10262800D1011092D00115C0FC01E35DFE4F30814D
:1026380023130AC02091D0013091D1012F5F3F4F61
:102648003093D1012093D00101969093D3018093C8
:10265800D2018091D2019091D301FC01E855FE4F3F
:1026680020812111E1CF8091D0019091D10104976F
:1026780029F40E94021B0E94381B08951092D3016E
:102688001092D2011092D1011092D00115C0FC0114
:10269800E35DFE4F308123130AC02091D0013091B1
:1026A800D1012F5F3F4F3093D1012093D001019684
:1026B8009093D3018093D2018091D2019091D3015C
:1026C800FC01ED55FE4F20812111E1CF8091D00111
:1026D8009091D101049729F40E94021B0E94381B93
:1026E80008951092D3011092D2011092D101109244
:1026F800D00115C0FC01E35DFE4F308123130AC0F1
:102708002091D0013091D1012F5F3F4F3093D101FB
:102718002093D00101969093D3018093D2018091A8
:10272800D2019091D301FC01E256FE4F2081211184
:10273800E1CF8091D0019091D101049729F40E94B2
:10274800021B0E94381B089581E08093D8010E94E3
:04275800021B0895C3
:10275C0021E030E03093CF012093CE012091CC01C9
:10276C003091CD012115310509F04FC0009739F496
:10277C0081E090E090939B0180939A0108958130C1
:10278C00910539F481E090E0909395018093940148
:10279C0008958230910539F481E090E090938F0197
:1027AC0080938E0108958330910539F481E090E097
:1027BC00909389018093880108958430910539F4B0
:1027CC0081E090E09093830180938201089585309D
:1027DC00910539F481E090E090937D0180937C0128
:1027EC0008958630910539F481E090E0909377015B
:1027FC00809376010895079709F04CC081E090E032
:10280C00909371018093700108952130310509F086
:10281C0041C0009729F410929B0110929A0136C086
:10282C008130910529F410929501109294012EC0DB
:10283C008230910529F410928F0110928E0126C0DE
:10284C008330910529F410928901109288011EC0E1
:10285C008430910529F4109283011092820116C0E4
:10286C008530910529F410927D0110927C010EC0E7
:10287C008630910529F4109277011092760106C0EA
:10288C00079721F410927101109270011092CD01F2
:06289C001092CC0108952A
:1028A2001F920F920FB60F9211242F933F934F93C3
:1028B2005F936F937F938F939F93AF93BF93EF93A6
:1028C200FF938091D8018730B9F48091D901482FC4
:1028D20050E020910E0130910F014217530741F44D
:1028E20081E08093D8011092D9010E94161B3CC04E
:1028F2008F5F8093D90138C08530D1F48091C401B3
:102902009091C50120910801309109018217930726
:1029120049F40E94481B1092C5011092C4010E9402
:10292200161B22C001969093C5018093C4011CC05E
:102932008D30D1F48091C2019091C30120910201A6
:10294200309103018217930751F485E08093D801F7
:102952001092C3011092C2010E94161B05C001967B
:102962009093C3018093C201FF91EF91BF91AF9108
:102972009F918F917F916F915F914F913F912F9195
:0A2982000F900FBE0F901F901895E4
:10298C0084B18E7F84B984B18E6884B98FEF8AB993
:10299C008FE387B98EEF84B987E08AB980EF8BB962
:1029AC000E94A51A0E94291B0E94321B0E941E1510
:1029BC0078940E94B5158091DB018093DA010E9416
:1029CC00A519E091D8018E2F90E08F30910588F7F2
:1029DC00FC01EC5CFF4F0C943E1B0E94161B8CE020
:1029EC0090E090930F0180930E0185E090E090931E
:1029FC00090180930801909303018093020181E007
:102A0C008093D801D6CF0E942D18D3CF0E945B188B
:102A1C00D0CF0E948918CDCF0E94FC17CACF0E943C
:102A2C00F715C7CF0E94DC12C4CF0E940612C1CF8B
:102A3C006FE070E080E090E00E94B71883E00E94A5
:102A4C00B61A65E070E080E090E00E94B71883E071
:102A5C000E94B61A64E670E080E090E00E94C9190A
:102A6C0083E00E94B61A68E270E080E090E00E9479
:102A7C00C91982E00E94B61A68E270E080E090E02A
:102A8C000E94C91988E20E94571A68E270E080E03F
:102A9C0090E00E94C91981E00E94571A62E070E030
:102AAC0080E090E00E94B71886E00E94571A68E216
:102ABC0070E080E090E00E94C9198CE00E94571AE7
:0E2ACC0068E270E080E090E00E94C919089571
:102ADA0021E030E03093CF012093CE012091CC0148
:102AEA003091CD0121153105E9F48130910539F490
:102AFA0081E090E090935D0180935C0108958230BB
:102B0A00910539F481E090E090934901809348015E
:102B1A000895039721F581E090E090933501809321
:102B2A003401089521303105D1F48130910529F419
:102B3A0010925D0110925C010EC08230910529F459
:102B4A00109249011092480106C0039721F410928D
:102B5A003501109234011092CD011092CC010895E2
:102B6A00CF9385B1806485B985B1826085B985B115
:102B7A008D7F85B985B18F7B85B9C0E02FC0189B41
:102B8A0015C08091DB0121E030E00C2E02C0220F3B
:102B9A00331F0A94E2F720953095282B232BB9F09E
:102BAA006C2F0E94201B8093DB0111C08091DB01F6
:102BBA00282F30E00C2E02C0359527950A94E2F7AB
:102BCA0020FF05C06C2F0E94F81A8093DB0185B1A3
:102BDA00826085B985B18D7F85B9CF5FC83078F2BB
:042BEA00CF910895EA
:102BEE001092D3011092D2011092D1011092D00105
:102BFE0015C0FC01E35DFE4F308123130AC0209106
:102C0E00D0013091D1012F5F3F4F3093D1012093EE
:102C1E00D00101969093D3018093D2018091D2017D
:102C2E009091D301FC01E355FE4F20812111E1CF9C
:102C3E008091D0019091D101049731F487E0809377
:102C4E00D8010E94021B089581E08093D8010E9452
:042C5E00021B0895B8
:102C6200CF93DF93CDB7DEB76D970FB6F894DEBF83
:102C72000FBECDBF0E94021B25E531E040E08FE090
:102C8200F901DE011196742F0E94D51A60E0CE017F
:102C920001960E948F1A24E631E040E08EE0F901AD
:102CA200DE015096742F0E94D51A60E4CE01409640
:102CB2000E948F1A6D960FB6F894DEBF0FBECDBF7D
:062CC200DF91CF9108959F
:102CC800CF93DF93CDB7DEB76E970FB6F894DEBF1C
:102CD8000FBECDBF0E94021B25E531E040E08FE02A
:102CE800F901DE011196742F0E94D51A60E0CE0119
:102CF80001960E948F1A22E731E040E08FE0F90147
:102D0800DE015096742F0E94D51A60E4CE014096D9
:102D18000E948F1A6E960FB6F894DEBF0FBECDBF15
:062D2800DF91CF91089538
:102D2E00CF93DF93CDB7DEB76A970FB6F894DEBFB9
:102D3E000FBECDBF0E94021B2CEA31E040E08DE0B9
:102D4E00F901DE011196742F0E94D51A60E0CE01B2
:102D5E0001960E948F1A29EB31E040E08DE0F901D7
:102D6E00DE011E96742F0E94D51A60E4CE010E96D7
:102D7E000E948F1A6A960FB6F894DEBF0FBECDBFB3
:062D8E00DF91CF910895D2
:102D9400CF93DF93CDB7DEB76B970FB6F894DEBF52
:102DA4000FBECDBF0E94021B2CEA31E040E08DE053
:102DB400F901DE011196742F0E94D51A60E0CE014C
:102DC40001960E948F1A26EC31E040E08EE0F90172
:102DD400DE011E96742F0E94D51A60E4CE010E9671
:102DE4000E948F1A6B960FB6F894DEBF0FBECDBF4C
:062DF400DF91CF9108956C
:102DFA00CF93DF93CDB7DEB76B970FB6F894DEBFEC
:102E0A000FBECDBF0E94021B24ED31E040E08DE0F1
:102E1A00F901DE011196742F0E94D51A60E0CE01E5
:102E2A0001960E948F1A21EE31E040E08EE0F9010E
:102E3A00DE011E96742F0E94D51A60E4CE010E960A
:102E4A000E948F1A6B960FB6F894DEBF0FBECDBFE5
:062E5A00DF91CF91089505
:102E6000CF93DF93CDB7DEB76C970FB6F894DEBF84
:102E70000FBECDBF0E94021B2FEE31E040E08EE07E
:102E8000F901DE011196742F0E94D51A60E0CE017F
:102E900001960E948F1A21EE31E040E08EE0F901A8
:102EA000DE011F96742F0E94D51A60E4CE010F96A2
:102EB0000E948F1A6C960FB6F894DEBF0FBECDBF7E
:062EC000DF91CF9108959F
:102EC600CF93DF93CDB7DEB76B970FB6F894DEBF1F
:102ED6000FBECDBF0E94021B2DEF31E040E08EE019
:102EE600F901DE011196742F0E94D51A60E0CE0119
:102EF60001960E948F1A2BE032E040E08DE0F90146
:102F0600DE011F96742F0E94D51A60E4CE010F963B
:102F16000E948F1A6B960FB6F894DEBF0FBECDBF18
:062F2600DF91CF91089538
:102F2C00CF93DF93CDB7DEB76E970FB6F894DEBFB5
:102F3C000FBECDBF0E94021B2DEF31E040E08EE0B2
:102F4C00F901DE011196742F0E94D51A60E0CE01B2
:102F5C0001960E948F1A28E132E040E080E1F901ED
:102F6C00DE011F96742F0E94D51A60E4CE010F96D5
:102F7C000E948F1A6E960FB6F894DEBF0FBECDBFAF
:062F8C00DF91CF910895D2
:102F9200CF93DF93CDB7DEB76C970FB6F894DEBF51
:102FA2000FBECDBF0E94021B2DEF31E040E08EE04C
:102FB200F901DE011196742F0E94D51A60E0CE014C
:102FC20001960E948F1A28E232E040E08EE0F90179
:102FD200DE011F96742F0E94D51A60E4CE010F966F
:102FE2000E948F1A6C960FB6F894DEBF0FBECDBF4B
:062FF200DF91CF9108956C
:102FF800CF93DF93CDB7DEB76E970FB6F894DEBFE9
:103008000FBECDBF21E831E040E08EE0F901DE01DE
:103018001196742F0E94D51A60E0CE0101960E9485
:103028008F1A2FE831E040E080E1F901DE011F96B8
:10303800742F0E94D51A60E4CE010F960E948F1A51
:103048006E960FB6F894DEBF0FBECDBFDF91CF915D
:023058000895D9
:10305A00CF93DF93CDB7DEB762970FB6F894DEBF92
:10306A000FBECDBF25E131E040E081E1F901DE018B
:10307A001196742F0E94D51A60E0CE0101960E9423
:10308A008F1A1A8A60E4CE0142960E948F1A63E070
:10309A0070E080E090E00E94B71862960FB6F8944C
:0C30AA00DEBF0FBECDBFDF91CF910895B7
:1030B600CF93DF93CDB7DEB72F970FB6F894DEBF69
:1030C6000FBECDBF26E231E040E08EE0F901DE0121
:1030D6001196742F0E94D51A60E0CE0101960E94C7
:1030E6008F1A1F8660E4CE010F960E948F1A63E046
:1030F60070E080E090E00E94B7182F960FB6F89423
:0C310600DEBF0FBECDBFDF91CF9108955A
:10311200CF93DF93CDB7DEB762970FB6F894DEBFD9
:103122000FBECDBF24E331E040E081E1F901DE01D1
:103132001196742F0E94D51A60E0CE0101960E946A
:103142008F1A1A8A60E4CE0142960E948F1A63E0B7
:1031520070E080E090E00E94B71862960FB6F89493
:0C316200DEBF0FBECDBFDF91CF910895FE
:10316E009B01AC011092B2011092B3011092B40106
:10317E001092B501A8EEB3E00E94ED1AAB01BC01AE
:10318E000BC00196A11DB11D8093B2019093B301A6
:10319E00A093B401B093B5018091B2019091B301A7
:1031AE00A091B401B091B501481759076A077B0782
:0431BE0044F7089535
:1031C20020912501309126012130310549F4E42F67
:1031D200F52F749167FD7081FC01E855FE4F7083F5
:1031E2002230310549F4E42FF52F749167FD708187
:1031F200FC01ED55FE4F70832330310549F4E42F75
:10320200F52F249167FD2081FC01E256FE4F2083B9
:0232120008951D
:10321400806898B1907C98B998B19F7E98B998B11C
:10322400906298B998B1282F22952F70922B98B953
:1032340098B19F7D98B998B1907C98B998B19062F3
:1032440098B998B18F70892B88B988B18F7D88B966
:0E3254006BE270E080E090E00E94C9190895DE
:10326200CF93DF93CDB7DEB761970FB6F894DEBF89
:103272000FBECDBF0E94021B24E031E040E081E19D
:10328200F901DE011196742F0E94D51A60E0CE0179
:1032920001960E948F1A80EC0E94571A61960FB60F
:0E32A200F894DEBF0FBECDBFDF91CF9108952F
:1032B000CF93DF93CDB7DEB760970FB6F894DEBF3C
:1032C0000FBECDBF0E94021B25E431E040E080E14B
:1032D000F901DE011196742F0E94D51A60E0CE012B
:1032E00001960E948F1A80EC0E94571A60960FB6C2
:0E32F000F894DEBF0FBECDBFDF91CF910895E1
:1032FE0098B1907F98B998B1906198B998B1906251
:10330E0098B998B1282F22952F70922B98B998B111
:10331E009F7D98B998B1907F98B998B1906298B9FD
:10332E0098B18F70892B88B988B18F7D88B96BE27F
:0C333E0070E080E090E00E94C919089542
:10334A0020E019C08091DA0190E0022E02C0959522
:10335A0087950A94E2F780FF04C088B1816088B932
:10336A0003C088B18E7F88B985B1826085B985B17D
:10337A008D7F85B92F5F283028F383B18F7783B982
:08338A0083B1806883B9089546
:10339200AB01BC011092B2011092B3011092B401C0
:1033A2001092B5010BC00196A11DB11D8093B2010F
:1033B2009093B301A093B401B093B5018091B2018F
:1033C2009091B301A091B401B091B501481759078A
:0833D2006A077B0744F7089528
:1033DA00EFE1F1E08081918124E6289FA001299FF5
:1033EA00500D112482819381BC01660F771F9C01C5
:1033FA00220F331F220F331F220F331FCB01820FDD
:10340A00931F840F951F24813581820F931F9093F8
:08341A000301809302010895F3
:10342200E7E2F1E08081918124E6289FA001299FB3
:10343200500D112482819381BC01660F771F9C017C
:10344200220F331F220F331F220F331FCB01820F94
:10345200931F840F951F24813581820F931F9093B0
:0834620009018093080108959F
:10346A00CF93DF93CDB7DEB72D970FB6F894DEBFB3
:10347A000FBECDBF2FE931E040E08DE0F901DE015A
:10348A001196742F0E94D51A60E0CE0101960E940F
:10349A008F1A2D960FB6F894DEBF0FBECDBFDF91FF
:0434AA00CF91089521
:1034AE0098B1907C98B998B19F7E98B998B1906276
:1034BE0098B998B1282F22952F70922B98B998B160
:1034CE009F7D98B998B1907C98B998B1906298B94F
:1034DE0098B18F70892B88B988B18F7D88B908957E
:1034EE00EAE0F1E0808191819C01220F331F880F69
:1034FE00991F880F991F880F991F820F931F228182
:10350E003381820F931F90930F0180930E010895C4
:10351E000F931F93CF938C01862F0E940A19C0E040
:10352E0003C00E947F19CF5FF801EC0FF11D80815F
:0C353E008111F7CFCF911F910F910895DC
:10354A00E1E8F0E0808188608083EFE6F0E0808146
:10355A008260808382E19AE7909389008093880051
:02356A000895C2
:10356C0098B1907C98B998B19F7E98B998B19062B7
:10357C0098B998B1892B88B988B18F7D88B908958D
:10358C00A29FB001B39FC001A39F700D811D112498
:0E359C00911DB29F700D811D1124911D089587
:1035AA00992777FD05C005900D920197E1F70895D7
:0A35BA0001900D920197E1F70895CA
:1035C4001092D9011092C3011092C2011092C50148
:0635D4001092C4010895ED
:1035DA000E94C61AA59F900DB49F900DA49F800DBE
:0635EA00911D112408955B
:1035F00021E030E002C0220F331F6A95E2F72095E8
:043600008223089584
:1036040081E00E94571A6FE070E080E090E00E9431
:04361400B718089546
:10361800E42FF52F249167FD2081835D9E4FFC01E7
:04362800208308955E
:10362C00E1E8F0E08081887F808310928500109221
:04363C008400089569
:1036400021E030E002C0220F331F6A95E2F7822B9F
:023650000895DB
:1036520084B5826084BDEEE6F0E080818260808382
:023662000895C9
:0C3664008CE08093690082E08DBB08952B
:0C367000E1E8F0E0808184608083089530
:0C367C00EE0FFF1F0590F491E02D099463
:083688008BB181608BB908953C
:063690008BB11BB8089588
:043696000C94000090
:10369A00030000000000000000000000000000001D
:0436AA00000000001C
:1036AE00020000000000000000000000000000000A
:0436BE000000000008
:1036C20001000000000000000000000000000000F7
:0436D20000000000F4
:0636D600070000000000E7
:0636DC00060000000000E2
:0636E200050000000000DD
:0636E800040000000000D8
:0636EE00030000000000D3
:0636F400020000000000CE
:0636FA00010000000000C9
:053700003132333400FA
:053705003132333400F5
:05370A003132333400F0
:05370F003132333400EB
:01371400FFB5
:00000001FF
