:100000000C9434000C9451000C9451000C94510049
:100010000C9451000C9451000C9451000C9451001C
:100020000C9451000C9451000C9451000C9451000C
:100030000C9451000C9451000C9451000C945100FC
:100040000C9451000C9451000C9451000C945100EC
:100050000C9451000C9451000C9451000C945100DC
:100060000C9451000C94510011241FBECFEFD8E026
:10007000DEBFCDBF11E0A0E0B1E0ECE9F1E002C0ED
:1000800005900D92A030B107D9F721E0A0E0B1E0D2
:1000900001C01D92A130B207E1F70E94BE000C948E
:1000A000CC000C94000021E030E002C0220F331F8E
:1000B0006A95E2F7822B089521E030E002C0220F1A
:1000C000331F6A95E2F7209582230895CF9385B177
:1000D000826085B985B1846085B985B18B7F85B92A
:1000E00085B18D7F85B9189B08C060E080910001C3
:1000F0000E9453008093000109C08091000180FF9D
:1001000005C060E00E945C0080930001C1E032C045
:1001100085B1846085B9189B18C08091000121E0E9
:1001200030E00C2E02C0220F331F0A94E2F7209514
:100130003095482F50E024233523232BB9F06C2F22
:100140000E9453008093000111C080910001282F6C
:1001500030E00C2E02C0359527950A94E2F720FF77
:1001600005C06C2F0E945C008093000185B18B7FDD
:1001700085B9CF5FC83060F2CF91089584B18E7F8A
:1001800084B984B1866084B98FEF8AB90E94660011
:0C019000809100018BB9FACFF894FFCFEA
:00000001FF
