:100000000C9434000C9451000C9451000C94510049
:100010000C9451000C9451000C9451000C9451001C
:100020000C9451000C9451000C9451000C9451000C
:100030000C9451000C9451000C9451000C945100FC
:100040000C9451000C9451000C9451000C945100EC
:100050000C9451000C9451000C9451000C945100DC
:100060000C9451000C94510011241FBECFEFD8E026
:10007000DEBFCDBF11E0A0E0B1E0E0E9F1E002C0F9
:1000800005900D92A030B107D9F721E0A0E0B1E0D2
:1000900001C01D92A230B207E1F70E94B8000C9493
:1000A000C6000C94000021E030E002C0220F331F94
:1000B0006A95E2F7822B089521E030E002C0220F1A
:1000C000331F6A95E2F7209582230895CF9385B177
:1000D000826085B985B1846085B985B18B7F85B92A
:1000E00085B18D7F85B9189B07C060E080910101C3
:1000F0000E94530080930101C1E036C085B1846045
:1001000085B983B1817080930001189B18C08091DC
:10011000010121E030E00C2E02C0220F331F0A94AF
:10012000E2F720953095482F50E024233523232BE8
:10013000B9F06C2F0E9453008093010111C080918F
:100140000101282F30E00C2E02C0359527950A9426
:10015000E2F720FF05C06C2F0E945C008093010134
:1001600085B18B7F85B9CF5FC83040F2CF910895BC
:1001700084B18E7F84B984B1866084B98FEF8AB9E7
:100180000E946600809101018BB9FACFF894FFCFED
:00000001FF
