:100000000C9434000C9451000C9451000C94510049
:100010000C9451000C9451000C9451000C9451001C
:100020000C9451000C9451000C9451000C9451000C
:100030000C9451000C9451000C9451000C945100FC
:100040000C9451000C9451000C9451000C945100EC
:100050000C9451000C9451000C9451000C945100DC
:100060000C9451000C94510011241FBECFEFD8E026
:10007000DEBFCDBF11E0A0E0B1E0E0E7F1E002C0FB
:1000800005900D92A030B107D9F721E0A0E0B1E0D2
:1000900001C01D92A130B207E1F70E94A8000C94A4
:1000A000B6000C94000021E030E002C0220F331FA4
:1000B0006A95E2F7822B089521E030E002C0220F1A
:1000C000331F6A95E2F7209582230895CF9385B177
:1000D000826085B985B1846085B985B18B7F85B92A
:1000E00085B18D7F85B9C0E02FC0189B15C0809168
:1000F000000121E030E00C2E02C0220F331F0A94D1
:10010000E2F720953095282B232BB9F06C2F0E9415
:1001100053008093000111C080910001282F30E02E
:100120000C2E02C0359527950A94E2F720FF05C0F2
:100130006C2F0E945C008093000185B1846085B9BA
:1001400085B18B7F85B9CF5FC83078F2CF910895A4
:1001500084B18E7F84B984B1866084B98FEF8AB907
:100160000E946600809100018BB9FACFF894FFCF0E
:00000001FF
