:100000000C9434000C9451000C9451000C94510049
:100010000C9451000C9451000C9451000C9451001C
:100020000C9451000C9451000C9451000C9451000C
:100030000C9451000C9451000C9451000C945100FC
:100040000C9451000C9451000C9451000C945100EC
:100050000C9451000C9451000C9451000C945100DC
:100060000C9451000C94510011241FBECFEFD8E026
:10007000DEBFCDBF11E0A0E0B1E0E4ECF1E002C0F2
:1000800005900D92A230B107D9F721E0A2E0B1E0CE
:1000900001C01D92A330B207E1F70E94CC000C947E
:1000A000E0000C94000021E030E002C0220F331F7A
:1000B0006A95E2F7822B089521E030E002C0220F1A
:1000C000331F6A95E2F7209582230895CF9385B177
:1000D000826085B985B1846085B985B18B7F85B92A
:1000E00085B18D7F85B9C0E02FC0189B15C0809168
:1000F000020121E030E00C2E02C0220F331F0A94CF
:10010000E2F720953095282B232BB9F06C2F0E9415
:1001100053008093020111C080910201282F30E02A
:100120000C2E02C0359527950A94E2F720FF05C0F2
:100130006C2F0E945C008093020185B1846085B9B8
:1001400085B18B7F85B9CF5FC83078F2CF910895A4
:1001500020E019C08091000190E0022E02C0959528
:1001600087950A94E2F780FF04C088B1816088B95E
:1001700003C088B18E7F88B985B1886085B985B1A3
:10018000877F85B92F5F283028F383B18F7783B9B4
:1001900083B1806883B9089584B18E7F84B984B1B6
:1001A0008E6884B98FEF8AB987B1816087B90E9460
:1001B000660080910201809300010E94A800F7CFA1
:0401C000F894FFCFE1
:0201C400FF003A
:00000001FF
