:100000000C9437000C948E020C9467000C948E02B2
:100010000C948E020C948E020C948E020C948E0220
:100020000C948E020C948E020C948E020C948E0210
:100030000C948E020C948E020C948E020C948E0200
:100040000C948E020C948E020C948E020C948E02F0
:100050000C948E020C948E020C948E020C948E02E0
:100060000C948E020C948E02010001178000112462
:100070001FBECFEFD8E0DEBFCDBFE8E6F0E040E046
:1000800017C0B591A59135912591059107FD0CC03B
:1000900095918591EF01F92FE82F05900D92A21708
:1000A000B307D9F7FE0104C01D92A217B307E1F709
:1000B000ED36F40731F70E9480010C945F00F8944C
:0200C000FFCF70
:0C00C20020202020424F4D2044494100E6
:1000CE001F920F920FB60F9211242F933F934F93BF
:1000DE005F936F937F938F939F93AF93BF93EF93A2
:1000EE00FF9389B1807F90E090930101809300018E
:1000FE00803F910521F481E30E94D10170C08037C9
:10010E00910521F482E30E94D10169C0803B9105E3
:10011E0021F483E30E94D10162C08033910521F462
:10012E0080E50E94D1015BC0803D910521F484E3FE
:10013E000E94D10154C08035910521F485E30E94BF
:10014E00D1014DC08039910521F486E30E94D10181
:10015E0046C08031910521F481E40E94D1013FC057
:10016E00803E910521F487E30E94D10138C080368C
:10017E00910521F488E30E94D10131C0803A9105A6
:10018E0021F489E30E94D1012AC08032910521F425
:10019E0084E40E94D10123C0803C910569F48091D2
:1001AE0015019091160101969093160180931501F9
:1001BE0082E50E94D10113C08034910521F480E3C1
:1001CE000E94D1010CC08038910521F483E50E9474
:1001DE00D10105C0892B19F485E40E94D101FF914C
:1001EE00EF91BF91AF919F918F917F916F915F91A1
:1001FE004F913F912F910F900FBE0F901F9018951A
:10020E006FE070E080E090E00E94560183E00E9473
:10021E00510265E070E080E090E00E94560183E0BC
:10022E000E94510264E670E080E090E00E94F701C7
:10023E0083E00E94510268E270E080E090E00E944C
:10024E00F70182E00E94510268E270E080E090E0E7
:10025E000E94F70188E20E941B0268E270E080E0D3
:10026E0090E00E94F70181E00E941B0262E070E0C4
:10027E0080E090E00E94560186E00E941B0268E238
:10028E0070E080E090E00E94F7018CE00E941B027B
:0E029E0068E270E080E090E00E94F7010895B1
:1002AC009B01AC01109211011092120110921301DA
:1002BC0010921401A8EEB3E00E947D02AB01BC01C8
:1002CC000BC00196A11DB11D8093110190931201D9
:1002DC00A0931301B093140180911101909112011C
:1002EC00A0911301B0911401481759076A077B07B5
:0402FC0044F7089526
:10030000CF93DF93CDB7DEB72D970FB6F894DEBF4E
:100310000FBECDBF8FE384B91AB880EF8BB90E94AE
:1003200088020E94070122EC30E040E08CE0F901F5
:10033000DE011196742F0E94700260E0CE010196DA
:100340000E943B021D8660E4CE010D960E943B0296
:040350007894FFCFCF
:10035400806895B1907C95B995B19F7E95B995B11A
:10036400906295B995B1282F22952F70922B95B94B
:1003740095B19F7D95B995B1907C95B995B19062F1
:1003840095B995B18F70892B85B985B18F7D85B964
:0E0394006BE270E080E090E00E94F7010895B7
:1003A20095B1907F95B995B1906195B995B19062EB
:1003B20095B995B1282F22952F70922B95B995B1A9
:1003C2009F7D95B995B1907F95B995B1906295B998
:1003D20095B18F70892B85B985B18F7D85B96BE217
:0C03E20070E080E090E00E94F7010895B8
:1003EE00AB01BC0110921101109212011092130177
:1003FE00109214010BC00196A11DB11D8093110125
:10040E0090931201A0931301B093140180911101E6
:10041E0090911201A0911301B09114014817590740
:08042E006A077B0744F70895FB
:1004360095B1907C95B995B19F7E95B995B190622D
:1004460095B995B1282F22952F70922B95B995B114
:100456009F7D95B995B1907C95B995B1906295B906
:1004660095B18F70892B85B985B18F7D85B9089532
:100476000F931F93CF938C01862F0E94AA01C0E091
:1004860003C00E94D101CF5FF801EC0FF11D8081FE
:0C0496008111F7CFCF911F910F910895B5
:1004A20095B1907C95B995B19F7E95B995B19062C1
:1004B20095B995B1892B85B985B18F7D85B9089597
:1004C200A29FB001B39FC001A39F700D811D112493
:0E04D200911DB29F700D811D1124911D089582
:1004E000992777FD05C005900D920197E1F70895D2
:0A04F00001900D920197E1F70895C5
:1004FA000E946102A59F900DB49F900DA49F800D4C
:06050A00911D112408956B
:0C0510008CE08093690082E08DBB0895B0
:04051C000C9400003B
:00000001FF
