S01700004763634170706C69636174696F6E312E737265635B
S11300000C9434000C943E000C943E000C943E007E
S11300100C943E000C943E000C943E000C943E0064
S11300200C943E000C943E000C943E000C943E0054
S11300300C943E000C943E000C943E000C943E0044
S11300400C943E000C943E000C943E000C943E0034
S11300500C943E000C943E000C943E000C943E0024
S11300600C943E000C943E0011241FBECFEFD8E048
S1130070DEBFCDBF0E9466000C94A0000C9400006B
S113008084B18C6284B98CB581658CBD85B1846082
S113009085B908958EBD08959CB595659CBD95B1AF
S11300A09B7F95B90E944A000DB407FEFDCF8FEFE8
S11300B00E944A000DB407FEFDCF85B1846085B966
S11300C08EB5089580E00E944C0008950E9440007F
S11300D08FEF8AB9C0E0D0E0CE016AE070E00E9400
S11300E07800892B19F40E9462008BB92196F4CF11
S11300F097FB072E16F4009407D077FD09D00E94D1
S11301008C0007FC05D03EF4909581959F4F08958F
S1130110709561957F4F0895AA1BBB1B51E107C0E1
S1130120AA1FBB1FA617B70710F0A61BB70B881F83
S1130130991F5A95A9F780959095BC01CD01089512
S1070140F894FFCF5D
S9030000FC
