S01700004763634170706C69636174696F6E312E737265635B
S11300000C9434000C9449000C9449000C9449005D
S11300100C9449000C9449000C9449000C94490038
S11300200C9449000C9449000C9449000C94490028
S11300300C9449000C9449000C9449000C94490018
S11300400C9449000C9449000C9449000C94490008
S11300500C9449000C9449000C9449000C944900F8
S11300600C9449000C94490011241FBECFEFD8E032
S1130070DEBFCDBF11E0A0E0B1E0EEE2F2E002C0ED
S113008005900D92AC32B107D9F70E94CC000C94C4
S113009015010C940000CF92DF92EF92FF926B0156
S11300A07C01CA01B901689413F8969587957795F0
S11300B067951694D1F7A70196010E94F300215089
S11300C031093093C5002093C4001092C00088E128
S11300D08093C10086E08093C200FF90EF90DF9090
S11300E0CF9008958091C000807208958093C600D7
S11300F00895CF93DF93EC0107C00E947200882318
S1130100E1F389910E94760088818111F6CFDF9115
S1130110CF9108951F93CF93DF9300D01F92CDB753
S1130120DEB710E001C0192F9DEC899F912D112499
S1130130969596959695392F330F232F220F220FDC
S1130140230F821B20E3280F892FE1E0F0E0EC0F5E
S1130150FD1FE10FF11D17FDFA95208391E0910F2A
S11301608111E1CF10C00E9472008823E1F3E1E025
S1130170F0E0EC0FFD1FE10FF11D17FDFA958081F2
S11301800E9476001150112374F70F900F900F9076
S1130190DF91CF911F91089520E032E14AE750E0CA
S11301A060E875E280E090E00E944B0080E091E01E
S11301B00E9479000E9472008823E1F385E090E0B8
S11301C00E948A008FE191E00E9479000E947200EF
S11301D08823E1F38AE090E00E948A0089E291E0BA
S11301E00E947900D9CFA1E21A2EAA1BBB1BFD01E4
S11301F00DC0AA1FBB1FEE1FFF1FA217B307E40702
S1130200F50720F0A21BB30BE40BF50B661F771F59
S1130210881F991F1A9469F7609570958095909539
S11102209B01AC01BD01CF010895F894FFCFFE
S113022E412063656E7472616C20666F692061741F
S113023E6976616461206E6F2064696120200020FC
S10F024E6520686F72612020000D0A001A
S9030000FC
